{
  "_format": "hh-sol-artifact-1",
  "contractName": "CrowdFunding",
  "sourceName": "contracts/CrowdFunding.sol",
  "abi": [
    {
      "inputs": [],
      "name": "CamPaignEndedErrorNoLongerAcceptingDonations",
      "type": "error"
    },
    {
      "inputs": [],
      "name": "CampaignAlreadyEnded",
      "type": "error"
    },
    {
      "inputs": [],
      "name": "CampaignHasEnded",
      "type": "error"
    },
    {
      "inputs": [],
      "name": "CampaignStillRunning",
      "type": "error"
    },
    {
      "inputs": [
        {
          "internalType": "address",
          "name": "_address",
          "type": "address"
        }
      ],
      "name": "CanNotVoteOnMileStone",
      "type": "error"
    },
    {
      "inputs": [
        {
          "internalType": "address",
          "name": "_donorAddress",
          "type": "address"
        }
      ],
      "name": "CantWithdrawFundsCampaignEnded",
      "type": "error"
    },
    {
      "inputs": [],
      "name": "FundingGoalNotMet",
      "type": "error"
    },
    {
      "inputs": [],
      "name": "InsufficientFunds",
      "type": "error"
    },
    {
      "inputs": [],
      "name": "InvalidInitialization",
      "type": "error"
    },
    {
      "inputs": [],
      "name": "MaximumNumberofWithdrawalExceeded",
      "type": "error"
    },
    {
      "inputs": [],
      "name": "MileStoneVotingHasElapsed",
      "type": "error"
    },
    {
      "inputs": [],
      "name": "MileStoneVotingPeriodHasNotElapsed",
      "type": "error"
    },
    {
      "inputs": [],
      "name": "MilestoneHasEnded",
      "type": "error"
    },
    {
      "inputs": [],
      "name": "NewDurationSmallerThanPreviousDuration",
      "type": "error"
    },
    {
      "inputs": [],
      "name": "NotInitializing",
      "type": "error"
    },
    {
      "inputs": [],
      "name": "ReentrancyGuardReentrantCall",
      "type": "error"
    },
    {
      "inputs": [],
      "name": "TheMaximumMilestoneHaveBeenCreated",
      "type": "error"
    },
    {
      "inputs": [
        {
          "internalType": "uint256",
          "name": "amount",
          "type": "uint256"
        }
      ],
      "name": "WithdrawalFailed",
      "type": "error"
    },
    {
      "inputs": [],
      "name": "YouAreNotTheOwnerOfTheCampaign",
      "type": "error"
    },
    {
      "inputs": [],
      "name": "YouDidNotDonateToThisCampaign",
      "type": "error"
    },
    {
      "inputs": [],
      "name": "YouHaveAPendingMileStone",
      "type": "error"
    },
    {
      "inputs": [
        {
          "internalType": "address",
          "name": "_address",
          "type": "address"
        }
      ],
      "name": "YouHaveVotedForThisMilestoneAlready",
      "type": "error"
    },
    {
      "anonymous": false,
      "inputs": [
        {
          "indexed": true,
          "internalType": "address",
          "name": "project",
          "type": "address"
        },
        {
          "indexed": true,
          "internalType": "uint256",
          "name": "date",
          "type": "uint256"
        }
      ],
      "name": "CampaignEnded",
      "type": "event"
    },
    {
      "anonymous": false,
      "inputs": [
        {
          "indexed": true,
          "internalType": "address",
          "name": "donor",
          "type": "address"
        },
        {
          "indexed": false,
          "internalType": "uint256",
          "name": "amount",
          "type": "uint256"
        },
        {
          "indexed": true,
          "internalType": "address",
          "name": "project",
          "type": "address"
        },
        {
          "indexed": true,
          "internalType": "uint256",
          "name": "date",
          "type": "uint256"
        }
      ],
      "name": "DonationReceived",
      "type": "event"
    },
    {
      "anonymous": false,
      "inputs": [
        {
          "indexed": true,
          "internalType": "address",
          "name": "project",
          "type": "address"
        },
        {
          "indexed": true,
          "internalType": "address",
          "name": "donor",
          "type": "address"
        },
        {
          "indexed": false,
          "internalType": "uint256",
          "name": "amountReceived",
          "type": "uint256"
        },
        {
          "indexed": false,
          "internalType": "uint256",
          "name": "amountDonated",
          "type": "uint256"
        },
        {
          "indexed": true,
          "internalType": "uint256",
          "name": "date",
          "type": "uint256"
        }
      ],
      "name": "DonationWithdrawn",
      "type": "event"
    },
    {
      "anonymous": false,
      "inputs": [
        {
          "indexed": false,
          "internalType": "uint64",
          "name": "version",
          "type": "uint64"
        }
      ],
      "name": "Initialized",
      "type": "event"
    },
    {
      "anonymous": false,
      "inputs": [
        {
          "indexed": true,
          "internalType": "address",
          "name": "owner",
          "type": "address"
        },
        {
          "indexed": true,
          "internalType": "uint256",
          "name": "dateCreated",
          "type": "uint256"
        },
        {
          "indexed": false,
          "internalType": "uint256",
          "name": "period",
          "type": "uint256"
        },
        {
          "indexed": true,
          "internalType": "string",
          "name": "milestoneCID",
          "type": "string"
        }
      ],
      "name": "MilestoneCreated",
      "type": "event"
    },
    {
      "anonymous": false,
      "inputs": [
        {
          "indexed": true,
          "internalType": "address",
          "name": "project",
          "type": "address"
        },
        {
          "indexed": false,
          "internalType": "enum CrowdFunding.MilestoneStatus",
          "name": "status",
          "type": "uint8"
        },
        {
          "indexed": false,
          "internalType": "string",
          "name": "milestoneCID",
          "type": "string"
        },
        {
          "indexed": true,
          "internalType": "uint256",
          "name": "date",
          "type": "uint256"
        }
      ],
      "name": "MilestoneStatusUpdated",
      "type": "event"
    },
    {
      "anonymous": false,
      "inputs": [
        {
          "indexed": true,
          "internalType": "address",
          "name": "voter",
          "type": "address"
        },
        {
          "indexed": true,
          "internalType": "address",
          "name": "project",
          "type": "address"
        },
        {
          "indexed": false,
          "internalType": "bool",
          "name": "vote",
          "type": "bool"
        },
        {
          "indexed": true,
          "internalType": "uint256",
          "name": "date",
          "type": "uint256"
        }
      ],
      "name": "MilestoneVoted",
      "type": "event"
    },
    {
      "anonymous": false,
      "inputs": [
        {
          "indexed": true,
          "internalType": "address",
          "name": "owner",
          "type": "address"
        },
        {
          "indexed": false,
          "internalType": "uint256",
          "name": "amount",
          "type": "uint256"
        },
        {
          "indexed": true,
          "internalType": "uint256",
          "name": "date",
          "type": "uint256"
        }
      ],
      "name": "MilestoneWithdrawn",
      "type": "event"
    },
    {
      "anonymous": false,
      "inputs": [
        {
          "indexed": true,
          "internalType": "address",
          "name": "voter",
          "type": "address"
        },
        {
          "indexed": true,
          "internalType": "address",
          "name": "project",
          "type": "address"
        },
        {
          "indexed": false,
          "internalType": "bool",
          "name": "support",
          "type": "bool"
        },
        {
          "indexed": false,
          "internalType": "uint256",
          "name": "amount",
          "type": "uint256"
        },
        {
          "indexed": true,
          "internalType": "uint256",
          "name": "timestamp",
          "type": "uint256"
        },
        {
          "indexed": false,
          "internalType": "string",
          "name": "milestoneCID",
          "type": "string"
        }
      ],
      "name": "VotedOnMilestone",
      "type": "event"
    },
    {
      "inputs": [],
      "name": "campaignEnded",
      "outputs": [
        {
          "internalType": "bool",
          "name": "",
          "type": "bool"
        }
      ],
      "stateMutability": "view",
      "type": "function"
    },
    {
      "inputs": [],
      "name": "contractBalance",
      "outputs": [
        {
          "internalType": "uint256",
          "name": "",
          "type": "uint256"
        }
      ],
      "stateMutability": "view",
      "type": "function"
    },
    {
      "inputs": [
        {
          "internalType": "string",
          "name": "milestoneCID",
          "type": "string"
        }
      ],
      "name": "createNewMilestone",
      "outputs": [],
      "stateMutability": "nonpayable",
      "type": "function"
    },
    {
      "inputs": [],
      "name": "donationToken",
      "outputs": [
        {
          "internalType": "contract CrowdFundingToken",
          "name": "",
          "type": "address"
        }
      ],
      "stateMutability": "view",
      "type": "function"
    },
    {
      "inputs": [
        {
          "internalType": "address",
          "name": "",
          "type": "address"
        }
      ],
      "name": "donors",
      "outputs": [
        {
          "internalType": "uint256",
          "name": "",
          "type": "uint256"
        }
      ],
      "stateMutability": "view",
      "type": "function"
    },
    {
      "inputs": [],
      "name": "endCampaign",
      "outputs": [],
      "stateMutability": "nonpayable",
      "type": "function"
    },
    {
      "inputs": [],
      "name": "getCampaignStats",
      "outputs": [
        {
          "internalType": "uint256",
          "name": "_amountDonated",
          "type": "uint256"
        },
        {
          "internalType": "uint256",
          "name": "_targetAmount",
          "type": "uint256"
        },
        {
          "internalType": "uint256",
          "name": "_numberOfDonors",
          "type": "uint256"
        },
        {
          "internalType": "uint256",
          "name": "_approvedMilestones",
          "type": "uint256"
        },
        {
          "internalType": "bool",
          "name": "_ended",
          "type": "bool"
        }
      ],
      "stateMutability": "view",
      "type": "function"
    },
    {
      "inputs": [],
      "name": "getFundingDetails",
      "outputs": [
        {
          "internalType": "address",
          "name": "",
          "type": "address"
        },
        {
          "internalType": "uint256",
          "name": "",
          "type": "uint256"
        },
        {
          "internalType": "uint256",
          "name": "",
          "type": "uint256"
        }
      ],
      "stateMutability": "view",
      "type": "function"
    },
    {
      "inputs": [],
      "name": "getWithdrawalTaxRate",
      "outputs": [
        {
          "internalType": "uint256",
          "name": "",
          "type": "uint256"
        }
      ],
      "stateMutability": "pure",
      "type": "function"
    },
    {
      "inputs": [],
      "name": "giveDonationToCause",
      "outputs": [],
      "stateMutability": "payable",
      "type": "function"
    },
    {
      "inputs": [
        {
          "internalType": "address",
          "name": "_donorAddress",
          "type": "address"
        }
      ],
      "name": "hasVotedOnMilestone",
      "outputs": [
        {
          "internalType": "bool",
          "name": "",
          "type": "bool"
        }
      ],
      "stateMutability": "view",
      "type": "function"
    },
    {
      "inputs": [
        {
          "internalType": "uint256",
          "name": "newPeriod",
          "type": "uint256"
        }
      ],
      "name": "increaseCampaignPeriod",
      "outputs": [],
      "stateMutability": "nonpayable",
      "type": "function"
    },
    {
      "inputs": [
        {
          "internalType": "string",
          "name": "_contractDetailsId",
          "type": "string"
        },
        {
          "internalType": "string",
          "name": "_title",
          "type": "string"
        },
        {
          "internalType": "enum CrowdFunding.Category",
          "name": "_category",
          "type": "uint8"
        },
        {
          "internalType": "uint256",
          "name": "_amount",
          "type": "uint256"
        },
        {
          "internalType": "uint256",
          "name": "_duration",
          "type": "uint256"
        },
        {
          "internalType": "address",
          "name": "_factoryAddress",
          "type": "address"
        },
        {
          "internalType": "address",
          "name": "_donationTokenAddress",
          "type": "address"
        },
        {
          "internalType": "address",
          "name": "_owner",
          "type": "address"
        }
      ],
      "name": "initialize",
      "outputs": [],
      "stateMutability": "nonpayable",
      "type": "function"
    },
    {
      "inputs": [
        {
          "internalType": "uint256",
          "name": "",
          "type": "uint256"
        }
      ],
      "name": "milestones",
      "outputs": [
        {
          "internalType": "string",
          "name": "milestoneCID",
          "type": "string"
        },
        {
          "internalType": "bool",
          "name": "approved",
          "type": "bool"
        },
        {
          "internalType": "uint256",
          "name": "votingPeriod",
          "type": "uint256"
        },
        {
          "internalType": "enum CrowdFunding.MilestoneStatus",
          "name": "status",
          "type": "uint8"
        },
        {
          "internalType": "uint256",
          "name": "supportVote",
          "type": "uint256"
        },
        {
          "internalType": "uint256",
          "name": "againstVote",
          "type": "uint256"
        }
      ],
      "stateMutability": "view",
      "type": "function"
    },
    {
      "inputs": [],
      "name": "retrieveDonatedAmount",
      "outputs": [],
      "stateMutability": "nonpayable",
      "type": "function"
    },
    {
      "inputs": [
        {
          "internalType": "uint256",
          "name": "newDays",
          "type": "uint256"
        }
      ],
      "name": "setVotingPeriod",
      "outputs": [],
      "stateMutability": "nonpayable",
      "type": "function"
    },
    {
      "inputs": [],
      "name": "totalVotesOnMilestone",
      "outputs": [
        {
          "internalType": "uint256",
          "name": "",
          "type": "uint256"
        },
        {
          "internalType": "uint256",
          "name": "",
          "type": "uint256"
        }
      ],
      "stateMutability": "view",
      "type": "function"
    },
    {
      "inputs": [
        {
          "internalType": "bool",
          "name": "support",
          "type": "bool"
        }
      ],
      "name": "voteOnMilestone",
      "outputs": [],
      "stateMutability": "nonpayable",
      "type": "function"
    },
    {
      "inputs": [],
      "name": "votingPeriodDays",
      "outputs": [
        {
          "internalType": "uint256",
          "name": "",
          "type": "uint256"
        }
      ],
      "stateMutability": "view",
      "type": "function"
    },
    {
      "inputs": [],
      "name": "withdrawMilestone",
      "outputs": [],
      "stateMutability": "nonpayable",
      "type": "function"
    },
    {
      "stateMutability": "payable",
      "type": "receive"
    }
  ],
  "bytecode": "0x608060405234801561001057600080fd5b506001600081905550613efc806100286000396000f3fe6080604052600436106101235760003560e01c80638b7afe2e116100a0578063d5330fb211610064578063d5330fb214610378578063e0ae1b73146103a7578063e89e4ed6146103d0578063ea0217cf14610412578063ef9331d11461043b5761012a565b80638b7afe2e146102a5578063ba536193146102d0578063bf2928a6146102f9578063c5c22db114610310578063ca0cdea81461033b5761012a565b806341cf938a116100e757806341cf938a146102025780636eefa2dd1461022f57806371aac7f9146102395780637d6492f614610250578063858b85b3146102795761012a565b80630b228b301461012f5780630df7215914610158578063205db23714610183578063294b23a2146101c05780633bc47fbe146101d75761012a565b3661012a57005b600080fd5b34801561013b57600080fd5b506101566004803603810190610151919061299b565b610466565b005b34801561016457600080fd5b5061016d61058a565b60405161017a9190612a47565b60405180910390f35b34801561018f57600080fd5b506101aa60048036038101906101a59190612aa0565b6105b0565b6040516101b79190612ae8565b60405180910390f35b3480156101cc57600080fd5b506101d5610621565b005b3480156101e357600080fd5b506101ec610e77565b6040516101f99190612ae8565b60405180910390f35b34801561020e57600080fd5b50610217610e8a565b60405161022693929190612b21565b60405180910390f35b610237610ec1565b005b34801561024557600080fd5b5061024e611195565b005b34801561025c57600080fd5b5061027760048036038101906102729190612be2565b611337565b005b34801561028557600080fd5b5061028e611852565b60405161029c929190612cd9565b60405180910390f35b3480156102b157600080fd5b506102ba611881565b6040516102c79190612d02565b60405180910390f35b3480156102dc57600080fd5b506102f760048036038101906102f29190612d49565b611889565b005b34801561030557600080fd5b5061030e611c6b565b005b34801561031c57600080fd5b50610325612237565b6040516103329190612d02565b60405180910390f35b34801561034757600080fd5b50610362600480360381019061035d9190612aa0565b612240565b60405161036f9190612d02565b60405180910390f35b34801561038457600080fd5b5061038d612258565b60405161039e959493929190612d76565b60405180910390f35b3480156103b357600080fd5b506103ce60048036038101906103c99190612f0a565b61228d565b005b3480156103dc57600080fd5b506103f760048036038101906103f2919061299b565b61255a565b60405161040996959493929190613049565b60405180910390f35b34801561041e57600080fd5b506104396004803603810190610434919061299b565b612638565b005b34801561044757600080fd5b50610450612769565b60405161045d9190612d02565b60405180910390f35b3360018054906101000a900473ffffffffffffffffffffffffffffffffffffffff1673ffffffffffffffffffffffffffffffffffffffff168173ffffffffffffffffffffffffffffffffffffffff16146104ec576040517f3926793000000000000000000000000000000000000000000000000000000000815260040160405180910390fd5b6006548211610527576040517f152a828800000000000000000000000000000000000000000000000000000000815260040160405180910390fd5b60006301e133804261053991906130e0565b90508083111561057e576040517f08c379a000000000000000000000000000000000000000000000000000000000815260040161057590613186565b60405180910390fd5b82600681905550505050565b600e60009054906101000a900473ffffffffffffffffffffffffffffffffffffffff1681565b60008060106000600954815260200190815260200160002090508060060160008473ffffffffffffffffffffffffffffffffffffffff1673ffffffffffffffffffffffffffffffffffffffff16815260200190815260200160002060009054906101000a900460ff16915050919050565b61062961276f565b6000600f60003373ffffffffffffffffffffffffffffffffffffffff1673ffffffffffffffffffffffffffffffffffffffff1681526020019081526020016000205490506000600a5490506000479050600083036106b3576040517f93e9fd3000000000000000000000000000000000000000000000000000000000815260040160405180910390fd5b600382106106f857336040517f3783cd4d0000000000000000000000000000000000000000000000000000000081526004016106ef91906131a6565b60405180910390fd5b6000600954111561097d5760006010600060095481526020019081526020016000209050600160038111156107305761072f612fd2565b5b8160030160009054906101000a900460ff16600381111561075457610753612fd2565b5b1480156107ac57508060060160003373ffffffffffffffffffffffffffffffffffffffff1673ffffffffffffffffffffffffffffffffffffffff16815260200190815260200160002060009054906101000a900460ff165b1561097b5760008160070160003373ffffffffffffffffffffffffffffffffffffffff1673ffffffffffffffffffffffffffffffffffffffff1681526020019081526020016000205490508160080160003373ffffffffffffffffffffffffffffffffffffffff1673ffffffffffffffffffffffffffffffffffffffff16815260200190815260200160002060009054906101000a900460ff161561086b578082600401600082825461085f91906131c1565b92505081905550610887565b8082600501600082825461087f91906131c1565b925050819055505b60008260060160003373ffffffffffffffffffffffffffffffffffffffff1673ffffffffffffffffffffffffffffffffffffffff16815260200190815260200160002060006101000a81548160ff02191690831515021790555060008260070160003373ffffffffffffffffffffffffffffffffffffffff1673ffffffffffffffffffffffffffffffffffffffff168152602001908152602001600020819055508160080160003373ffffffffffffffffffffffffffffffffffffffff1673ffffffffffffffffffffffffffffffffffffffff16815260200190815260200160002060006101000a81549060ff0219169055505b505b600080830361099657670de0b6b3a76400009050610a27565b600183036109c6576003670de0b6b3a764000060026109b591906131f5565b6109bf9190613266565b9050610a26565b600283036109ea576003670de0b6b3a76400006109e39190613266565b9050610a25565b6040517f08c379a0000000000000000000000000000000000000000000000000000000008152600401610a1c906132e3565b60405180910390fd5b5b5b6000670de0b6b3a76400008286610a3e91906131f5565b610a489190613266565b905060006064600a83610a5b91906131f5565b610a659190613266565b905060008183610a7591906131c1565b90508181610a8391906130e0565b851015610ac5576040517f08c379a0000000000000000000000000000000000000000000000000000000008152600401610abc9061334f565b60405180910390fd5b600073ffffffffffffffffffffffffffffffffffffffff16600260009054906101000a900473ffffffffffffffffffffffffffffffffffffffff1673ffffffffffffffffffffffffffffffffffffffff1603610b56576040517f08c379a0000000000000000000000000000000000000000000000000000000008152600401610b4d906133bb565b60405180910390fd5b6000600f60003373ffffffffffffffffffffffffffffffffffffffff1673ffffffffffffffffffffffffffffffffffffffff1681526020019081526020016000208190555060086000815480929190610bae906133db565b919050555086600c6000828254610bc591906130e0565b925050819055508660076000828254610bde91906131c1565b92505081905550600e60009054906101000a900473ffffffffffffffffffffffffffffffffffffffff1673ffffffffffffffffffffffffffffffffffffffff16639730b30588336040518363ffffffff1660e01b8152600401610c42929190613404565b600060405180830381600087803b158015610c5c57600080fd5b505af1158015610c70573d6000803e3d6000fd5b5050505060003373ffffffffffffffffffffffffffffffffffffffff1682604051610c9a9061345e565b60006040518083038185875af1925050503d8060008114610cd7576040519150601f19603f3d011682016040523d82523d6000602084013e610cdc565b606091505b5050905080610d2257816040517f3d1da178000000000000000000000000000000000000000000000000000000008152600401610d199190612d02565b60405180910390fd5b6000831115610dfd576000600260009054906101000a900473ffffffffffffffffffffffffffffffffffffffff1673ffffffffffffffffffffffffffffffffffffffff1684604051610d739061345e565b60006040518083038185875af1925050503d8060008114610db0576040519150601f19603f3d011682016040523d82523d6000602084013e610db5565b606091505b5050905080610dfb57836040517f3d1da178000000000000000000000000000000000000000000000000000000008152600401610df29190612d02565b60405180910390fd5b505b423373ffffffffffffffffffffffffffffffffffffffff163073ffffffffffffffffffffffffffffffffffffffff167f5749139e9f5fe7a54df1f192d7444e9779332fb6302cff722ec17659e98731b4858c604051610e5d929190612cd9565b60405180910390a45050505050505050610e756127b5565b565b600160009054906101000a900460ff1681565b600080600060018054906101000a900473ffffffffffffffffffffffffffffffffffffffff16600654600554925092509250909192565b610ec961276f565b600160009054906101000a900460ff1615610f10576040517f01342aee00000000000000000000000000000000000000000000000000000000815260040160405180910390fd5b6006544210610f4b576040517f01342aee00000000000000000000000000000000000000000000000000000000815260040160405180910390fd5b6003600b5410610f87576040517f01342aee00000000000000000000000000000000000000000000000000000000815260040160405180910390fd5b600034905060008103610fc6576040517f356680b700000000000000000000000000000000000000000000000000000000815260040160405180910390fd5b6000600f60003373ffffffffffffffffffffffffffffffffffffffff1673ffffffffffffffffffffffffffffffffffffffff1681526020019081526020016000205403611026576008600081548092919061102090613473565b91905055505b80600f60003373ffffffffffffffffffffffffffffffffffffffff1673ffffffffffffffffffffffffffffffffffffffff168152602001908152602001600020600082825461107591906130e0565b92505081905550806007600082825461108e91906130e0565b92505081905550600e60009054906101000a900473ffffffffffffffffffffffffffffffffffffffff1673ffffffffffffffffffffffffffffffffffffffff166340c10f1933836040518363ffffffff1660e01b81526004016110f29291906134bb565b600060405180830381600087803b15801561110c57600080fd5b505af1158015611120573d6000803e3d6000fd5b50505050423073ffffffffffffffffffffffffffffffffffffffff163373ffffffffffffffffffffffffffffffffffffffff167fbe0281dcb233d52d4d243d0d6ff4ed47e8641aecf85b98611ade1c9307186b7d846040516111829190612d02565b60405180910390a4506111936127b5565b565b600160009054906101000a900460ff16156111dc576040517f287e67e700000000000000000000000000000000000000000000000000000000815260040160405180910390fd5b60065442106112485760018060006101000a81548160ff021916908315150217905550423073ffffffffffffffffffffffffffffffffffffffff167fe8c6942b5fd4851c5d5f3928293eae5a0a0228eb48886d99b62886dfe573e7cb60405160405180910390a3611335565b60018054906101000a900473ffffffffffffffffffffffffffffffffffffffff1673ffffffffffffffffffffffffffffffffffffffff163373ffffffffffffffffffffffffffffffffffffffff16146112d6576040517f08c379a00000000000000000000000000000000000000000000000000000000081526004016112cd90613556565b60405180910390fd5b60018060006101000a81548160ff021916908315150217905550423073ffffffffffffffffffffffffffffffffffffffff167fe8c6942b5fd4851c5d5f3928293eae5a0a0228eb48886d99b62886dfe573e7cb60405160405180910390a35b565b60006113416127bf565b905060008160000160089054906101000a900460ff1615905060008260000160009054906101000a900467ffffffffffffffff1690506000808267ffffffffffffffff1614801561138f5750825b9050600060018367ffffffffffffffff161480156113c4575060003073ffffffffffffffffffffffffffffffffffffffff163b145b9050811580156113d2575080155b15611409576040517ff92ee8a900000000000000000000000000000000000000000000000000000000815260040160405180910390fd5b60018560000160006101000a81548167ffffffffffffffff021916908367ffffffffffffffff16021790555083156114595760018560000160086101000a81548160ff0219169083151502179055505b8773ffffffffffffffffffffffffffffffffffffffff163373ffffffffffffffffffffffffffffffffffffffff16146114c7576040517f08c379a00000000000000000000000000000000000000000000000000000000081526004016114be906135c2565b60405180910390fd5b600073ffffffffffffffffffffffffffffffffffffffff168873ffffffffffffffffffffffffffffffffffffffff1603611536576040517f08c379a000000000000000000000000000000000000000000000000000000000815260040161152d906133bb565b60405180910390fd5b600073ffffffffffffffffffffffffffffffffffffffff168773ffffffffffffffffffffffffffffffffffffffff16036115a5576040517f08c379a000000000000000000000000000000000000000000000000000000000815260040161159c9061362e565b60405180910390fd5b600073ffffffffffffffffffffffffffffffffffffffff168673ffffffffffffffffffffffffffffffffffffffff1603611614576040517f08c379a000000000000000000000000000000000000000000000000000000000815260040161160b9061369a565b60405180910390fd5b662386f26fc100008a101561165e576040517f08c379a000000000000000000000000000000000000000000000000000000000815260040161165590613706565b60405180910390fd5b62015180891015801561167557506301e133808911155b6116b4576040517f08c379a00000000000000000000000000000000000000000000000000000000081526004016116ab90613772565b60405180910390fd5b8e8e600491826116c592919061399f565b508c8c600391826116d792919061399f565b508a600260146101000a81548160ff021916908360088111156116fd576116fc612fd2565b5b0217905550884261170e91906130e0565b6006819055508960058190555087600260006101000a81548173ffffffffffffffffffffffffffffffffffffffff021916908373ffffffffffffffffffffffffffffffffffffffff160217905550856001806101000a81548173ffffffffffffffffffffffffffffffffffffffff021916908373ffffffffffffffffffffffffffffffffffffffff16021790555086600e60006101000a81548173ffffffffffffffffffffffffffffffffffffffff021916908373ffffffffffffffffffffffffffffffffffffffff160217905550600e600d8190555083156118415760008560000160086101000a81548160ff0219169083151502179055507fc7f505b2f371ae2175ee4913f4499e1f2633a7b5936321eed1cdaeb6115181d260016040516118389190613abe565b60405180910390a15b505050505050505050505050505050565b600080600060106000600954815260200190815260200160002090508060040154816005015492509250509091565b600047905090565b61189161276f565b6000600954036118d6576040517f08c379a00000000000000000000000000000000000000000000000000000000081526004016118cd90613b25565b60405180910390fd5b600060106000600954815260200190815260200160002090506001600381111561190357611902612fd2565b5b8160030160009054906101000a900460ff16600381111561192757611926612fd2565b5b1461196957336040517f687ac16f00000000000000000000000000000000000000000000000000000000815260040161196091906131a6565b60405180910390fd5b80600201544211156119a7576040517fceb9473500000000000000000000000000000000000000000000000000000000815260040160405180910390fd5b6000600f60003373ffffffffffffffffffffffffffffffffffffffff1673ffffffffffffffffffffffffffffffffffffffff16815260200190815260200160002054905060008103611a25576040517f93e9fd3000000000000000000000000000000000000000000000000000000000815260040160405180910390fd5b8160060160003373ffffffffffffffffffffffffffffffffffffffff1673ffffffffffffffffffffffffffffffffffffffff16815260200190815260200160002060009054906101000a900460ff1615611ab657336040517fe984dbfb000000000000000000000000000000000000000000000000000000008152600401611aad91906131a6565b60405180910390fd5b808260070160003373ffffffffffffffffffffffffffffffffffffffff1673ffffffffffffffffffffffffffffffffffffffff16815260200190815260200160002081905550828260080160003373ffffffffffffffffffffffffffffffffffffffff1673ffffffffffffffffffffffffffffffffffffffff16815260200190815260200160002060006101000a81548160ff02191690831515021790555060018260060160003373ffffffffffffffffffffffffffffffffffffffff1673ffffffffffffffffffffffffffffffffffffffff16815260200190815260200160002060006101000a81548160ff0219169083151502179055508215611bd55780826004016000828254611bc991906130e0565b92505081905550611bf1565b80826005016000828254611be991906130e0565b925050819055505b423073ffffffffffffffffffffffffffffffffffffffff163373ffffffffffffffffffffffffffffffffffffffff167f835ab76283d31bbb9aef85ac068b9fb59cfef2cf1ae599c0e2388bc23fec4382868587600001604051611c5693929190613bc9565b60405180910390a45050611c686127b5565b50565b611c7361276f565b3360018054906101000a900473ffffffffffffffffffffffffffffffffffffffff1673ffffffffffffffffffffffffffffffffffffffff168173ffffffffffffffffffffffffffffffffffffffff1614611cf9576040517f3926793000000000000000000000000000000000000000000000000000000000815260040160405180910390fd5b6000600b549050600047905060006009549050600060106000838152602001908152602001600020905060038410611d5d576040517f0df8303500000000000000000000000000000000000000000000000000000000815260040160405180910390fd5b600160009054906101000a900460ff16611da3576040517ff6154cc600000000000000000000000000000000000000000000000000000000815260040160405180910390fd5b600084148015611db35750600182145b15611ea75760018160010160006101000a81548160ff02191690831515021790555060028160030160006101000a81548160ff02191690836003811115611dfd57611dfc612fd2565b5b0217905550600a600081548092919060010191905055506001600b819055506000600384611e2b9190613266565b9050423073ffffffffffffffffffffffffffffffffffffffff167f7337b3949834de6ef4d9764b36e6d1a5bfc0ccf606eac6392094306ccd9ade2e8460030160009054906101000a900460ff1685600001604051611e8a929190613c07565b60405180910390a3611e9d8160006127e7565b505050505061222c565b8060020154421015611ee5576040517f9fc29f9d00000000000000000000000000000000000000000000000000000000815260040160405180910390fd5b60016003811115611ef957611ef8612fd2565b5b8160030160009054906101000a900460ff166003811115611f1d57611f1c612fd2565b5b14611f54576040517f8394b0f900000000000000000000000000000000000000000000000000000000815260040160405180910390fd5b60008160040154905060008260050154905060008183611f7491906130e0565b90506000808203611f885760019050611fa7565b600282611f9591906131f5565b600385611fa291906131f5565b101590505b806120685760038560030160006101000a81548160ff02191690836003811115611fd457611fd3612fd2565b5b021790555060008560010160006101000a81548160ff021916908315150217905550423073ffffffffffffffffffffffffffffffffffffffff167f7337b3949834de6ef4d9764b36e6d1a5bfc0ccf606eac6392094306ccd9ade2e8760030160009054906101000a900460ff1688600001604051612053929190613c07565b60405180910390a3505050505050505061222c565b60028560030160006101000a81548160ff021916908360038111156120905761208f612fd2565b5b021790555060018560010160006101000a81548160ff021916908315150217905550600a60008154809291906001019190505550600b60008154809291906001019190505550423073ffffffffffffffffffffffffffffffffffffffff167f7337b3949834de6ef4d9764b36e6d1a5bfc0ccf606eac6392094306ccd9ade2e8760030160009054906101000a900460ff1688600001604051612133929190613c07565b60405180910390a360008060018a0361216657600360028a61215591906131f5565b61215f9190613266565b915061220c565b6000600c5460075461217891906131c1565b90506064816121879190613266565b9150818a61219591906131c1565b925060018060006101000a81548160ff021916908315150217905550423073ffffffffffffffffffffffffffffffffffffffff167fe8c6942b5fd4851c5d5f3928293eae5a0a0228eb48886d99b62886dfe573e7cb60405160405180910390a3600082111561220a576122098260016127e7565b5b505b6000821115612221576122208260006127e7565b5b505050505050505050505b506122356127b5565b565b6000600a905090565b600f6020528060005260406000206000915090505481565b6000806000806000600754600554600854600a54600160009054906101000a900460ff16945094509450945094509091929394565b3360018054906101000a900473ffffffffffffffffffffffffffffffffffffffff1673ffffffffffffffffffffffffffffffffffffffff168173ffffffffffffffffffffffffffffffffffffffff1614612313576040517f3926793000000000000000000000000000000000000000000000000000000000815260040160405180910390fd5b61231b61276f565b600082511161235f576040517f08c379a000000000000000000000000000000000000000000000000000000000815260040161235690613c83565b60405180910390fd5b6001600381111561237357612372612fd2565b5b60106000600954815260200190815260200160002060030160009054906101000a900460ff1660038111156123ab576123aa612fd2565b5b036123e2576040517fcd2fad3a00000000000000000000000000000000000000000000000000000000815260040160405180910390fd5b6003600b541061241e576040517fe040d7f600000000000000000000000000000000000000000000000000000000815260040160405180910390fd5b6000600160095461242f91906130e0565b9050600060106000838152602001908152602001600020905060018160030160006101000a81548160ff021916908360038111156124705761246f612fd2565b5b0217905550838160000190816124869190613ca3565b5060008160010160006101000a81548160ff02191690831515021790555062015180600d546124b591906131f5565b426124c091906130e0565b8160020181905550600081600401819055506000816005018190555081600981905550836040516124f19190613db1565b6040518091039020423373ffffffffffffffffffffffffffffffffffffffff167f224ac17b3eb418fb512ed55f6ddb93018074c71f4ad405edb692c5c343b3680184600201546040516125449190612d02565b60405180910390a450506125566127b5565b5050565b601060205280600052604060002060009150905080600001805461257d906137cc565b80601f01602080910402602001604051908101604052809291908181526020018280546125a9906137cc565b80156125f65780601f106125cb576101008083540402835291602001916125f6565b820191906000526020600020905b8154815290600101906020018083116125d957829003601f168201915b5050505050908060010160009054906101000a900460ff16908060020154908060030160009054906101000a900460ff16908060040154908060050154905086565b3360018054906101000a900473ffffffffffffffffffffffffffffffffffffffff1673ffffffffffffffffffffffffffffffffffffffff168173ffffffffffffffffffffffffffffffffffffffff16146126be576040517f3926793000000000000000000000000000000000000000000000000000000000815260040160405180910390fd5b6000821180156126cf5750605a8211155b61270e576040517f08c379a000000000000000000000000000000000000000000000000000000000815260040161270590613e14565b60405180910390fd5b600160009054906101000a900460ff161561275e576040517f08c379a000000000000000000000000000000000000000000000000000000000815260040161275590613ea6565b60405180910390fd5b81600d819055505050565b600d5481565b6002600054036127ab576040517f3ee5aeb500000000000000000000000000000000000000000000000000000000815260040160405180910390fd5b6002600081905550565b6001600081905550565b60007ff0c57e16840df040f15088dc2f81fe391c3923bec73e23a9662efc9c229c6a00905090565b6000816127f45733612818565b600260009054906101000a900473ffffffffffffffffffffffffffffffffffffffff165b905060008173ffffffffffffffffffffffffffffffffffffffff16846040516128409061345e565b60006040518083038185875af1925050503d806000811461287d576040519150601f19603f3d011682016040523d82523d6000602084013e612882565b606091505b50509050806128c857836040517f3d1da1780000000000000000000000000000000000000000000000000000000081526004016128bf9190612d02565b60405180910390fd5b3373ffffffffffffffffffffffffffffffffffffffff168273ffffffffffffffffffffffffffffffffffffffff160361294b57423373ffffffffffffffffffffffffffffffffffffffff167fe2038dd9686222ca5485ed1dfbeda896cbdd6e46857078dcf50058776988bdd5866040516129429190612d02565b60405180910390a35b50505050565b6000604051905090565b600080fd5b600080fd5b6000819050919050565b61297881612965565b811461298357600080fd5b50565b6000813590506129958161296f565b92915050565b6000602082840312156129b1576129b061295b565b5b60006129bf84828501612986565b91505092915050565b600073ffffffffffffffffffffffffffffffffffffffff82169050919050565b6000819050919050565b6000612a0d612a08612a03846129c8565b6129e8565b6129c8565b9050919050565b6000612a1f826129f2565b9050919050565b6000612a3182612a14565b9050919050565b612a4181612a26565b82525050565b6000602082019050612a5c6000830184612a38565b92915050565b6000612a6d826129c8565b9050919050565b612a7d81612a62565b8114612a8857600080fd5b50565b600081359050612a9a81612a74565b92915050565b600060208284031215612ab657612ab561295b565b5b6000612ac484828501612a8b565b91505092915050565b60008115159050919050565b612ae281612acd565b82525050565b6000602082019050612afd6000830184612ad9565b92915050565b612b0c81612a62565b82525050565b612b1b81612965565b82525050565b6000606082019050612b366000830186612b03565b612b436020830185612b12565b612b506040830184612b12565b949350505050565b600080fd5b600080fd5b600080fd5b60008083601f840112612b7d57612b7c612b58565b5b8235905067ffffffffffffffff811115612b9a57612b99612b5d565b5b602083019150836001820283011115612bb657612bb5612b62565b5b9250929050565b60098110612bca57600080fd5b50565b600081359050612bdc81612bbd565b92915050565b6000806000806000806000806000806101008b8d031215612c0657612c0561295b565b5b60008b013567ffffffffffffffff811115612c2457612c23612960565b5b612c308d828e01612b67565b9a509a505060208b013567ffffffffffffffff811115612c5357612c52612960565b5b612c5f8d828e01612b67565b98509850506040612c728d828e01612bcd565b9650506060612c838d828e01612986565b9550506080612c948d828e01612986565b94505060a0612ca58d828e01612a8b565b93505060c0612cb68d828e01612a8b565b92505060e0612cc78d828e01612a8b565b9150509295989b9194979a5092959850565b6000604082019050612cee6000830185612b12565b612cfb6020830184612b12565b9392505050565b6000602082019050612d176000830184612b12565b92915050565b612d2681612acd565b8114612d3157600080fd5b50565b600081359050612d4381612d1d565b92915050565b600060208284031215612d5f57612d5e61295b565b5b6000612d6d84828501612d34565b91505092915050565b600060a082019050612d8b6000830188612b12565b612d986020830187612b12565b612da56040830186612b12565b612db26060830185612b12565b612dbf6080830184612ad9565b9695505050505050565b600080fd5b6000601f19601f8301169050919050565b7f4e487b7100000000000000000000000000000000000000000000000000000000600052604160045260246000fd5b612e1782612dce565b810181811067ffffffffffffffff82111715612e3657612e35612ddf565b5b80604052505050565b6000612e49612951565b9050612e558282612e0e565b919050565b600067ffffffffffffffff821115612e7557612e74612ddf565b5b612e7e82612dce565b9050602081019050919050565b82818337600083830152505050565b6000612ead612ea884612e5a565b612e3f565b905082815260208101848484011115612ec957612ec8612dc9565b5b612ed4848285612e8b565b509392505050565b600082601f830112612ef157612ef0612b58565b5b8135612f01848260208601612e9a565b91505092915050565b600060208284031215612f2057612f1f61295b565b5b600082013567ffffffffffffffff811115612f3e57612f3d612960565b5b612f4a84828501612edc565b91505092915050565b600081519050919050565b600082825260208201905092915050565b60005b83811015612f8d578082015181840152602081019050612f72565b60008484015250505050565b6000612fa482612f53565b612fae8185612f5e565b9350612fbe818560208601612f6f565b612fc781612dce565b840191505092915050565b7f4e487b7100000000000000000000000000000000000000000000000000000000600052602160045260246000fd5b6004811061301257613011612fd2565b5b50565b600081905061302382613001565b919050565b600061303382613015565b9050919050565b61304381613028565b82525050565b600060c08201905081810360008301526130638189612f99565b90506130726020830188612ad9565b61307f6040830187612b12565b61308c606083018661303a565b6130996080830185612b12565b6130a660a0830184612b12565b979650505050505050565b7f4e487b7100000000000000000000000000000000000000000000000000000000600052601160045260246000fd5b60006130eb82612965565b91506130f683612965565b925082820190508082111561310e5761310d6130b1565b5b92915050565b7f43616e6e6f7420657874656e64206265796f6e64203120796561722066726f6d60008201527f206e6f7700000000000000000000000000000000000000000000000000000000602082015250565b6000613170602483612f5e565b915061317b82613114565b604082019050919050565b6000602082019050818103600083015261319f81613163565b9050919050565b60006020820190506131bb6000830184612b03565b92915050565b60006131cc82612965565b91506131d783612965565b92508282039050818111156131ef576131ee6130b1565b5b92915050565b600061320082612965565b915061320b83612965565b925082820261321981612965565b915082820484148315176132305761322f6130b1565b5b5092915050565b7f4e487b7100000000000000000000000000000000000000000000000000000000600052601260045260246000fd5b600061327182612965565b915061327c83612965565b92508261328c5761328b613237565b5b828204905092915050565b7f496e76616c6964206d696c6573746f6e65207374617465000000000000000000600082015250565b60006132cd601783612f5e565b91506132d882613297565b602082019050919050565b600060208201905081810360008301526132fc816132c0565b9050919050565b7f496e73756666696369656e7420636f6e74726163742062616c616e6365000000600082015250565b6000613339601d83612f5e565b915061334482613303565b602082019050919050565b600060208201905081810360008301526133688161332c565b9050919050565b7f496e76616c696420666163746f72792061646472657373000000000000000000600082015250565b60006133a5601783612f5e565b91506133b08261336f565b602082019050919050565b600060208201905081810360008301526133d481613398565b9050919050565b60006133e682612965565b9150600082036133f9576133f86130b1565b5b600182039050919050565b60006040820190506134196000830185612b12565b6134266020830184612b03565b9392505050565b600081905092915050565b50565b600061344860008361342d565b915061345382613438565b600082019050919050565b60006134698261343b565b9150819050919050565b600061347e82612965565b91507fffffffffffffffffffffffffffffffffffffffffffffffffffffffffffffffff82036134b0576134af6130b1565b5b600182019050919050565b60006040820190506134d06000830185612b03565b6134dd6020830184612b12565b9392505050565b7f4f6e6c79206f776e65722063616e20656e642063616d706169676e206561726c60008201527f7900000000000000000000000000000000000000000000000000000000000000602082015250565b6000613540602183612f5e565b915061354b826134e4565b604082019050919050565b6000602082019050818103600083015261356f81613533565b9050919050565b7f4f6e6c7920666163746f72792063616e20696e697469616c697a650000000000600082015250565b60006135ac601b83612f5e565b91506135b782613576565b602082019050919050565b600060208201905081810360008301526135db8161359f565b9050919050565b7f496e76616c696420746f6b656e20616464726573730000000000000000000000600082015250565b6000613618601583612f5e565b9150613623826135e2565b602082019050919050565b600060208201905081810360008301526136478161360b565b9050919050565b7f496e76616c6964206f776e657220616464726573730000000000000000000000600082015250565b6000613684601583612f5e565b915061368f8261364e565b602082019050919050565b600060208201905081810360008301526136b381613677565b9050919050565b7f4d696e696d756d20676f616c20697320302e3031204554480000000000000000600082015250565b60006136f0601883612f5e565b91506136fb826136ba565b602082019050919050565b6000602082019050818103600083015261371f816136e3565b9050919050565b7f4475726174696f6e206d75737420626520312d33363520646179730000000000600082015250565b600061375c601b83612f5e565b915061376782613726565b602082019050919050565b6000602082019050818103600083015261378b8161374f565b9050919050565b600082905092915050565b7f4e487b7100000000000000000000000000000000000000000000000000000000600052602260045260246000fd5b600060028204905060018216806137e457607f821691505b6020821081036137f7576137f661379d565b5b50919050565b60008190508160005260206000209050919050565b60006020601f8301049050919050565b600082821b905092915050565b60006008830261385f7fffffffffffffffffffffffffffffffffffffffffffffffffffffffffffffffff82613822565b6138698683613822565b95508019841693508086168417925050509392505050565b600061389c61389761389284612965565b6129e8565b612965565b9050919050565b6000819050919050565b6138b683613881565b6138ca6138c2826138a3565b84845461382f565b825550505050565b600090565b6138df6138d2565b6138ea8184846138ad565b505050565b5b8181101561390e576139036000826138d7565b6001810190506138f0565b5050565b601f82111561395357613924816137fd565b61392d84613812565b8101602085101561393c578190505b61395061394885613812565b8301826138ef565b50505b505050565b600082821c905092915050565b600061397660001984600802613958565b1980831691505092915050565b600061398f8383613965565b9150826002028217905092915050565b6139a98383613792565b67ffffffffffffffff8111156139c2576139c1612ddf565b5b6139cc82546137cc565b6139d7828285613912565b6000601f831160018114613a0657600084156139f4578287013590505b6139fe8582613983565b865550613a66565b601f198416613a14866137fd565b60005b82811015613a3c57848901358255600182019150602085019450602081019050613a17565b86831015613a595784890135613a55601f891682613965565b8355505b6001600288020188555050505b50505050505050565b6000819050919050565b600067ffffffffffffffff82169050919050565b6000613aa8613aa3613a9e84613a6f565b6129e8565b613a79565b9050919050565b613ab881613a8d565b82525050565b6000602082019050613ad36000830184613aaf565b92915050565b7f4e6f206d696c6573746f6e652065786973747300000000000000000000000000600082015250565b6000613b0f601383612f5e565b9150613b1a82613ad9565b602082019050919050565b60006020820190508181036000830152613b3e81613b02565b9050919050565b60008154613b52816137cc565b613b5c8186612f5e565b94506001821660008114613b775760018114613b8d57613bc0565b60ff198316865281151560200286019350613bc0565b613b96856137fd565b60005b83811015613bb857815481890152600182019150602081019050613b99565b808801955050505b50505092915050565b6000606082019050613bde6000830186612ad9565b613beb6020830185612b12565b8181036040830152613bfd8184613b45565b9050949350505050565b6000604082019050613c1c600083018561303a565b8181036020830152613c2e8184613b45565b90509392505050565b7f456d707479206d696c6573746f6e652043494400000000000000000000000000600082015250565b6000613c6d601383612f5e565b9150613c7882613c37565b602082019050919050565b60006020820190508181036000830152613c9c81613c60565b9050919050565b613cac82612f53565b67ffffffffffffffff811115613cc557613cc4612ddf565b5b613ccf82546137cc565b613cda828285613912565b600060209050601f831160018114613d0d5760008415613cfb578287015190505b613d058582613983565b865550613d6d565b601f198416613d1b866137fd565b60005b82811015613d4357848901518255600182019150602085019450602081019050613d1e565b86831015613d605784890151613d5c601f891682613965565b8355505b6001600288020188555050505b505050505050565b600081905092915050565b6000613d8b82612f53565b613d958185613d75565b9350613da5818560208601612f6f565b80840191505092915050565b6000613dbd8284613d80565b915081905092915050565b7f566f74696e6720706572696f64206d75737420626520312d3930206461797300600082015250565b6000613dfe601f83612f5e565b9150613e0982613dc8565b602082019050919050565b60006020820190508181036000830152613e2d81613df1565b9050919050565b7f43616e6e6f74206368616e67652061667465722063616d706169676e20656e6460008201527f7300000000000000000000000000000000000000000000000000000000000000602082015250565b6000613e90602183612f5e565b9150613e9b82613e34565b604082019050919050565b60006020820190508181036000830152613ebf81613e83565b905091905056fea264697066735822122003dcb12aa5d75be1d559891f9b8abc371f28cce982f6fa351c1349ae5167d7d964736f6c63430008180033",
  "linkReferences": {},
  "deployedLinkReferences": {}
}