{
  "_format": "hh-sol-artifact-1",
  "contractName": "CrowdFundingFactory",
  "sourceName": "contracts/CrowdFundingFactory.sol",
  "abi": [
    {
      "inputs": [
        {
          "internalType": "address",
          "name": "_implementation",
          "type": "address"
        },
        {
          "internalType": "address",
          "name": "_donationTokenAddress",
          "type": "address"
        }
      ],
      "stateMutability": "nonpayable",
      "type": "constructor"
    },
    {
      "inputs": [],
      "name": "CreateFundingContractFailed",
      "type": "error"
    },
    {
      "inputs": [],
      "name": "ERC1167FailedCreateClone",
      "type": "error"
    },
    {
      "inputs": [],
      "name": "FundingForNewContractTooSmall",
      "type": "error"
    },
    {
      "inputs": [],
      "name": "InvalidCategory",
      "type": "error"
    },
    {
      "inputs": [],
      "name": "InvalidFee",
      "type": "error"
    },
    {
      "inputs": [],
      "name": "NoFundsToWithdraw",
      "type": "error"
    },
    {
      "inputs": [
        {
          "internalType": "address",
          "name": "owner",
          "type": "address"
        }
      ],
      "name": "OwnableInvalidOwner",
      "type": "error"
    },
    {
      "inputs": [
        {
          "internalType": "address",
          "name": "account",
          "type": "address"
        }
      ],
      "name": "OwnableUnauthorizedAccount",
      "type": "error"
    },
    {
      "inputs": [],
      "name": "WithdrawalFailed",
      "type": "error"
    },
    {
      "anonymous": false,
      "inputs": [
        {
          "indexed": false,
          "internalType": "uint256",
          "name": "oldFee",
          "type": "uint256"
        },
        {
          "indexed": false,
          "internalType": "uint256",
          "name": "newFee",
          "type": "uint256"
        }
      ],
      "name": "FundingFeeUpdated",
      "type": "event"
    },
    {
      "anonymous": false,
      "inputs": [
        {
          "indexed": true,
          "internalType": "address",
          "name": "owner",
          "type": "address"
        },
        {
          "indexed": false,
          "internalType": "uint256",
          "name": "amount",
          "type": "uint256"
        }
      ],
      "name": "FundsWithdrawn",
      "type": "event"
    },
    {
      "anonymous": false,
      "inputs": [
        {
          "indexed": true,
          "internalType": "address",
          "name": "owner",
          "type": "address"
        },
        {
          "indexed": true,
          "internalType": "address",
          "name": "contractAddress",
          "type": "address"
        },
        {
          "indexed": false,
          "internalType": "string",
          "name": "contractDetailsId",
          "type": "string"
        },
        {
          "indexed": true,
          "internalType": "string",
          "name": "title",
          "type": "string"
        },
        {
          "indexed": false,
          "internalType": "uint8",
          "name": "category",
          "type": "uint8"
        },
        {
          "indexed": false,
          "internalType": "uint256",
          "name": "duration",
          "type": "uint256"
        },
        {
          "indexed": false,
          "internalType": "uint256",
          "name": "goal",
          "type": "uint256"
        }
      ],
      "name": "NewCrowdFundingContractCreated",
      "type": "event"
    },
    {
      "anonymous": false,
      "inputs": [
        {
          "indexed": true,
          "internalType": "address",
          "name": "previousOwner",
          "type": "address"
        },
        {
          "indexed": true,
          "internalType": "address",
          "name": "newOwner",
          "type": "address"
        }
      ],
      "name": "OwnershipTransferred",
      "type": "event"
    },
    {
      "inputs": [
        {
          "internalType": "string",
          "name": "_contractDetailsId",
          "type": "string"
        },
        {
          "internalType": "enum CrowdFundingFactory.Category",
          "name": "_category",
          "type": "uint8"
        },
        {
          "internalType": "string",
          "name": "_title",
          "type": "string"
        },
        {
          "internalType": "uint256",
          "name": "_goal",
          "type": "uint256"
        },
        {
          "internalType": "uint256",
          "name": "_duration",
          "type": "uint256"
        }
      ],
      "name": "createNewCrowdFundingContract",
      "outputs": [
        {
          "internalType": "address",
          "name": "",
          "type": "address"
        }
      ],
      "stateMutability": "payable",
      "type": "function"
    },
    {
      "inputs": [],
      "name": "donationToken",
      "outputs": [
        {
          "internalType": "contract CrowdFundingToken",
          "name": "",
          "type": "address"
        }
      ],
      "stateMutability": "view",
      "type": "function"
    },
    {
      "inputs": [],
      "name": "getBalance",
      "outputs": [
        {
          "internalType": "uint256",
          "name": "",
          "type": "uint256"
        }
      ],
      "stateMutability": "view",
      "type": "function"
    },
    {
      "inputs": [
        {
          "internalType": "address",
          "name": "owner",
          "type": "address"
        }
      ],
      "name": "getCampaignsByOwner",
      "outputs": [
        {
          "internalType": "address[]",
          "name": "",
          "type": "address[]"
        }
      ],
      "stateMutability": "view",
      "type": "function"
    },
    {
      "inputs": [],
      "name": "getDeployedCrowdFundingContracts",
      "outputs": [
        {
          "internalType": "address[]",
          "name": "",
          "type": "address[]"
        }
      ],
      "stateMutability": "view",
      "type": "function"
    },
    {
      "inputs": [],
      "name": "getFundingFee",
      "outputs": [
        {
          "internalType": "uint256",
          "name": "",
          "type": "uint256"
        }
      ],
      "stateMutability": "view",
      "type": "function"
    },
    {
      "inputs": [],
      "name": "owner",
      "outputs": [
        {
          "internalType": "address",
          "name": "",
          "type": "address"
        }
      ],
      "stateMutability": "view",
      "type": "function"
    },
    {
      "inputs": [
        {
          "internalType": "address",
          "name": "",
          "type": "address"
        },
        {
          "internalType": "uint256",
          "name": "",
          "type": "uint256"
        }
      ],
      "name": "ownerToCampaigns",
      "outputs": [
        {
          "internalType": "address",
          "name": "",
          "type": "address"
        }
      ],
      "stateMutability": "view",
      "type": "function"
    },
    {
      "inputs": [],
      "name": "renounceOwnership",
      "outputs": [],
      "stateMutability": "nonpayable",
      "type": "function"
    },
    {
      "inputs": [
        {
          "internalType": "uint256",
          "name": "_newFee",
          "type": "uint256"
        }
      ],
      "name": "setFundingFee",
      "outputs": [],
      "stateMutability": "nonpayable",
      "type": "function"
    },
    {
      "inputs": [
        {
          "internalType": "address",
          "name": "newOwner",
          "type": "address"
        }
      ],
      "name": "transferOwnership",
      "outputs": [],
      "stateMutability": "nonpayable",
      "type": "function"
    },
    {
      "inputs": [],
      "name": "withdrawFunds",
      "outputs": [],
      "stateMutability": "nonpayable",
      "type": "function"
    },
    {
      "stateMutability": "payable",
      "type": "receive"
    }
  ],
  "bytecode": "0x60a0604052633b9aca006003553480156200001957600080fd5b5060405162001c6838038062001c6883398181016040528101906200003f9190620002e4565b33600073ffffffffffffffffffffffffffffffffffffffff168173ffffffffffffffffffffffffffffffffffffffff1603620000b55760006040517f1e4fbdf7000000000000000000000000000000000000000000000000000000008152600401620000ac91906200033c565b60405180910390fd5b620000c681620001b660201b60201c565b50600073ffffffffffffffffffffffffffffffffffffffff168273ffffffffffffffffffffffffffffffffffffffff160362000139576040517f08c379a00000000000000000000000000000000000000000000000000000000081526004016200013090620003ba565b60405180910390fd5b8173ffffffffffffffffffffffffffffffffffffffff1660808173ffffffffffffffffffffffffffffffffffffffff168152505080600460006101000a81548173ffffffffffffffffffffffffffffffffffffffff021916908373ffffffffffffffffffffffffffffffffffffffff1602179055505050620003dc565b60008060009054906101000a900473ffffffffffffffffffffffffffffffffffffffff169050816000806101000a81548173ffffffffffffffffffffffffffffffffffffffff021916908373ffffffffffffffffffffffffffffffffffffffff1602179055508173ffffffffffffffffffffffffffffffffffffffff168173ffffffffffffffffffffffffffffffffffffffff167f8be0079c531659141344cd1fd0a4f28419497f9722a3daafe3b4186f6b6457e060405160405180910390a35050565b600080fd5b600073ffffffffffffffffffffffffffffffffffffffff82169050919050565b6000620002ac826200027f565b9050919050565b620002be816200029f565b8114620002ca57600080fd5b50565b600081519050620002de81620002b3565b92915050565b60008060408385031215620002fe57620002fd6200027a565b5b60006200030e85828601620002cd565b92505060206200032185828601620002cd565b9150509250929050565b62000336816200029f565b82525050565b60006020820190506200035360008301846200032b565b92915050565b600082825260208201905092915050565b7f496e76616c696420696d706c656d656e746174696f6e20616464726573730000600082015250565b6000620003a2601e8362000359565b9150620003af826200036a565b602082019050919050565b60006020820190508181036000830152620003d58162000393565b9050919050565b608051611870620003f8600039600061081d01526118706000f3fe6080604052600436106100ab5760003560e01c80638da5cb5b116100645780638da5cb5b146101a3578063ae306319146101ce578063b4be88f3146101f7578063cb5e02f514610222578063f2fde38b14610252578063f9ed8ead1461027b576100b2565b80630df72159146100b757806312065fe0146100e257806324600fc31461010d5780633a88cc851461012457806351bdebb91461014f578063715018a61461018c576100b2565b366100b257005b600080fd5b3480156100c357600080fd5b506100cc6102b8565b6040516100d99190610f44565b60405180910390f35b3480156100ee57600080fd5b506100f76102de565b6040516101049190610f78565b60405180910390f35b34801561011957600080fd5b506101226102e6565b005b34801561013057600080fd5b50610139610430565b6040516101469190610f78565b60405180910390f35b34801561015b57600080fd5b5061017660048036038101906101719190610fe5565b61043a565b60405161018391906110d0565b60405180910390f35b34801561019857600080fd5b506101a1610507565b005b3480156101af57600080fd5b506101b861051b565b6040516101c59190611101565b60405180910390f35b3480156101da57600080fd5b506101f560048036038101906101f09190611148565b610544565b005b34801561020357600080fd5b5061020c6105d9565b60405161021991906110d0565b60405180910390f35b61023c600480360381019061023791906112e0565b610667565b6040516102499190611101565b60405180910390f35b34801561025e57600080fd5b5061027960048036038101906102749190610fe5565b610bed565b005b34801561028757600080fd5b506102a2600480360381019061029d9190611393565b610c73565b6040516102af9190611101565b60405180910390f35b600460009054906101000a900473ffffffffffffffffffffffffffffffffffffffff1681565b600047905090565b6102ee610cc1565b60004790506000810361032d576040517f67e3990d00000000000000000000000000000000000000000000000000000000815260040160405180910390fd5b600061033761051b565b73ffffffffffffffffffffffffffffffffffffffff168260405161035a90611404565b60006040518083038185875af1925050503d8060008114610397576040519150601f19603f3d011682016040523d82523d6000602084013e61039c565b606091505b50509050806103d7576040517f27fcd9d100000000000000000000000000000000000000000000000000000000815260040160405180910390fd5b6103df61051b565b73ffffffffffffffffffffffffffffffffffffffff167feaff4b37086828766ad3268786972c0cd24259d4c87a80f9d3963a3c3d999b0d836040516104249190610f78565b60405180910390a25050565b6000600354905090565b6060600560008373ffffffffffffffffffffffffffffffffffffffff1673ffffffffffffffffffffffffffffffffffffffff1681526020019081526020016000208054806020026020016040519081016040528092919081815260200182805480156104fb57602002820191906000526020600020905b8160009054906101000a900473ffffffffffffffffffffffffffffffffffffffff1673ffffffffffffffffffffffffffffffffffffffff16815260200190600101908083116104b1575b50505050509050919050565b61050f610cc1565b6105196000610d48565b565b60008060009054906101000a900473ffffffffffffffffffffffffffffffffffffffff16905090565b61054c610cc1565b670de0b6b3a764000081111561058e576040517f58d620b300000000000000000000000000000000000000000000000000000000815260040160405180910390fd5b60006003549050816003819055507fb2743902575ffdab882dfa43a3501f82fbbefa0d2c637e393aed1e80e2cb840b81836040516105cd929190611419565b60405180910390a15050565b6060600180548060200260200160405190810160405280929190818152602001828054801561065d57602002820191906000526020600020905b8160009054906101000a900473ffffffffffffffffffffffffffffffffffffffff1673ffffffffffffffffffffffffffffffffffffffff1681526020019060010190808311610613575b5050505050905090565b6000808651116106ac576040517f08c379a00000000000000000000000000000000000000000000000000000000081526004016106a39061149f565b60405180910390fd5b60008451116106f0576040517f08c379a00000000000000000000000000000000000000000000000000000000081526004016106e79061150b565b60405180910390fd5b60008311610733576040517f08c379a000000000000000000000000000000000000000000000000000000000815260040161072a90611577565b60405180910390fd5b60008211610776576040517f08c379a000000000000000000000000000000000000000000000000000000000815260040161076d906115e3565b60405180910390fd5b60088081111561078957610788611603565b5b60ff1685600881111561079f5761079e611603565b5b60ff1611156107da576040517fd67592f600000000000000000000000000000000000000000000000000000000815260040160405180910390fd5b600354341015610816576040517fcd0db44200000000000000000000000000000000000000000000000000000000815260040160405180910390fd5b60006108417f0000000000000000000000000000000000000000000000000000000000000000610e0c565b90506000878688600881111561085a57610859611603565b5b878730600460009054906101000a900473ffffffffffffffffffffffffffffffffffffffff16336040516024016108989897969594939291906116bc565b6040516020818303038152906040527f7d6492f6000000000000000000000000000000000000000000000000000000007bffffffffffffffffffffffffffffffffffffffffffffffffffffffff19166020820180517bffffffffffffffffffffffffffffffffffffffffffffffffffffffff8381831617835250505050905060008273ffffffffffffffffffffffffffffffffffffffff168260405161093e9190611784565b6000604051808303816000865af19150503d806000811461097b576040519150601f19603f3d011682016040523d82523d6000602084013e610980565b606091505b50509050806109bb576040517fcba601e300000000000000000000000000000000000000000000000000000000815260040160405180910390fd5b6001839080600181540180825580915050600190039060005260206000200160009091909190916101000a81548173ffffffffffffffffffffffffffffffffffffffff021916908373ffffffffffffffffffffffffffffffffffffffff160217905550600560003373ffffffffffffffffffffffffffffffffffffffff1673ffffffffffffffffffffffffffffffffffffffff168152602001908152602001600020839080600181540180825580915050600190039060005260206000200160009091909190916101000a81548173ffffffffffffffffffffffffffffffffffffffff021916908373ffffffffffffffffffffffffffffffffffffffff160217905550600460009054906101000a900473ffffffffffffffffffffffffffffffffffffffff1673ffffffffffffffffffffffffffffffffffffffff16639851967c846040518263ffffffff1660e01b8152600401610b199190611101565b600060405180830381600087803b158015610b3357600080fd5b505af1158015610b47573d6000803e3d6000fd5b5050505086604051610b5991906117d7565b60405180910390208373ffffffffffffffffffffffffffffffffffffffff163373ffffffffffffffffffffffffffffffffffffffff167fff1332e9603156064c04f8155bf5371aaa2e993afb3ca17a7c2f2ef582a6c0738c8c6008811115610bc457610bc3611603565b5b8a8c604051610bd694939291906117ee565b60405180910390a482935050505095945050505050565b610bf5610cc1565b600073ffffffffffffffffffffffffffffffffffffffff168173ffffffffffffffffffffffffffffffffffffffff1603610c675760006040517f1e4fbdf7000000000000000000000000000000000000000000000000000000008152600401610c5e9190611101565b60405180910390fd5b610c7081610d48565b50565b60056020528160005260406000208181548110610c8f57600080fd5b906000526020600020016000915091509054906101000a900473ffffffffffffffffffffffffffffffffffffffff1681565b610cc9610ebd565b73ffffffffffffffffffffffffffffffffffffffff16610ce761051b565b73ffffffffffffffffffffffffffffffffffffffff1614610d4657610d0a610ebd565b6040517f118cdaa7000000000000000000000000000000000000000000000000000000008152600401610d3d9190611101565b60405180910390fd5b565b60008060009054906101000a900473ffffffffffffffffffffffffffffffffffffffff169050816000806101000a81548173ffffffffffffffffffffffffffffffffffffffff021916908373ffffffffffffffffffffffffffffffffffffffff1602179055508173ffffffffffffffffffffffffffffffffffffffff168173ffffffffffffffffffffffffffffffffffffffff167f8be0079c531659141344cd1fd0a4f28419497f9722a3daafe3b4186f6b6457e060405160405180910390a35050565b6000763d602d80600a3d3981f3363d3d373d3d3d363d730000008260601b60e81c176000526e5af43d82803e903d91602b57fd5bf38260781b17602052603760096000f09050600073ffffffffffffffffffffffffffffffffffffffff168173ffffffffffffffffffffffffffffffffffffffff1603610eb8576040517fc2f868f400000000000000000000000000000000000000000000000000000000815260040160405180910390fd5b919050565b600033905090565b600073ffffffffffffffffffffffffffffffffffffffff82169050919050565b6000819050919050565b6000610f0a610f05610f0084610ec5565b610ee5565b610ec5565b9050919050565b6000610f1c82610eef565b9050919050565b6000610f2e82610f11565b9050919050565b610f3e81610f23565b82525050565b6000602082019050610f596000830184610f35565b92915050565b6000819050919050565b610f7281610f5f565b82525050565b6000602082019050610f8d6000830184610f69565b92915050565b6000604051905090565b600080fd5b600080fd5b6000610fb282610ec5565b9050919050565b610fc281610fa7565b8114610fcd57600080fd5b50565b600081359050610fdf81610fb9565b92915050565b600060208284031215610ffb57610ffa610f9d565b5b600061100984828501610fd0565b91505092915050565b600081519050919050565b600082825260208201905092915050565b6000819050602082019050919050565b61104781610fa7565b82525050565b6000611059838361103e565b60208301905092915050565b6000602082019050919050565b600061107d82611012565b611087818561101d565b93506110928361102e565b8060005b838110156110c35781516110aa888261104d565b97506110b583611065565b925050600181019050611096565b5085935050505092915050565b600060208201905081810360008301526110ea8184611072565b905092915050565b6110fb81610fa7565b82525050565b600060208201905061111660008301846110f2565b92915050565b61112581610f5f565b811461113057600080fd5b50565b6000813590506111428161111c565b92915050565b60006020828403121561115e5761115d610f9d565b5b600061116c84828501611133565b91505092915050565b600080fd5b600080fd5b6000601f19601f8301169050919050565b7f4e487b7100000000000000000000000000000000000000000000000000000000600052604160045260246000fd5b6111c88261117f565b810181811067ffffffffffffffff821117156111e7576111e6611190565b5b80604052505050565b60006111fa610f93565b905061120682826111bf565b919050565b600067ffffffffffffffff82111561122657611225611190565b5b61122f8261117f565b9050602081019050919050565b82818337600083830152505050565b600061125e6112598461120b565b6111f0565b90508281526020810184848401111561127a5761127961117a565b5b61128584828561123c565b509392505050565b600082601f8301126112a2576112a1611175565b5b81356112b284826020860161124b565b91505092915050565b600981106112c857600080fd5b50565b6000813590506112da816112bb565b92915050565b600080600080600060a086880312156112fc576112fb610f9d565b5b600086013567ffffffffffffffff81111561131a57611319610fa2565b5b6113268882890161128d565b9550506020611337888289016112cb565b945050604086013567ffffffffffffffff81111561135857611357610fa2565b5b6113648882890161128d565b935050606061137588828901611133565b925050608061138688828901611133565b9150509295509295909350565b600080604083850312156113aa576113a9610f9d565b5b60006113b885828601610fd0565b92505060206113c985828601611133565b9150509250929050565b600081905092915050565b50565b60006113ee6000836113d3565b91506113f9826113de565b600082019050919050565b600061140f826113e1565b9150819050919050565b600060408201905061142e6000830185610f69565b61143b6020830184610f69565b9392505050565b600082825260208201905092915050565b7f456d70747920636f6e74726163742064657461696c7320494400000000000000600082015250565b6000611489601983611442565b915061149482611453565b602082019050919050565b600060208201905081810360008301526114b88161147c565b9050919050565b7f456d707479207469746c65000000000000000000000000000000000000000000600082015250565b60006114f5600b83611442565b9150611500826114bf565b602082019050919050565b60006020820190508181036000830152611524816114e8565b9050919050565b7f476f616c206d7573742062652067726561746572207468616e20300000000000600082015250565b6000611561601b83611442565b915061156c8261152b565b602082019050919050565b6000602082019050818103600083015261159081611554565b9050919050565b7f4475726174696f6e206d7573742062652067726561746572207468616e203000600082015250565b60006115cd601f83611442565b91506115d882611597565b602082019050919050565b600060208201905081810360008301526115fc816115c0565b9050919050565b7f4e487b7100000000000000000000000000000000000000000000000000000000600052602160045260246000fd5b600081519050919050565b60005b8381101561165b578082015181840152602081019050611640565b60008484015250505050565b600061167282611632565b61167c8185611442565b935061168c81856020860161163d565b6116958161117f565b840191505092915050565b600060ff82169050919050565b6116b6816116a0565b82525050565b60006101008201905081810360008301526116d7818b611667565b905081810360208301526116eb818a611667565b90506116fa60408301896116ad565b6117076060830188610f69565b6117146080830187610f69565b61172160a08301866110f2565b61172e60c08301856110f2565b61173b60e08301846110f2565b9998505050505050505050565b600081519050919050565b600061175e82611748565b61176881856113d3565b935061177881856020860161163d565b80840191505092915050565b60006117908284611753565b915081905092915050565b600081905092915050565b60006117b182611632565b6117bb818561179b565b93506117cb81856020860161163d565b80840191505092915050565b60006117e382846117a6565b915081905092915050565b600060808201905081810360008301526118088187611667565b905061181760208301866116ad565b6118246040830185610f69565b6118316060830184610f69565b9594505050505056fea2646970667358221220737b99a3de2f7ef72ea3c5a07158e9de29c4b455546a082b22d935f4038a616164736f6c63430008180033",
  "linkReferences": {},
  "deployedLinkReferences": {}
}