{
  "address": "0x7f8A17c30bc4Fd9AEd732b3264ababee9a4e100E",
  "abi": [
    {
      "inputs": [],
      "name": "CamPaignEndedErrorNoLongerAcceptingDonations",
      "type": "error"
    },
    {
      "inputs": [],
      "name": "CampaignHasEnded",
      "type": "error"
    },
    {
      "inputs": [],
      "name": "CampaignStillRunning",
      "type": "error"
    },
    {
      "inputs": [
        {
          "internalType": "address",
          "name": "_address",
          "type": "address"
        }
      ],
      "name": "CanNotVoteOnMileStone",
      "type": "error"
    },
    {
      "inputs": [
        {
          "internalType": "address",
          "name": "_donorAddress",
          "type": "address"
        }
      ],
      "name": "CantWithdrawFundsCampaignEnded",
      "type": "error"
    },
    {
      "inputs": [],
      "name": "InsufficientFunds",
      "type": "error"
    },
    {
      "inputs": [],
      "name": "InvalidInitialization",
      "type": "error"
    },
    {
      "inputs": [],
      "name": "MaximumNumberofWithdrawalExceeded",
      "type": "error"
    },
    {
      "inputs": [],
      "name": "MileStoneVotingHasElapsed",
      "type": "error"
    },
    {
      "inputs": [],
      "name": "MileStoneVotingPeriodHasNotElapsed",
      "type": "error"
    },
    {
      "inputs": [],
      "name": "MilestoneHasEnded",
      "type": "error"
    },
    {
      "inputs": [],
      "name": "NewDurationSmallerThanPreviousDuration",
      "type": "error"
    },
    {
      "inputs": [],
      "name": "NotInitializing",
      "type": "error"
    },
    {
      "inputs": [],
      "name": "ReentrancyGuardReentrantCall",
      "type": "error"
    },
    {
      "inputs": [],
      "name": "TheMaximumMilestoneHaveBeenCreated",
      "type": "error"
    },
    {
      "inputs": [
        {
          "internalType": "uint256",
          "name": "amount",
          "type": "uint256"
        }
      ],
      "name": "WithdrawalFailed",
      "type": "error"
    },
    {
      "inputs": [],
      "name": "YouAreNotTheOwnerOfTheCampaign",
      "type": "error"
    },
    {
      "inputs": [],
      "name": "YouDidNotDonateToThisCampaign",
      "type": "error"
    },
    {
      "inputs": [],
      "name": "YouHaveAPendingMileStone",
      "type": "error"
    },
    {
      "inputs": [
        {
          "internalType": "address",
          "name": "_address",
          "type": "address"
        }
      ],
      "name": "YouHaveVotedForThisMilestoneAlready",
      "type": "error"
    },
    {
      "anonymous": false,
      "inputs": [
        {
          "indexed": true,
          "internalType": "address",
          "name": "project",
          "type": "address"
        },
        {
          "indexed": false,
          "internalType": "uint256",
          "name": "data",
          "type": "uint256"
        }
      ],
      "name": "CampaignEnded",
      "type": "event"
    },
    {
      "anonymous": false,
      "inputs": [
        {
          "indexed": true,
          "internalType": "address",
          "name": "project",
          "type": "address"
        },
        {
          "indexed": true,
          "internalType": "address",
          "name": "donor",
          "type": "address"
        },
        {
          "indexed": false,
          "internalType": "uint256",
          "name": "amountReceived",
          "type": "uint256"
        },
        {
          "indexed": false,
          "internalType": "uint256",
          "name": "amountDonated",
          "type": "uint256"
        },
        {
          "indexed": false,
          "internalType": "uint256",
          "name": "date",
          "type": "uint256"
        }
      ],
      "name": "DonationRetrievedByDonor",
      "type": "event"
    },
    {
      "anonymous": false,
      "inputs": [
        {
          "indexed": false,
          "internalType": "uint64",
          "name": "version",
          "type": "uint64"
        }
      ],
      "name": "Initialized",
      "type": "event"
    },
    {
      "anonymous": false,
      "inputs": [
        {
          "indexed": true,
          "internalType": "address",
          "name": "project",
          "type": "address"
        },
        {
          "indexed": false,
          "internalType": "enum CrowdFunding.MilestoneStatus",
          "name": "status",
          "type": "uint8"
        },
        {
          "indexed": false,
          "internalType": "string",
          "name": "milestoneCID",
          "type": "string"
        },
        {
          "indexed": false,
          "internalType": "uint256",
          "name": "date",
          "type": "uint256"
        }
      ],
      "name": "MileStoneStatusUpdated",
      "type": "event"
    },
    {
      "anonymous": false,
      "inputs": [
        {
          "indexed": true,
          "internalType": "address",
          "name": "owner",
          "type": "address"
        },
        {
          "indexed": false,
          "internalType": "uint256",
          "name": "datecreated",
          "type": "uint256"
        },
        {
          "indexed": false,
          "internalType": "uint256",
          "name": "period",
          "type": "uint256"
        },
        {
          "indexed": false,
          "internalType": "string",
          "name": "milestoneCID",
          "type": "string"
        }
      ],
      "name": "MilestoneCreated",
      "type": "event"
    },
    {
      "anonymous": false,
      "inputs": [
        {
          "indexed": true,
          "internalType": "address",
          "name": "owner",
          "type": "address"
        },
        {
          "indexed": false,
          "internalType": "uint256",
          "name": "amount",
          "type": "uint256"
        },
        {
          "indexed": false,
          "internalType": "uint256",
          "name": "date",
          "type": "uint256"
        }
      ],
      "name": "MilestoneWithdrawal",
      "type": "event"
    },
    {
      "anonymous": false,
      "inputs": [
        {
          "indexed": true,
          "internalType": "address",
          "name": "donor",
          "type": "address"
        },
        {
          "indexed": false,
          "internalType": "uint256",
          "name": "amount",
          "type": "uint256"
        },
        {
          "indexed": true,
          "internalType": "address",
          "name": "project",
          "type": "address"
        },
        {
          "indexed": false,
          "internalType": "uint256",
          "name": "date",
          "type": "uint256"
        }
      ],
      "name": "UserDonatedToProject",
      "type": "event"
    },
    {
      "anonymous": false,
      "inputs": [
        {
          "indexed": true,
          "internalType": "address",
          "name": "voter",
          "type": "address"
        },
        {
          "indexed": true,
          "internalType": "address",
          "name": "project",
          "type": "address"
        },
        {
          "indexed": false,
          "internalType": "bool",
          "name": "vote",
          "type": "bool"
        },
        {
          "indexed": false,
          "internalType": "uint256",
          "name": "date",
          "type": "uint256"
        }
      ],
      "name": "UserVotedOnMileStone",
      "type": "event"
    },
    {
      "anonymous": false,
      "inputs": [
        {
          "indexed": true,
          "internalType": "address",
          "name": "voter",
          "type": "address"
        },
        {
          "indexed": true,
          "internalType": "address",
          "name": "project",
          "type": "address"
        },
        {
          "indexed": false,
          "internalType": "bool",
          "name": "support",
          "type": "bool"
        },
        {
          "indexed": false,
          "internalType": "uint256",
          "name": "amount",
          "type": "uint256"
        },
        {
          "indexed": false,
          "internalType": "uint256",
          "name": "timestamp",
          "type": "uint256"
        },
        {
          "indexed": false,
          "internalType": "string",
          "name": "milestoneCID",
          "type": "string"
        }
      ],
      "name": "VotedOnMilestone",
      "type": "event"
    },
    {
      "inputs": [],
      "name": "campaignEnded",
      "outputs": [
        {
          "internalType": "bool",
          "name": "",
          "type": "bool"
        }
      ],
      "stateMutability": "view",
      "type": "function"
    },
    {
      "inputs": [],
      "name": "contractBalance",
      "outputs": [
        {
          "internalType": "uint256",
          "name": "",
          "type": "uint256"
        }
      ],
      "stateMutability": "view",
      "type": "function"
    },
    {
      "inputs": [
        {
          "internalType": "string",
          "name": "milestoneCID",
          "type": "string"
        }
      ],
      "name": "createNewMilestone",
      "outputs": [],
      "stateMutability": "nonpayable",
      "type": "function"
    },
    {
      "inputs": [],
      "name": "donationToken",
      "outputs": [
        {
          "internalType": "contract CrowdFundingToken",
          "name": "",
          "type": "address"
        }
      ],
      "stateMutability": "view",
      "type": "function"
    },
    {
      "inputs": [
        {
          "internalType": "address",
          "name": "",
          "type": "address"
        }
      ],
      "name": "donors",
      "outputs": [
        {
          "internalType": "uint256",
          "name": "",
          "type": "uint256"
        }
      ],
      "stateMutability": "view",
      "type": "function"
    },
    {
      "inputs": [],
      "name": "getFundingDetails",
      "outputs": [
        {
          "internalType": "address",
          "name": "",
          "type": "address"
        },
        {
          "internalType": "uint256",
          "name": "",
          "type": "uint256"
        },
        {
          "internalType": "uint256",
          "name": "",
          "type": "uint256"
        }
      ],
      "stateMutability": "view",
      "type": "function"
    },
    {
      "inputs": [],
      "name": "giveDonationToCause",
      "outputs": [],
      "stateMutability": "payable",
      "type": "function"
    },
    {
      "inputs": [
        {
          "internalType": "address",
          "name": "_donorAddress",
          "type": "address"
        }
      ],
      "name": "hasVotedOnMilestone",
      "outputs": [
        {
          "internalType": "bool",
          "name": "",
          "type": "bool"
        }
      ],
      "stateMutability": "view",
      "type": "function"
    },
    {
      "inputs": [
        {
          "internalType": "uint256",
          "name": "newPeriod",
          "type": "uint256"
        }
      ],
      "name": "increaseCampaignPeriod",
      "outputs": [],
      "stateMutability": "nonpayable",
      "type": "function"
    },
    {
      "inputs": [
        {
          "internalType": "string",
          "name": "_contractDetailsId",
          "type": "string"
        },
        {
          "internalType": "string",
          "name": "_title",
          "type": "string"
        },
        {
          "internalType": "enum CrowdFunding.Category",
          "name": "_category",
          "type": "uint8"
        },
        {
          "internalType": "uint256",
          "name": "_amount",
          "type": "uint256"
        },
        {
          "internalType": "uint256",
          "name": "_duration",
          "type": "uint256"
        },
        {
          "internalType": "address",
          "name": "_factoryAddress",
          "type": "address"
        },
        {
          "internalType": "address",
          "name": "_donationTokenAddress",
          "type": "address"
        }
      ],
      "name": "initialize",
      "outputs": [],
      "stateMutability": "nonpayable",
      "type": "function"
    },
    {
      "inputs": [
        {
          "internalType": "uint256",
          "name": "",
          "type": "uint256"
        }
      ],
      "name": "milestones",
      "outputs": [
        {
          "internalType": "string",
          "name": "milestoneCID",
          "type": "string"
        },
        {
          "internalType": "bool",
          "name": "approved",
          "type": "bool"
        },
        {
          "internalType": "uint256",
          "name": "votingPeriod",
          "type": "uint256"
        },
        {
          "internalType": "enum CrowdFunding.MilestoneStatus",
          "name": "status",
          "type": "uint8"
        },
        {
          "internalType": "uint256",
          "name": "supportVote",
          "type": "uint256"
        },
        {
          "internalType": "uint256",
          "name": "againstVote",
          "type": "uint256"
        }
      ],
      "stateMutability": "view",
      "type": "function"
    },
    {
      "inputs": [],
      "name": "retrieveDonatedAmount",
      "outputs": [],
      "stateMutability": "nonpayable",
      "type": "function"
    },
    {
      "inputs": [],
      "name": "totalVotesOnMilestone",
      "outputs": [
        {
          "internalType": "uint256",
          "name": "",
          "type": "uint256"
        },
        {
          "internalType": "uint256",
          "name": "",
          "type": "uint256"
        }
      ],
      "stateMutability": "view",
      "type": "function"
    },
    {
      "inputs": [
        {
          "internalType": "bool",
          "name": "support",
          "type": "bool"
        }
      ],
      "name": "voteOnMilestone",
      "outputs": [],
      "stateMutability": "nonpayable",
      "type": "function"
    },
    {
      "inputs": [],
      "name": "withdrawMilestone",
      "outputs": [],
      "stateMutability": "nonpayable",
      "type": "function"
    },
    {
      "stateMutability": "payable",
      "type": "receive"
    }
  ],
  "transactionHash": "0x640ca32c9f94a51cc771dd2d915f3fb8e99e2c041b684382358e7bc44b51d8ec",
  "args": [],
  "numDeployments": 1,
  "solcInputHash": "fc4d881b10f55382ed55e41e9c4583b5",
  "bytecode": "0x608060405234801561001057600080fd5b5060016000819055506131f0806100286000396000f3fe6080604052600436106100ec5760003560e01c80636eefa2dd1161008a578063bf2928a611610059578063bf2928a6146102ab578063ca0cdea8146102c2578063e0ae1b73146102ff578063e89e4ed614610328576100f3565b80636eefa2dd14610221578063858b85b31461022b5780638b7afe2e14610257578063ba53619314610282576100f3565b8063294b23a2116100c6578063294b23a2146101895780633bc47fbe146101a057806341cf938a146101cb578063561cf2ab146101f8576100f3565b80630b228b30146100f85780630df7215914610121578063205db2371461014c576100f3565b366100f357005b600080fd5b34801561010457600080fd5b5061011f600480360381019061011a9190612098565b61036a565b005b34801561012d57600080fd5b50610136610436565b6040516101439190612144565b60405180910390f35b34801561015857600080fd5b50610173600480360381019061016e919061219d565b61045c565b60405161018091906121e5565b60405180910390f35b34801561019557600080fd5b5061019e6104df565b005b3480156101ac57600080fd5b506101b5610ad7565b6040516101c291906121e5565b60405180910390f35b3480156101d757600080fd5b506101e0610aea565b6040516101ef9392919061221e565b60405180910390f35b34801561020457600080fd5b5061021f600480360381019061021a91906122df565b610b21565b005b610229610dcd565b005b34801561023757600080fd5b506102406110a2565b60405161024e9291906123c1565b60405180910390f35b34801561026357600080fd5b5061026c6110d1565b60405161027991906123ea565b60405180910390f35b34801561028e57600080fd5b506102a960048036038101906102a49190612431565b6110d9565b005b3480156102b757600080fd5b506102c0611464565b005b3480156102ce57600080fd5b506102e960048036038101906102e4919061219d565b6119dc565b6040516102f691906123ea565b60405180910390f35b34801561030b57600080fd5b506103266004803603810190610321919061259f565b6119f4565b005b34801561033457600080fd5b5061034f600480360381019061034a9190612098565b611ca1565b604051610361969594939291906126de565b60405180910390f35b3360018054906101000a900473ffffffffffffffffffffffffffffffffffffffff1673ffffffffffffffffffffffffffffffffffffffff168173ffffffffffffffffffffffffffffffffffffffff16146103f0576040517f3926793000000000000000000000000000000000000000000000000000000000815260040160405180910390fd5b600654821161042b576040517f152a828800000000000000000000000000000000000000000000000000000000815260040160405180910390fd5b816006819055505050565b600d60009054906101000a900473ffffffffffffffffffffffffffffffffffffffff1681565b600080600f6000600954815260200190815260200160002090508060060160008473ffffffffffffffffffffffffffffffffffffffff1673ffffffffffffffffffffffffffffffffffffffff16815260200190815260200160002060009054906101000a900460ff16156104d45760019150506104da565b60009150505b919050565b6104e7611d7f565b6000600e60003373ffffffffffffffffffffffffffffffffffffffff1673ffffffffffffffffffffffffffffffffffffffff1681526020019081526020016000205490506000600a549050600047905060008303610571576040517f93e9fd3000000000000000000000000000000000000000000000000000000000815260040160405180910390fd5b600382106105b657336040517f3783cd4d0000000000000000000000000000000000000000000000000000000081526004016105ad9190612746565b60405180910390fd5b60008083036105cf57670de0b6b3a76400009050610660565b600183036105ff576003670de0b6b3a764000060026105ee9190612790565b6105f89190612801565b905061065f565b60028303610623576003670de0b6b3a764000061061c9190612801565b905061065e565b6040517f08c379a00000000000000000000000000000000000000000000000000000000081526004016106559061287e565b60405180910390fd5b5b5b6000670de0b6b3a764000082866106779190612790565b6106819190612801565b9050600060646014836106949190612790565b61069e9190612801565b9050600081836106ae919061289e565b905081816106bc91906128d2565b8510156106fe576040517f08c379a00000000000000000000000000000000000000000000000000000000081526004016106f590612952565b60405180910390fd5b600073ffffffffffffffffffffffffffffffffffffffff16600260009054906101000a900473ffffffffffffffffffffffffffffffffffffffff1673ffffffffffffffffffffffffffffffffffffffff160361078f576040517f08c379a0000000000000000000000000000000000000000000000000000000008152600401610786906129be565b60405180910390fd5b6000600e60003373ffffffffffffffffffffffffffffffffffffffff1673ffffffffffffffffffffffffffffffffffffffff16815260200190815260200160002081905550600860008154809291906107e7906129de565b919050555082600c60008282546107fe91906128d2565b925050819055506108446040518060400160405280600a81526020017f54617820616d6f756e740000000000000000000000000000000000000000000081525083611dc5565b600d60009054906101000a900473ffffffffffffffffffffffffffffffffffffffff1673ffffffffffffffffffffffffffffffffffffffff16639730b30588336040518363ffffffff1660e01b81526004016108a1929190612a07565b600060405180830381600087803b1580156108bb57600080fd5b505af11580156108cf573d6000803e3d6000fd5b5050505060003373ffffffffffffffffffffffffffffffffffffffff16826040516108f990612a61565b60006040518083038185875af1925050503d8060008114610936576040519150601f19603f3d011682016040523d82523d6000602084013e61093b565b606091505b505090508061098157816040517f3d1da17800000000000000000000000000000000000000000000000000000000815260040161097891906123ea565b60405180910390fd5b6000831115610a5c576000600260009054906101000a900473ffffffffffffffffffffffffffffffffffffffff1673ffffffffffffffffffffffffffffffffffffffff16846040516109d290612a61565b60006040518083038185875af1925050503d8060008114610a0f576040519150601f19603f3d011682016040523d82523d6000602084013e610a14565b606091505b5050905080610a5a57836040517f3d1da178000000000000000000000000000000000000000000000000000000008152600401610a5191906123ea565b60405180910390fd5b505b3373ffffffffffffffffffffffffffffffffffffffff163073ffffffffffffffffffffffffffffffffffffffff167fc365391df9733b3e962663112aeb7afcaf43165ec1762b3aa5d3d74a459c259d848b42604051610abd93929190612a76565b60405180910390a35050505050505050610ad5611e61565b565b600160009054906101000a900460ff1681565b600080600060018054906101000a900473ffffffffffffffffffffffffffffffffffffffff16600654600554925092509250909192565b6000610b2b611e6b565b905060008160000160089054906101000a900460ff1615905060008260000160009054906101000a900467ffffffffffffffff1690506000808267ffffffffffffffff16148015610b795750825b9050600060018367ffffffffffffffff16148015610bae575060003073ffffffffffffffffffffffffffffffffffffffff163b145b905081158015610bbc575080155b15610bf3576040517ff92ee8a900000000000000000000000000000000000000000000000000000000815260040160405180910390fd5b60018560000160006101000a81548167ffffffffffffffff021916908367ffffffffffffffff1602179055508315610c435760018560000160086101000a81548160ff0219169083151502179055505b8d8d60049182610c54929190612cba565b508b8b60039182610c66929190612cba565b5089600260146101000a81548160ff02191690836008811115610c8c57610c8b612667565b5b0217905550876006819055508860058190555086600260006101000a81548173ffffffffffffffffffffffffffffffffffffffff021916908373ffffffffffffffffffffffffffffffffffffffff160217905550326001806101000a81548173ffffffffffffffffffffffffffffffffffffffff021916908373ffffffffffffffffffffffffffffffffffffffff16021790555085600d60006101000a81548173ffffffffffffffffffffffffffffffffffffffff021916908373ffffffffffffffffffffffffffffffffffffffff1602179055508315610dbd5760008560000160086101000a81548160ff0219169083151502179055507fc7f505b2f371ae2175ee4913f4499e1f2633a7b5936321eed1cdaeb6115181d26001604051610db49190612dd9565b60405180910390a15b5050505050505050505050505050565b610dd5611d7f565b600160009054906101000a900460ff1615610e1c576040517f01342aee00000000000000000000000000000000000000000000000000000000815260040160405180910390fd5b6006544210610e57576040517f01342aee00000000000000000000000000000000000000000000000000000000815260040160405180910390fd5b6003600b5410610e93576040517f01342aee00000000000000000000000000000000000000000000000000000000815260040160405180910390fd5b600034905060008103610ed2576040517f356680b700000000000000000000000000000000000000000000000000000000815260040160405180910390fd5b6000600e60003373ffffffffffffffffffffffffffffffffffffffff1673ffffffffffffffffffffffffffffffffffffffff1681526020019081526020016000205403610f325760086000815480929190610f2c90612df4565b91905055505b80600e60003373ffffffffffffffffffffffffffffffffffffffff1673ffffffffffffffffffffffffffffffffffffffff1681526020019081526020016000206000828254610f8191906128d2565b925050819055508060076000828254610f9a91906128d2565b92505081905550600d60009054906101000a900473ffffffffffffffffffffffffffffffffffffffff1673ffffffffffffffffffffffffffffffffffffffff166340c10f1933836040518363ffffffff1660e01b8152600401610ffe929190612e3c565b600060405180830381600087803b15801561101857600080fd5b505af115801561102c573d6000803e3d6000fd5b505050503073ffffffffffffffffffffffffffffffffffffffff163373ffffffffffffffffffffffffffffffffffffffff167fd1c1ab18b883285500514418a94e5e9f65b62e92bfd2f9bae6845c186839d7b4834260405161108f9291906123c1565b60405180910390a3506110a0611e61565b565b6000806000600f6000600954815260200190815260200160002090508060040154816005015492509250509091565b600047905090565b6110e1611d7f565b600160009054906101000a900460ff1615611128576040517f85b1d52800000000000000000000000000000000000000000000000000000000815260040160405180910390fd5b60006009540361116d576040517f08c379a000000000000000000000000000000000000000000000000000000000815260040161116490612eb1565b60405180910390fd5b6000600f6000600954815260200190815260200160002090506001600381111561119a57611199612667565b5b8160030160009054906101000a900460ff1660038111156111be576111bd612667565b5b1461120057336040517f687ac16f0000000000000000000000000000000000000000000000000000000081526004016111f79190612746565b60405180910390fd5b806002015442111561123e576040517fceb9473500000000000000000000000000000000000000000000000000000000815260040160405180910390fd5b6000600e60003373ffffffffffffffffffffffffffffffffffffffff1673ffffffffffffffffffffffffffffffffffffffff168152602001908152602001600020549050600081036112bc576040517f93e9fd3000000000000000000000000000000000000000000000000000000000815260040160405180910390fd5b8160060160003373ffffffffffffffffffffffffffffffffffffffff1673ffffffffffffffffffffffffffffffffffffffff16815260200190815260200160002060009054906101000a900460ff161561134d57336040517fe984dbfb0000000000000000000000000000000000000000000000000000000081526004016113449190612746565b60405180910390fd5b60018260060160003373ffffffffffffffffffffffffffffffffffffffff1673ffffffffffffffffffffffffffffffffffffffff16815260200190815260200160002060006101000a81548160ff02191690831515021790555082156113cd57808260040160008282546113c191906128d2565b925050819055506113e9565b808260050160008282546113e191906128d2565b925050819055505b3073ffffffffffffffffffffffffffffffffffffffff163373ffffffffffffffffffffffffffffffffffffffff167f835ab76283d31bbb9aef85ac068b9fb59cfef2cf1ae599c0e2388bc23fec43828584428760000160405161144f9493929190612f55565b60405180910390a35050611461611e61565b50565b61146c611d7f565b3360018054906101000a900473ffffffffffffffffffffffffffffffffffffffff1673ffffffffffffffffffffffffffffffffffffffff168173ffffffffffffffffffffffffffffffffffffffff16146114f2576040517f3926793000000000000000000000000000000000000000000000000000000000815260040160405180910390fd5b6000600b5490506000479050600060095490506000600f6000838152602001908152602001600020905060038410611556576040517f0df8303500000000000000000000000000000000000000000000000000000000815260040160405180910390fd5b600654421015611592576040517ff6154cc600000000000000000000000000000000000000000000000000000000815260040160405180910390fd5b6000841480156115a25750600182145b156116315760018160010160006101000a81548160ff02191690831515021790555060028160030160006101000a81548160ff021916908360038111156115ec576115eb612667565b5b0217905550600a600081548092919060010191905055506001600b81905550600060038461161a9190612801565b9050611627816000611e93565b50505050506119d1565b806002015442101561166f576040517f9fc29f9d00000000000000000000000000000000000000000000000000000000815260040160405180910390fd5b6001600381111561168357611682612667565b5b8160030160009054906101000a900460ff1660038111156116a7576116a6612667565b5b146116de576040517f8394b0f900000000000000000000000000000000000000000000000000000000815260040160405180910390fd5b600081600401549050600082600501549050600081836116fe91906128d2565b905060008082036117125760019050611749565b606460036002846117239190612790565b61172d9190612801565b6117379190612790565b6064856117449190612790565b101590505b8061180b5760038560030160006101000a81548160ff0219169083600381111561177657611775612667565b5b021790555060008560010160006101000a81548160ff0219169083151502179055503073ffffffffffffffffffffffffffffffffffffffff167f347bdd1056464d68f105c00d8b42002855fff0045b252566b313350f53f802798660030160009054906101000a900460ff1687600001426040516117f693929190612fa1565b60405180910390a250505050505050506119d1565b60028560030160006101000a81548160ff0219169083600381111561183357611832612667565b5b021790555060018560010160006101000a81548160ff021916908315150217905550600a60008154809291906001019190505550600b600081548092919060010191905055503073ffffffffffffffffffffffffffffffffffffffff167f347bdd1056464d68f105c00d8b42002855fff0045b252566b313350f53f802798660030160009054906101000a900460ff1687600001426040516118d793929190612fa1565b60405180910390a260008060018a0361193057670de0b6b3a76400006003670de0b6b3a764000060028c61190b9190612790565b6119159190612790565b61191f9190612801565b6119299190612801565b91506119b1565b60648961193d9190612801565b9050808961194b919061289e565b9150600081111561196257611961816001611e93565b5b3073ffffffffffffffffffffffffffffffffffffffff167fe8c6942b5fd4851c5d5f3928293eae5a0a0228eb48886d99b62886dfe573e7cb426040516119a891906123ea565b60405180910390a25b60008211156119c6576119c5826000611e93565b5b505050505050505050505b506119da611e61565b565b600e6020528060005260406000206000915090505481565b3360018054906101000a900473ffffffffffffffffffffffffffffffffffffffff1673ffffffffffffffffffffffffffffffffffffffff168173ffffffffffffffffffffffffffffffffffffffff1614611a7a576040517f3926793000000000000000000000000000000000000000000000000000000000815260040160405180910390fd5b611a82611d7f565b6000825111611ac6576040517f08c379a0000000000000000000000000000000000000000000000000000000008152600401611abd9061302b565b60405180910390fd5b60016003811115611ada57611ad9612667565b5b600f6000600954815260200190815260200160002060030160009054906101000a900460ff166003811115611b1257611b11612667565b5b03611b49576040517fcd2fad3a00000000000000000000000000000000000000000000000000000000815260040160405180910390fd5b6003600b5410611b85576040517fe040d7f600000000000000000000000000000000000000000000000000000000815260040160405180910390fd5b60006001600954611b9691906128d2565b90506000600f6000838152602001908152602001600020905060018160030160006101000a81548160ff02191690836003811115611bd757611bd6612667565b5b021790555083816000019081611bed919061304b565b5060008160010160006101000a81548160ff0219169083151502179055506212750042611c1a91906128d2565b81600201819055506000816004018190555060008160050181905550816009819055503373ffffffffffffffffffffffffffffffffffffffff167f224ac17b3eb418fb512ed55f6ddb93018074c71f4ad405edb692c5c343b3680142836002015487604051611c8b9392919061311d565b60405180910390a25050611c9d611e61565b5050565b600f602052806000526040600020600091509050806000018054611cc490612ae7565b80601f0160208091040260200160405190810160405280929190818152602001828054611cf090612ae7565b8015611d3d5780601f10611d1257610100808354040283529160200191611d3d565b820191906000526020600020905b815481529060010190602001808311611d2057829003601f168201915b5050505050908060010160009054906101000a900460ff16908060020154908060030160009054906101000a900460ff16908060040154908060050154905086565b600260005403611dbb576040517f3ee5aeb500000000000000000000000000000000000000000000000000000000815260040160405180910390fd5b6002600081905550565b611e5d8282604051602401611ddb92919061315b565b6040516020818303038152906040527fb60e72cc000000000000000000000000000000000000000000000000000000007bffffffffffffffffffffffffffffffffffffffffffffffffffffffff19166020820180517bffffffffffffffffffffffffffffffffffffffffffffffffffffffff8381831617835250505050611ffe565b5050565b6001600081905550565b60007ff0c57e16840df040f15088dc2f81fe391c3923bec73e23a9662efc9c229c6a00905090565b600081611ea05733611ec4565b600260009054906101000a900473ffffffffffffffffffffffffffffffffffffffff165b905060008173ffffffffffffffffffffffffffffffffffffffff1684604051611eec90612a61565b60006040518083038185875af1925050503d8060008114611f29576040519150601f19603f3d011682016040523d82523d6000602084013e611f2e565b606091505b5050905080611f7457836040517f3d1da178000000000000000000000000000000000000000000000000000000008152600401611f6b91906123ea565b60405180910390fd5b3373ffffffffffffffffffffffffffffffffffffffff168273ffffffffffffffffffffffffffffffffffffffff1603611ff8573373ffffffffffffffffffffffffffffffffffffffff167f39315d2beee6219c433f330272de1e8249029171e201a0b7d188c5942d5ca1fe8542604051611fef9291906123c1565b60405180910390a25b50505050565b6120158161200d612018612039565b63ffffffff16565b50565b60006a636f6e736f6c652e6c6f679050600080835160208501845afa505050565b612044819050919050565b61204c61318b565b565b6000604051905090565b600080fd5b600080fd5b6000819050919050565b61207581612062565b811461208057600080fd5b50565b6000813590506120928161206c565b92915050565b6000602082840312156120ae576120ad612058565b5b60006120bc84828501612083565b91505092915050565b600073ffffffffffffffffffffffffffffffffffffffff82169050919050565b6000819050919050565b600061210a612105612100846120c5565b6120e5565b6120c5565b9050919050565b600061211c826120ef565b9050919050565b600061212e82612111565b9050919050565b61213e81612123565b82525050565b60006020820190506121596000830184612135565b92915050565b600061216a826120c5565b9050919050565b61217a8161215f565b811461218557600080fd5b50565b60008135905061219781612171565b92915050565b6000602082840312156121b3576121b2612058565b5b60006121c184828501612188565b91505092915050565b60008115159050919050565b6121df816121ca565b82525050565b60006020820190506121fa60008301846121d6565b92915050565b6122098161215f565b82525050565b61221881612062565b82525050565b60006060820190506122336000830186612200565b612240602083018561220f565b61224d604083018461220f565b949350505050565b600080fd5b600080fd5b600080fd5b60008083601f84011261227a57612279612255565b5b8235905067ffffffffffffffff8111156122975761229661225a565b5b6020830191508360018202830111156122b3576122b261225f565b5b9250929050565b600981106122c757600080fd5b50565b6000813590506122d9816122ba565b92915050565b600080600080600080600080600060e08a8c03121561230157612300612058565b5b60008a013567ffffffffffffffff81111561231f5761231e61205d565b5b61232b8c828d01612264565b995099505060208a013567ffffffffffffffff81111561234e5761234d61205d565b5b61235a8c828d01612264565b9750975050604061236d8c828d016122ca565b955050606061237e8c828d01612083565b945050608061238f8c828d01612083565b93505060a06123a08c828d01612188565b92505060c06123b18c828d01612188565b9150509295985092959850929598565b60006040820190506123d6600083018561220f565b6123e3602083018461220f565b9392505050565b60006020820190506123ff600083018461220f565b92915050565b61240e816121ca565b811461241957600080fd5b50565b60008135905061242b81612405565b92915050565b60006020828403121561244757612446612058565b5b60006124558482850161241c565b91505092915050565b600080fd5b6000601f19601f8301169050919050565b7f4e487b7100000000000000000000000000000000000000000000000000000000600052604160045260246000fd5b6124ac82612463565b810181811067ffffffffffffffff821117156124cb576124ca612474565b5b80604052505050565b60006124de61204e565b90506124ea82826124a3565b919050565b600067ffffffffffffffff82111561250a57612509612474565b5b61251382612463565b9050602081019050919050565b82818337600083830152505050565b600061254261253d846124ef565b6124d4565b90508281526020810184848401111561255e5761255d61245e565b5b612569848285612520565b509392505050565b600082601f83011261258657612585612255565b5b813561259684826020860161252f565b91505092915050565b6000602082840312156125b5576125b4612058565b5b600082013567ffffffffffffffff8111156125d3576125d261205d565b5b6125df84828501612571565b91505092915050565b600081519050919050565b600082825260208201905092915050565b60005b83811015612622578082015181840152602081019050612607565b60008484015250505050565b6000612639826125e8565b61264381856125f3565b9350612653818560208601612604565b61265c81612463565b840191505092915050565b7f4e487b7100000000000000000000000000000000000000000000000000000000600052602160045260246000fd5b600481106126a7576126a6612667565b5b50565b60008190506126b882612696565b919050565b60006126c8826126aa565b9050919050565b6126d8816126bd565b82525050565b600060c08201905081810360008301526126f8818961262e565b905061270760208301886121d6565b612714604083018761220f565b61272160608301866126cf565b61272e608083018561220f565b61273b60a083018461220f565b979650505050505050565b600060208201905061275b6000830184612200565b92915050565b7f4e487b7100000000000000000000000000000000000000000000000000000000600052601160045260246000fd5b600061279b82612062565b91506127a683612062565b92508282026127b481612062565b915082820484148315176127cb576127ca612761565b5b5092915050565b7f4e487b7100000000000000000000000000000000000000000000000000000000600052601260045260246000fd5b600061280c82612062565b915061281783612062565b925082612827576128266127d2565b5b828204905092915050565b7f496e76616c6964206d696c6573746f6e65207374617465000000000000000000600082015250565b60006128686017836125f3565b915061287382612832565b602082019050919050565b600060208201905081810360008301526128978161285b565b9050919050565b60006128a982612062565b91506128b483612062565b92508282039050818111156128cc576128cb612761565b5b92915050565b60006128dd82612062565b91506128e883612062565b9250828201905080821115612900576128ff612761565b5b92915050565b7f496e73756666696369656e7420636f6e74726163742062616c616e6365000000600082015250565b600061293c601d836125f3565b915061294782612906565b602082019050919050565b6000602082019050818103600083015261296b8161292f565b9050919050565b7f496e76616c696420666163746f72792061646472657373000000000000000000600082015250565b60006129a86017836125f3565b91506129b382612972565b602082019050919050565b600060208201905081810360008301526129d78161299b565b9050919050565b60006129e982612062565b9150600082036129fc576129fb612761565b5b600182039050919050565b6000604082019050612a1c600083018561220f565b612a296020830184612200565b9392505050565b600081905092915050565b50565b6000612a4b600083612a30565b9150612a5682612a3b565b600082019050919050565b6000612a6c82612a3e565b9150819050919050565b6000606082019050612a8b600083018661220f565b612a98602083018561220f565b612aa5604083018461220f565b949350505050565b600082905092915050565b7f4e487b7100000000000000000000000000000000000000000000000000000000600052602260045260246000fd5b60006002820490506001821680612aff57607f821691505b602082108103612b1257612b11612ab8565b5b50919050565b60008190508160005260206000209050919050565b60006020601f8301049050919050565b600082821b905092915050565b600060088302612b7a7fffffffffffffffffffffffffffffffffffffffffffffffffffffffffffffffff82612b3d565b612b848683612b3d565b95508019841693508086168417925050509392505050565b6000612bb7612bb2612bad84612062565b6120e5565b612062565b9050919050565b6000819050919050565b612bd183612b9c565b612be5612bdd82612bbe565b848454612b4a565b825550505050565b600090565b612bfa612bed565b612c05818484612bc8565b505050565b5b81811015612c2957612c1e600082612bf2565b600181019050612c0b565b5050565b601f821115612c6e57612c3f81612b18565b612c4884612b2d565b81016020851015612c57578190505b612c6b612c6385612b2d565b830182612c0a565b50505b505050565b600082821c905092915050565b6000612c9160001984600802612c73565b1980831691505092915050565b6000612caa8383612c80565b9150826002028217905092915050565b612cc48383612aad565b67ffffffffffffffff811115612cdd57612cdc612474565b5b612ce78254612ae7565b612cf2828285612c2d565b6000601f831160018114612d215760008415612d0f578287013590505b612d198582612c9e565b865550612d81565b601f198416612d2f86612b18565b60005b82811015612d5757848901358255600182019150602085019450602081019050612d32565b86831015612d745784890135612d70601f891682612c80565b8355505b6001600288020188555050505b50505050505050565b6000819050919050565b600067ffffffffffffffff82169050919050565b6000612dc3612dbe612db984612d8a565b6120e5565b612d94565b9050919050565b612dd381612da8565b82525050565b6000602082019050612dee6000830184612dca565b92915050565b6000612dff82612062565b91507fffffffffffffffffffffffffffffffffffffffffffffffffffffffffffffffff8203612e3157612e30612761565b5b600182019050919050565b6000604082019050612e516000830185612200565b612e5e602083018461220f565b9392505050565b7f4e6f206d696c6573746f6e652065786973747300000000000000000000000000600082015250565b6000612e9b6013836125f3565b9150612ea682612e65565b602082019050919050565b60006020820190508181036000830152612eca81612e8e565b9050919050565b60008154612ede81612ae7565b612ee881866125f3565b94506001821660008114612f035760018114612f1957612f4c565b60ff198316865281151560200286019350612f4c565b612f2285612b18565b60005b83811015612f4457815481890152600182019150602081019050612f25565b808801955050505b50505092915050565b6000608082019050612f6a60008301876121d6565b612f77602083018661220f565b612f84604083018561220f565b8181036060830152612f968184612ed1565b905095945050505050565b6000606082019050612fb660008301866126cf565b8181036020830152612fc88185612ed1565b9050612fd7604083018461220f565b949350505050565b7f456d707479206d696c6573746f6e652043494400000000000000000000000000600082015250565b60006130156013836125f3565b915061302082612fdf565b602082019050919050565b6000602082019050818103600083015261304481613008565b9050919050565b613054826125e8565b67ffffffffffffffff81111561306d5761306c612474565b5b6130778254612ae7565b613082828285612c2d565b600060209050601f8311600181146130b557600084156130a3578287015190505b6130ad8582612c9e565b865550613115565b601f1984166130c386612b18565b60005b828110156130eb578489015182556001820191506020850194506020810190506130c6565b868310156131085784890151613104601f891682612c80565b8355505b6001600288020188555050505b505050505050565b6000606082019050613132600083018661220f565b61313f602083018561220f565b8181036040830152613151818461262e565b9050949350505050565b60006040820190508181036000830152613175818561262e565b9050613184602083018461220f565b9392505050565b7f4e487b7100000000000000000000000000000000000000000000000000000000600052605160045260246000fdfea264697066735822122019877576ab1cefc49b85c4c9bad8f588863074d9c4e7cef57780251887ca5f3264736f6c63430008180033",
  "devdoc": {
    "details": "Main contract for crowdfunding campaigns",
    "errors": {
      "InvalidInitialization()": [
        {
          "details": "The contract is already initialized."
        }
      ],
      "NotInitializing()": [
        {
          "details": "The contract is not initializing."
        }
      ],
      "ReentrancyGuardReentrantCall()": [
        {
          "details": "Unauthorized reentrant call."
        }
      ]
    },
    "events": {
      "Initialized(uint64)": {
        "details": "Triggered when the contract has been initialized or reinitialized."
      }
    },
    "kind": "dev",
    "methods": {
      "giveDonationToCause()": {
        "custom:security": "non-reentrant",
        "details": "Emits UserDonatedToProject event on successful donation"
      },
      "retrieveDonatedAmount()": {
        "details": "Implements checks-effects-interactions pattern and includes withdrawal penalties based on milestone progress"
      },
      "voteOnMilestone(bool)": {
        "details": "Votes are weighted by donation amount",
        "params": {
          "support": "True for supporting the milestone, false for opposing"
        }
      }
    },
    "title": "CrowdFunding",
    "version": 1
  },
  "userdoc": {
    "kind": "user",
    "methods": {
      "giveDonationToCause()": {
        "notice": "Allows users to donate funds to the campaign"
      },
      "retrieveDonatedAmount()": {
        "notice": "Allows donors to withdraw their donations with a withdrawal fee"
      },
      "voteOnMilestone(bool)": {
        "notice": "Allows donors to vote on pending milestones"
      }
    },
    "version": 1
  },
  "storageLayout": {
    "storage": [
      {
        "astId": 1329,
        "contract": "contracts/CrowdFunding.sol:CrowdFunding",
        "label": "_status",
        "offset": 0,
        "slot": "0",
        "type": "t_uint256"
      },
      {
        "astId": 1542,
        "contract": "contracts/CrowdFunding.sol:CrowdFunding",
        "label": "campaignEnded",
        "offset": 0,
        "slot": "1",
        "type": "t_bool"
      },
      {
        "astId": 1544,
        "contract": "contracts/CrowdFunding.sol:CrowdFunding",
        "label": "campaignOwner",
        "offset": 1,
        "slot": "1",
        "type": "t_address_payable"
      },
      {
        "astId": 1546,
        "contract": "contracts/CrowdFunding.sol:CrowdFunding",
        "label": "factoryContractAddress",
        "offset": 0,
        "slot": "2",
        "type": "t_address"
      },
      {
        "astId": 1549,
        "contract": "contracts/CrowdFunding.sol:CrowdFunding",
        "label": "category",
        "offset": 20,
        "slot": "2",
        "type": "t_enum(Category)1604"
      },
      {
        "astId": 1551,
        "contract": "contracts/CrowdFunding.sol:CrowdFunding",
        "label": "title",
        "offset": 0,
        "slot": "3",
        "type": "t_string_storage"
      },
      {
        "astId": 1553,
        "contract": "contracts/CrowdFunding.sol:CrowdFunding",
        "label": "contractDetailsId",
        "offset": 0,
        "slot": "4",
        "type": "t_string_storage"
      },
      {
        "astId": 1555,
        "contract": "contracts/CrowdFunding.sol:CrowdFunding",
        "label": "targetAmount",
        "offset": 0,
        "slot": "5",
        "type": "t_uint256"
      },
      {
        "astId": 1557,
        "contract": "contracts/CrowdFunding.sol:CrowdFunding",
        "label": "campaignDuration",
        "offset": 0,
        "slot": "6",
        "type": "t_uint256"
      },
      {
        "astId": 1559,
        "contract": "contracts/CrowdFunding.sol:CrowdFunding",
        "label": "amountDonated",
        "offset": 0,
        "slot": "7",
        "type": "t_uint256"
      },
      {
        "astId": 1561,
        "contract": "contracts/CrowdFunding.sol:CrowdFunding",
        "label": "numberOfDonors",
        "offset": 0,
        "slot": "8",
        "type": "t_uint256"
      },
      {
        "astId": 1563,
        "contract": "contracts/CrowdFunding.sol:CrowdFunding",
        "label": "milestoneCounter",
        "offset": 0,
        "slot": "9",
        "type": "t_uint256"
      },
      {
        "astId": 1565,
        "contract": "contracts/CrowdFunding.sol:CrowdFunding",
        "label": "approvedMilestone",
        "offset": 0,
        "slot": "10",
        "type": "t_uint256"
      },
      {
        "astId": 1567,
        "contract": "contracts/CrowdFunding.sol:CrowdFunding",
        "label": "numberOfWithdrawal",
        "offset": 0,
        "slot": "11",
        "type": "t_uint256"
      },
      {
        "astId": 1569,
        "contract": "contracts/CrowdFunding.sol:CrowdFunding",
        "label": "amountRecalledByDonor",
        "offset": 0,
        "slot": "12",
        "type": "t_uint256"
      },
      {
        "astId": 1580,
        "contract": "contracts/CrowdFunding.sol:CrowdFunding",
        "label": "donationToken",
        "offset": 0,
        "slot": "13",
        "type": "t_contract(CrowdFundingToken)3208"
      },
      {
        "astId": 1584,
        "contract": "contracts/CrowdFunding.sol:CrowdFunding",
        "label": "donors",
        "offset": 0,
        "slot": "14",
        "type": "t_mapping(t_address,t_uint256)"
      },
      {
        "astId": 1589,
        "contract": "contracts/CrowdFunding.sol:CrowdFunding",
        "label": "milestones",
        "offset": 0,
        "slot": "15",
        "type": "t_mapping(t_uint256,t_struct(Milestone)1417_storage)"
      }
    ],
    "types": {
      "t_address": {
        "encoding": "inplace",
        "label": "address",
        "numberOfBytes": "20"
      },
      "t_address_payable": {
        "encoding": "inplace",
        "label": "address payable",
        "numberOfBytes": "20"
      },
      "t_bool": {
        "encoding": "inplace",
        "label": "bool",
        "numberOfBytes": "1"
      },
      "t_contract(CrowdFundingToken)3208": {
        "encoding": "inplace",
        "label": "contract CrowdFundingToken",
        "numberOfBytes": "20"
      },
      "t_enum(Category)1604": {
        "encoding": "inplace",
        "label": "enum CrowdFunding.Category",
        "numberOfBytes": "1"
      },
      "t_enum(MilestoneStatus)1594": {
        "encoding": "inplace",
        "label": "enum CrowdFunding.MilestoneStatus",
        "numberOfBytes": "1"
      },
      "t_mapping(t_address,t_bool)": {
        "encoding": "mapping",
        "key": "t_address",
        "label": "mapping(address => bool)",
        "numberOfBytes": "32",
        "value": "t_bool"
      },
      "t_mapping(t_address,t_uint256)": {
        "encoding": "mapping",
        "key": "t_address",
        "label": "mapping(address => uint256)",
        "numberOfBytes": "32",
        "value": "t_uint256"
      },
      "t_mapping(t_uint256,t_struct(Milestone)1417_storage)": {
        "encoding": "mapping",
        "key": "t_uint256",
        "label": "mapping(uint256 => struct CrowdFunding.Milestone)",
        "numberOfBytes": "32",
        "value": "t_struct(Milestone)1417_storage"
      },
      "t_string_storage": {
        "encoding": "bytes",
        "label": "string",
        "numberOfBytes": "32"
      },
      "t_struct(Milestone)1417_storage": {
        "encoding": "inplace",
        "label": "struct CrowdFunding.Milestone",
        "members": [
          {
            "astId": 1401,
            "contract": "contracts/CrowdFunding.sol:CrowdFunding",
            "label": "milestoneCID",
            "offset": 0,
            "slot": "0",
            "type": "t_string_storage"
          },
          {
            "astId": 1403,
            "contract": "contracts/CrowdFunding.sol:CrowdFunding",
            "label": "approved",
            "offset": 0,
            "slot": "1",
            "type": "t_bool"
          },
          {
            "astId": 1405,
            "contract": "contracts/CrowdFunding.sol:CrowdFunding",
            "label": "votingPeriod",
            "offset": 0,
            "slot": "2",
            "type": "t_uint256"
          },
          {
            "astId": 1408,
            "contract": "contracts/CrowdFunding.sol:CrowdFunding",
            "label": "status",
            "offset": 0,
            "slot": "3",
            "type": "t_enum(MilestoneStatus)1594"
          },
          {
            "astId": 1410,
            "contract": "contracts/CrowdFunding.sol:CrowdFunding",
            "label": "supportVote",
            "offset": 0,
            "slot": "4",
            "type": "t_uint256"
          },
          {
            "astId": 1412,
            "contract": "contracts/CrowdFunding.sol:CrowdFunding",
            "label": "againstVote",
            "offset": 0,
            "slot": "5",
            "type": "t_uint256"
          },
          {
            "astId": 1416,
            "contract": "contracts/CrowdFunding.sol:CrowdFunding",
            "label": "hasVoted",
            "offset": 0,
            "slot": "6",
            "type": "t_mapping(t_address,t_bool)"
          }
        ],
        "numberOfBytes": "224"
      },
      "t_uint256": {
        "encoding": "inplace",
        "label": "uint256",
        "numberOfBytes": "32"
      }
    }
  }
}