{
  "address": "0x0Ac6Bb3095c62706D8EDd0B9185bCCFB16cDE117",
  "abi": [
    {
      "inputs": [
        {
          "internalType": "address",
          "name": "_implementation",
          "type": "address"
        },
        {
          "internalType": "address",
          "name": "_donationTokenAddress",
          "type": "address"
        }
      ],
      "stateMutability": "nonpayable",
      "type": "constructor"
    },
    {
      "inputs": [],
      "name": "CreateFundingContractFailed",
      "type": "error"
    },
    {
      "inputs": [],
      "name": "ERC1167FailedCreateClone",
      "type": "error"
    },
    {
      "inputs": [],
      "name": "FundingForNewContractTooSmall",
      "type": "error"
    },
    {
      "inputs": [],
      "name": "InvalidFee",
      "type": "error"
    },
    {
      "inputs": [],
      "name": "NoFundsToWithdraw",
      "type": "error"
    },
    {
      "inputs": [
        {
          "internalType": "address",
          "name": "owner",
          "type": "address"
        }
      ],
      "name": "OwnableInvalidOwner",
      "type": "error"
    },
    {
      "inputs": [
        {
          "internalType": "address",
          "name": "account",
          "type": "address"
        }
      ],
      "name": "OwnableUnauthorizedAccount",
      "type": "error"
    },
    {
      "inputs": [],
      "name": "WithdrawalFailed",
      "type": "error"
    },
    {
      "anonymous": false,
      "inputs": [
        {
          "indexed": false,
          "internalType": "uint256",
          "name": "oldFee",
          "type": "uint256"
        },
        {
          "indexed": false,
          "internalType": "uint256",
          "name": "newFee",
          "type": "uint256"
        }
      ],
      "name": "FundingFeeUpdated",
      "type": "event"
    },
    {
      "anonymous": false,
      "inputs": [
        {
          "indexed": true,
          "internalType": "address",
          "name": "owner",
          "type": "address"
        },
        {
          "indexed": false,
          "internalType": "uint256",
          "name": "amount",
          "type": "uint256"
        }
      ],
      "name": "FundsWithdrawn",
      "type": "event"
    },
    {
      "anonymous": false,
      "inputs": [
        {
          "indexed": true,
          "internalType": "address",
          "name": "owner",
          "type": "address"
        },
        {
          "indexed": true,
          "internalType": "address",
          "name": "contractAddress",
          "type": "address"
        },
        {
          "indexed": false,
          "internalType": "string",
          "name": "contractDetailsId",
          "type": "string"
        },
        {
          "indexed": false,
          "internalType": "string",
          "name": "title",
          "type": "string"
        },
        {
          "indexed": false,
          "internalType": "uint8",
          "name": "category",
          "type": "uint8"
        },
        {
          "indexed": false,
          "internalType": "uint256",
          "name": "duration",
          "type": "uint256"
        },
        {
          "indexed": false,
          "internalType": "uint256",
          "name": "goal",
          "type": "uint256"
        }
      ],
      "name": "NewCrowdFundingContractCreated",
      "type": "event"
    },
    {
      "anonymous": false,
      "inputs": [
        {
          "indexed": true,
          "internalType": "address",
          "name": "previousOwner",
          "type": "address"
        },
        {
          "indexed": true,
          "internalType": "address",
          "name": "newOwner",
          "type": "address"
        }
      ],
      "name": "OwnershipTransferred",
      "type": "event"
    },
    {
      "inputs": [
        {
          "internalType": "string",
          "name": "_contractDetailsId",
          "type": "string"
        },
        {
          "internalType": "enum CrowdFundingFactory.Category",
          "name": "_category",
          "type": "uint8"
        },
        {
          "internalType": "string",
          "name": "_title",
          "type": "string"
        },
        {
          "internalType": "uint256",
          "name": "_goal",
          "type": "uint256"
        },
        {
          "internalType": "uint256",
          "name": "_duration",
          "type": "uint256"
        }
      ],
      "name": "createNewCrowdFundingContract",
      "outputs": [
        {
          "internalType": "address",
          "name": "",
          "type": "address"
        }
      ],
      "stateMutability": "payable",
      "type": "function"
    },
    {
      "inputs": [],
      "name": "donationToken",
      "outputs": [
        {
          "internalType": "contract CrowdFundingToken",
          "name": "",
          "type": "address"
        }
      ],
      "stateMutability": "view",
      "type": "function"
    },
    {
      "inputs": [],
      "name": "getBalance",
      "outputs": [
        {
          "internalType": "uint256",
          "name": "",
          "type": "uint256"
        }
      ],
      "stateMutability": "view",
      "type": "function"
    },
    {
      "inputs": [],
      "name": "getDeployedCrowdFundingContracts",
      "outputs": [
        {
          "internalType": "address[]",
          "name": "",
          "type": "address[]"
        }
      ],
      "stateMutability": "view",
      "type": "function"
    },
    {
      "inputs": [],
      "name": "getFundingFee",
      "outputs": [
        {
          "internalType": "uint256",
          "name": "",
          "type": "uint256"
        }
      ],
      "stateMutability": "view",
      "type": "function"
    },
    {
      "inputs": [],
      "name": "owner",
      "outputs": [
        {
          "internalType": "address",
          "name": "",
          "type": "address"
        }
      ],
      "stateMutability": "view",
      "type": "function"
    },
    {
      "inputs": [],
      "name": "renounceOwnership",
      "outputs": [],
      "stateMutability": "nonpayable",
      "type": "function"
    },
    {
      "inputs": [
        {
          "internalType": "uint256",
          "name": "_newFee",
          "type": "uint256"
        }
      ],
      "name": "setFundingFee",
      "outputs": [],
      "stateMutability": "nonpayable",
      "type": "function"
    },
    {
      "inputs": [
        {
          "internalType": "address",
          "name": "newOwner",
          "type": "address"
        }
      ],
      "name": "transferOwnership",
      "outputs": [],
      "stateMutability": "nonpayable",
      "type": "function"
    },
    {
      "inputs": [],
      "name": "withdrawFunds",
      "outputs": [],
      "stateMutability": "nonpayable",
      "type": "function"
    },
    {
      "stateMutability": "payable",
      "type": "receive"
    }
  ],
  "transactionHash": "0x22fe1e0d42cc784e62123ae151aa0cefe87cd258b9ea0580d3171da2fc43618c",
  "args": [
    "0x7f8A17c30bc4Fd9AEd732b3264ababee9a4e100E",
    "0x4da61e7341C0a0A532a1C4F49BE10Fb21a165927"
  ],
  "numDeployments": 1,
  "solcInputHash": "fc4d881b10f55382ed55e41e9c4583b5",
  "bytecode": "0x60a0604052633b9aca006003553480156200001957600080fd5b50604051620019163803806200191683398181016040528101906200003f9190620002e4565b33600073ffffffffffffffffffffffffffffffffffffffff168173ffffffffffffffffffffffffffffffffffffffff1603620000b55760006040517f1e4fbdf7000000000000000000000000000000000000000000000000000000008152600401620000ac91906200033c565b60405180910390fd5b620000c681620001b660201b60201c565b50600073ffffffffffffffffffffffffffffffffffffffff168273ffffffffffffffffffffffffffffffffffffffff160362000139576040517f08c379a00000000000000000000000000000000000000000000000000000000081526004016200013090620003ba565b60405180910390fd5b8173ffffffffffffffffffffffffffffffffffffffff1660808173ffffffffffffffffffffffffffffffffffffffff168152505080600460006101000a81548173ffffffffffffffffffffffffffffffffffffffff021916908373ffffffffffffffffffffffffffffffffffffffff1602179055505050620003dc565b60008060009054906101000a900473ffffffffffffffffffffffffffffffffffffffff169050816000806101000a81548173ffffffffffffffffffffffffffffffffffffffff021916908373ffffffffffffffffffffffffffffffffffffffff1602179055508173ffffffffffffffffffffffffffffffffffffffff168173ffffffffffffffffffffffffffffffffffffffff167f8be0079c531659141344cd1fd0a4f28419497f9722a3daafe3b4186f6b6457e060405160405180910390a35050565b600080fd5b600073ffffffffffffffffffffffffffffffffffffffff82169050919050565b6000620002ac826200027f565b9050919050565b620002be816200029f565b8114620002ca57600080fd5b50565b600081519050620002de81620002b3565b92915050565b60008060408385031215620002fe57620002fd6200027a565b5b60006200030e85828601620002cd565b92505060206200032185828601620002cd565b9150509250929050565b62000336816200029f565b82525050565b60006020820190506200035360008301846200032b565b92915050565b600082825260208201905092915050565b7f496e76616c696420696d706c656d656e746174696f6e20616464726573730000600082015250565b6000620003a2601e8362000359565b9150620003af826200036a565b602082019050919050565b60006020820190508181036000830152620003d58162000393565b9050919050565b60805161151e620003f8600039600061065c015261151e6000f3fe6080604052600436106100955760003560e01c80638da5cb5b116100595780638da5cb5b14610150578063ae3063191461017b578063b4be88f3146101a4578063cb5e02f5146101cf578063f2fde38b146101ff5761009c565b80630df72159146100a157806312065fe0146100cc57806324600fc3146100f75780633a88cc851461010e578063715018a6146101395761009c565b3661009c57005b600080fd5b3480156100ad57600080fd5b506100b6610228565b6040516100c39190610c7f565b60405180910390f35b3480156100d857600080fd5b506100e161024e565b6040516100ee9190610cb3565b60405180910390f35b34801561010357600080fd5b5061010c610256565b005b34801561011a57600080fd5b506101236103a0565b6040516101309190610cb3565b60405180910390f35b34801561014557600080fd5b5061014e6103aa565b005b34801561015c57600080fd5b506101656103be565b6040516101729190610cef565b60405180910390f35b34801561018757600080fd5b506101a2600480360381019061019d9190610d4a565b6103e7565b005b3480156101b057600080fd5b506101b961047c565b6040516101c69190610e35565b60405180910390f35b6101e960048036038101906101e49190610fc2565b61050a565b6040516101f69190610cef565b60405180910390f35b34801561020b57600080fd5b50610226600480360381019061022191906110a1565b610976565b005b600460009054906101000a900473ffffffffffffffffffffffffffffffffffffffff1681565b600047905090565b61025e6109fc565b60004790506000810361029d576040517f67e3990d00000000000000000000000000000000000000000000000000000000815260040160405180910390fd5b60006102a76103be565b73ffffffffffffffffffffffffffffffffffffffff16826040516102ca906110ff565b60006040518083038185875af1925050503d8060008114610307576040519150601f19603f3d011682016040523d82523d6000602084013e61030c565b606091505b5050905080610347576040517f27fcd9d100000000000000000000000000000000000000000000000000000000815260040160405180910390fd5b61034f6103be565b73ffffffffffffffffffffffffffffffffffffffff167feaff4b37086828766ad3268786972c0cd24259d4c87a80f9d3963a3c3d999b0d836040516103949190610cb3565b60405180910390a25050565b6000600354905090565b6103b26109fc565b6103bc6000610a83565b565b60008060009054906101000a900473ffffffffffffffffffffffffffffffffffffffff16905090565b6103ef6109fc565b670de0b6b3a7640000811115610431576040517f58d620b300000000000000000000000000000000000000000000000000000000815260040160405180910390fd5b60006003549050816003819055507fb2743902575ffdab882dfa43a3501f82fbbefa0d2c637e393aed1e80e2cb840b8183604051610470929190611114565b60405180910390a15050565b6060600180548060200260200160405190810160405280929190818152602001828054801561050057602002820191906000526020600020905b8160009054906101000a900473ffffffffffffffffffffffffffffffffffffffff1673ffffffffffffffffffffffffffffffffffffffff16815260200190600101908083116104b6575b5050505050905090565b60008086511161054f576040517f08c379a00000000000000000000000000000000000000000000000000000000081526004016105469061119a565b60405180910390fd5b6000845111610593576040517f08c379a000000000000000000000000000000000000000000000000000000000815260040161058a90611206565b60405180910390fd5b600083116105d6576040517f08c379a00000000000000000000000000000000000000000000000000000000081526004016105cd90611272565b60405180910390fd5b60008211610619576040517f08c379a0000000000000000000000000000000000000000000000000000000008152600401610610906112de565b60405180910390fd5b600354341015610655576040517fcd0db44200000000000000000000000000000000000000000000000000000000815260040160405180910390fd5b60006106807f0000000000000000000000000000000000000000000000000000000000000000610b47565b905060008786886008811115610699576106986112fe565b5b878730600460009054906101000a900473ffffffffffffffffffffffffffffffffffffffff166040516024016106d597969594939291906113b7565b6040516020818303038152906040527f561cf2ab000000000000000000000000000000000000000000000000000000007bffffffffffffffffffffffffffffffffffffffffffffffffffffffff19166020820180517bffffffffffffffffffffffffffffffffffffffffffffffffffffffff8381831617835250505050905060008273ffffffffffffffffffffffffffffffffffffffff168260405161077b9190611470565b6000604051808303816000865af19150503d80600081146107b8576040519150601f19603f3d011682016040523d82523d6000602084013e6107bd565b606091505b50509050806107f8576040517fcba601e300000000000000000000000000000000000000000000000000000000815260040160405180910390fd5b6001839080600181540180825580915050600190039060005260206000200160009091909190916101000a81548173ffffffffffffffffffffffffffffffffffffffff021916908373ffffffffffffffffffffffffffffffffffffffff160217905550600460009054906101000a900473ffffffffffffffffffffffffffffffffffffffff1673ffffffffffffffffffffffffffffffffffffffff16639851967c846040518263ffffffff1660e01b81526004016108b69190610cef565b600060405180830381600087803b1580156108d057600080fd5b505af11580156108e4573d6000803e3d6000fd5b505050508273ffffffffffffffffffffffffffffffffffffffff163373ffffffffffffffffffffffffffffffffffffffff167fff1332e9603156064c04f8155bf5371aaa2e993afb3ca17a7c2f2ef582a6c0738b8a8c600881111561094c5761094b6112fe565b5b8a8c60405161095f959493929190611487565b60405180910390a382935050505095945050505050565b61097e6109fc565b600073ffffffffffffffffffffffffffffffffffffffff168173ffffffffffffffffffffffffffffffffffffffff16036109f05760006040517f1e4fbdf70000000000000000000000000000000000000000000000000000000081526004016109e79190610cef565b60405180910390fd5b6109f981610a83565b50565b610a04610bf8565b73ffffffffffffffffffffffffffffffffffffffff16610a226103be565b73ffffffffffffffffffffffffffffffffffffffff1614610a8157610a45610bf8565b6040517f118cdaa7000000000000000000000000000000000000000000000000000000008152600401610a789190610cef565b60405180910390fd5b565b60008060009054906101000a900473ffffffffffffffffffffffffffffffffffffffff169050816000806101000a81548173ffffffffffffffffffffffffffffffffffffffff021916908373ffffffffffffffffffffffffffffffffffffffff1602179055508173ffffffffffffffffffffffffffffffffffffffff168173ffffffffffffffffffffffffffffffffffffffff167f8be0079c531659141344cd1fd0a4f28419497f9722a3daafe3b4186f6b6457e060405160405180910390a35050565b6000763d602d80600a3d3981f3363d3d373d3d3d363d730000008260601b60e81c176000526e5af43d82803e903d91602b57fd5bf38260781b17602052603760096000f09050600073ffffffffffffffffffffffffffffffffffffffff168173ffffffffffffffffffffffffffffffffffffffff1603610bf3576040517fc2f868f400000000000000000000000000000000000000000000000000000000815260040160405180910390fd5b919050565b600033905090565b600073ffffffffffffffffffffffffffffffffffffffff82169050919050565b6000819050919050565b6000610c45610c40610c3b84610c00565b610c20565b610c00565b9050919050565b6000610c5782610c2a565b9050919050565b6000610c6982610c4c565b9050919050565b610c7981610c5e565b82525050565b6000602082019050610c946000830184610c70565b92915050565b6000819050919050565b610cad81610c9a565b82525050565b6000602082019050610cc86000830184610ca4565b92915050565b6000610cd982610c00565b9050919050565b610ce981610cce565b82525050565b6000602082019050610d046000830184610ce0565b92915050565b6000604051905090565b600080fd5b600080fd5b610d2781610c9a565b8114610d3257600080fd5b50565b600081359050610d4481610d1e565b92915050565b600060208284031215610d6057610d5f610d14565b5b6000610d6e84828501610d35565b91505092915050565b600081519050919050565b600082825260208201905092915050565b6000819050602082019050919050565b610dac81610cce565b82525050565b6000610dbe8383610da3565b60208301905092915050565b6000602082019050919050565b6000610de282610d77565b610dec8185610d82565b9350610df783610d93565b8060005b83811015610e28578151610e0f8882610db2565b9750610e1a83610dca565b925050600181019050610dfb565b5085935050505092915050565b60006020820190508181036000830152610e4f8184610dd7565b905092915050565b600080fd5b600080fd5b6000601f19601f8301169050919050565b7f4e487b7100000000000000000000000000000000000000000000000000000000600052604160045260246000fd5b610eaa82610e61565b810181811067ffffffffffffffff82111715610ec957610ec8610e72565b5b80604052505050565b6000610edc610d0a565b9050610ee88282610ea1565b919050565b600067ffffffffffffffff821115610f0857610f07610e72565b5b610f1182610e61565b9050602081019050919050565b82818337600083830152505050565b6000610f40610f3b84610eed565b610ed2565b905082815260208101848484011115610f5c57610f5b610e5c565b5b610f67848285610f1e565b509392505050565b600082601f830112610f8457610f83610e57565b5b8135610f94848260208601610f2d565b91505092915050565b60098110610faa57600080fd5b50565b600081359050610fbc81610f9d565b92915050565b600080600080600060a08688031215610fde57610fdd610d14565b5b600086013567ffffffffffffffff811115610ffc57610ffb610d19565b5b61100888828901610f6f565b955050602061101988828901610fad565b945050604086013567ffffffffffffffff81111561103a57611039610d19565b5b61104688828901610f6f565b935050606061105788828901610d35565b925050608061106888828901610d35565b9150509295509295909350565b61107e81610cce565b811461108957600080fd5b50565b60008135905061109b81611075565b92915050565b6000602082840312156110b7576110b6610d14565b5b60006110c58482850161108c565b91505092915050565b600081905092915050565b50565b60006110e96000836110ce565b91506110f4826110d9565b600082019050919050565b600061110a826110dc565b9150819050919050565b60006040820190506111296000830185610ca4565b6111366020830184610ca4565b9392505050565b600082825260208201905092915050565b7f456d70747920636f6e74726163742064657461696c7320494400000000000000600082015250565b600061118460198361113d565b915061118f8261114e565b602082019050919050565b600060208201905081810360008301526111b381611177565b9050919050565b7f456d707479207469746c65000000000000000000000000000000000000000000600082015250565b60006111f0600b8361113d565b91506111fb826111ba565b602082019050919050565b6000602082019050818103600083015261121f816111e3565b9050919050565b7f476f616c206d7573742062652067726561746572207468616e20300000000000600082015250565b600061125c601b8361113d565b915061126782611226565b602082019050919050565b6000602082019050818103600083015261128b8161124f565b9050919050565b7f4475726174696f6e206d7573742062652067726561746572207468616e203000600082015250565b60006112c8601f8361113d565b91506112d382611292565b602082019050919050565b600060208201905081810360008301526112f7816112bb565b9050919050565b7f4e487b7100000000000000000000000000000000000000000000000000000000600052602160045260246000fd5b600081519050919050565b60005b8381101561135657808201518184015260208101905061133b565b60008484015250505050565b600061136d8261132d565b611377818561113d565b9350611387818560208601611338565b61139081610e61565b840191505092915050565b600060ff82169050919050565b6113b18161139b565b82525050565b600060e08201905081810360008301526113d1818a611362565b905081810360208301526113e58189611362565b90506113f460408301886113a8565b6114016060830187610ca4565b61140e6080830186610ca4565b61141b60a0830185610ce0565b61142860c0830184610ce0565b98975050505050505050565b600081519050919050565b600061144a82611434565b61145481856110ce565b9350611464818560208601611338565b80840191505092915050565b600061147c828461143f565b915081905092915050565b600060a08201905081810360008301526114a18188611362565b905081810360208301526114b58187611362565b90506114c460408301866113a8565b6114d16060830185610ca4565b6114de6080830184610ca4565b969550505050505056fea2646970667358221220601f28e0834720570f34f57e3f083f679bb2d5c921f10c0108e1df26a82ab09364736f6c63430008180033",
  "devdoc": {
    "details": "Factory contract for creating new crowdfunding campaigns",
    "errors": {
      "ERC1167FailedCreateClone()": [
        {
          "details": "A clone instance deployment failed."
        }
      ],
      "OwnableInvalidOwner(address)": [
        {
          "details": "The owner is not a valid owner account. (eg. `address(0)`)"
        }
      ],
      "OwnableUnauthorizedAccount(address)": [
        {
          "details": "The caller account is not authorized to perform an operation."
        }
      ]
    },
    "kind": "dev",
    "methods": {
      "owner()": {
        "details": "Returns the address of the current owner."
      },
      "renounceOwnership()": {
        "details": "Leaves the contract without owner. It will not be possible to call `onlyOwner` functions. Can only be called by the current owner. NOTE: Renouncing ownership will leave the contract without an owner, thereby disabling any functionality that is only available to the owner."
      },
      "transferOwnership(address)": {
        "details": "Transfers ownership of the contract to a new account (`newOwner`). Can only be called by the current owner."
      }
    },
    "title": "CrowdFundingFactory",
    "version": 1
  },
  "userdoc": {
    "kind": "user",
    "methods": {},
    "version": 1
  },
  "storageLayout": {
    "storage": [
      {
        "astId": 8,
        "contract": "contracts/CrowdFundingFactory.sol:CrowdFundingFactory",
        "label": "_owner",
        "offset": 0,
        "slot": "0",
        "type": "t_address"
      },
      {
        "astId": 2806,
        "contract": "contracts/CrowdFundingFactory.sol:CrowdFundingFactory",
        "label": "deployedCrowdFundingContracts",
        "offset": 0,
        "slot": "1",
        "type": "t_array(t_address)dyn_storage"
      },
      {
        "astId": 2808,
        "contract": "contracts/CrowdFundingFactory.sol:CrowdFundingFactory",
        "label": "crowdFundingToken",
        "offset": 0,
        "slot": "2",
        "type": "t_address"
      },
      {
        "astId": 2811,
        "contract": "contracts/CrowdFundingFactory.sol:CrowdFundingFactory",
        "label": "fundingFee",
        "offset": 0,
        "slot": "3",
        "type": "t_uint256"
      },
      {
        "astId": 2814,
        "contract": "contracts/CrowdFundingFactory.sol:CrowdFundingFactory",
        "label": "donationToken",
        "offset": 0,
        "slot": "4",
        "type": "t_contract(CrowdFundingToken)3208"
      }
    ],
    "types": {
      "t_address": {
        "encoding": "inplace",
        "label": "address",
        "numberOfBytes": "20"
      },
      "t_array(t_address)dyn_storage": {
        "base": "t_address",
        "encoding": "dynamic_array",
        "label": "address[]",
        "numberOfBytes": "32"
      },
      "t_contract(CrowdFundingToken)3208": {
        "encoding": "inplace",
        "label": "contract CrowdFundingToken",
        "numberOfBytes": "20"
      },
      "t_uint256": {
        "encoding": "inplace",
        "label": "uint256",
        "numberOfBytes": "32"
      }
    }
  }
}