{
  "_format": "hh-sol-artifact-1",
  "contractName": "CrowdFunding",
  "sourceName": "contracts/CrowdFunding.sol",
  "abi": [
    {
      "inputs": [],
      "name": "CamPaignEndedErrorNoLongerAcceptingDonations",
      "type": "error"
    },
    {
      "inputs": [],
      "name": "CampaignAlreadyEnded",
      "type": "error"
    },
    {
      "inputs": [],
      "name": "CampaignHasEnded",
      "type": "error"
    },
    {
      "inputs": [],
      "name": "CampaignStillRunning",
      "type": "error"
    },
    {
      "inputs": [
        {
          "internalType": "address",
          "name": "_address",
          "type": "address"
        }
      ],
      "name": "CanNotVoteOnMileStone",
      "type": "error"
    },
    {
      "inputs": [
        {
          "internalType": "address",
          "name": "_donorAddress",
          "type": "address"
        }
      ],
      "name": "CantWithdrawFundsCampaignEnded",
      "type": "error"
    },
    {
      "inputs": [],
      "name": "FundingGoalNotMet",
      "type": "error"
    },
    {
      "inputs": [],
      "name": "InsufficientFunds",
      "type": "error"
    },
    {
      "inputs": [],
      "name": "InvalidInitialization",
      "type": "error"
    },
    {
      "inputs": [],
      "name": "MaximumNumberofWithdrawalExceeded",
      "type": "error"
    },
    {
      "inputs": [],
      "name": "MileStoneVotingHasElapsed",
      "type": "error"
    },
    {
      "inputs": [],
      "name": "MileStoneVotingPeriodHasNotElapsed",
      "type": "error"
    },
    {
      "inputs": [],
      "name": "MilestoneHasEnded",
      "type": "error"
    },
    {
      "inputs": [],
      "name": "NewDurationSmallerThanPreviousDuration",
      "type": "error"
    },
    {
      "inputs": [],
      "name": "NotInitializing",
      "type": "error"
    },
    {
      "inputs": [],
      "name": "ReentrancyGuardReentrantCall",
      "type": "error"
    },
    {
      "inputs": [],
      "name": "TheMaximumMilestoneHaveBeenCreated",
      "type": "error"
    },
    {
      "inputs": [
        {
          "internalType": "uint256",
          "name": "amount",
          "type": "uint256"
        }
      ],
      "name": "WithdrawalFailed",
      "type": "error"
    },
    {
      "inputs": [],
      "name": "YouAreNotTheOwnerOfTheCampaign",
      "type": "error"
    },
    {
      "inputs": [],
      "name": "YouDidNotDonateToThisCampaign",
      "type": "error"
    },
    {
      "inputs": [],
      "name": "YouHaveAPendingMileStone",
      "type": "error"
    },
    {
      "inputs": [
        {
          "internalType": "address",
          "name": "_address",
          "type": "address"
        }
      ],
      "name": "YouHaveVotedForThisMilestoneAlready",
      "type": "error"
    },
    {
      "anonymous": false,
      "inputs": [
        {
          "indexed": true,
          "internalType": "address",
          "name": "project",
          "type": "address"
        },
        {
          "indexed": true,
          "internalType": "uint256",
          "name": "date",
          "type": "uint256"
        }
      ],
      "name": "CampaignEnded",
      "type": "event"
    },
    {
      "anonymous": false,
      "inputs": [
        {
          "indexed": true,
          "internalType": "address",
          "name": "donor",
          "type": "address"
        },
        {
          "indexed": false,
          "internalType": "uint256",
          "name": "amount",
          "type": "uint256"
        },
        {
          "indexed": true,
          "internalType": "address",
          "name": "project",
          "type": "address"
        },
        {
          "indexed": true,
          "internalType": "uint256",
          "name": "date",
          "type": "uint256"
        }
      ],
      "name": "DonationReceived",
      "type": "event"
    },
    {
      "anonymous": false,
      "inputs": [
        {
          "indexed": true,
          "internalType": "address",
          "name": "project",
          "type": "address"
        },
        {
          "indexed": true,
          "internalType": "address",
          "name": "donor",
          "type": "address"
        },
        {
          "indexed": false,
          "internalType": "uint256",
          "name": "amountReceived",
          "type": "uint256"
        },
        {
          "indexed": false,
          "internalType": "uint256",
          "name": "amountDonated",
          "type": "uint256"
        },
        {
          "indexed": true,
          "internalType": "uint256",
          "name": "date",
          "type": "uint256"
        }
      ],
      "name": "DonationWithdrawn",
      "type": "event"
    },
    {
      "anonymous": false,
      "inputs": [
        {
          "indexed": false,
          "internalType": "uint64",
          "name": "version",
          "type": "uint64"
        }
      ],
      "name": "Initialized",
      "type": "event"
    },
    {
      "anonymous": false,
      "inputs": [
        {
          "indexed": true,
          "internalType": "address",
          "name": "owner",
          "type": "address"
        },
        {
          "indexed": true,
          "internalType": "uint256",
          "name": "dateCreated",
          "type": "uint256"
        },
        {
          "indexed": false,
          "internalType": "uint256",
          "name": "period",
          "type": "uint256"
        },
        {
          "indexed": false,
          "internalType": "string",
          "name": "milestoneCID",
          "type": "string"
        }
      ],
      "name": "MilestoneCreated",
      "type": "event"
    },
    {
      "anonymous": false,
      "inputs": [
        {
          "indexed": true,
          "internalType": "address",
          "name": "project",
          "type": "address"
        },
        {
          "indexed": false,
          "internalType": "enum CrowdFunding.MilestoneStatus",
          "name": "status",
          "type": "uint8"
        },
        {
          "indexed": false,
          "internalType": "string",
          "name": "milestoneCID",
          "type": "string"
        },
        {
          "indexed": true,
          "internalType": "uint256",
          "name": "date",
          "type": "uint256"
        }
      ],
      "name": "MilestoneStatusUpdated",
      "type": "event"
    },
    {
      "anonymous": false,
      "inputs": [
        {
          "indexed": true,
          "internalType": "address",
          "name": "voter",
          "type": "address"
        },
        {
          "indexed": true,
          "internalType": "address",
          "name": "project",
          "type": "address"
        },
        {
          "indexed": false,
          "internalType": "bool",
          "name": "vote",
          "type": "bool"
        },
        {
          "indexed": true,
          "internalType": "uint256",
          "name": "date",
          "type": "uint256"
        }
      ],
      "name": "MilestoneVoted",
      "type": "event"
    },
    {
      "anonymous": false,
      "inputs": [
        {
          "indexed": true,
          "internalType": "address",
          "name": "owner",
          "type": "address"
        },
        {
          "indexed": false,
          "internalType": "uint256",
          "name": "amount",
          "type": "uint256"
        },
        {
          "indexed": true,
          "internalType": "uint256",
          "name": "date",
          "type": "uint256"
        }
      ],
      "name": "MilestoneWithdrawn",
      "type": "event"
    },
    {
      "anonymous": false,
      "inputs": [
        {
          "indexed": true,
          "internalType": "address",
          "name": "voter",
          "type": "address"
        },
        {
          "indexed": true,
          "internalType": "address",
          "name": "project",
          "type": "address"
        },
        {
          "indexed": false,
          "internalType": "bool",
          "name": "support",
          "type": "bool"
        },
        {
          "indexed": false,
          "internalType": "uint256",
          "name": "amount",
          "type": "uint256"
        },
        {
          "indexed": true,
          "internalType": "uint256",
          "name": "timestamp",
          "type": "uint256"
        },
        {
          "indexed": false,
          "internalType": "string",
          "name": "milestoneCID",
          "type": "string"
        }
      ],
      "name": "VotedOnMilestone",
      "type": "event"
    },
    {
      "inputs": [],
      "name": "campaignEnded",
      "outputs": [
        {
          "internalType": "bool",
          "name": "",
          "type": "bool"
        }
      ],
      "stateMutability": "view",
      "type": "function"
    },
    {
      "inputs": [],
      "name": "contractBalance",
      "outputs": [
        {
          "internalType": "uint256",
          "name": "",
          "type": "uint256"
        }
      ],
      "stateMutability": "view",
      "type": "function"
    },
    {
      "inputs": [
        {
          "internalType": "string",
          "name": "milestoneCID",
          "type": "string"
        }
      ],
      "name": "createNewMilestone",
      "outputs": [],
      "stateMutability": "nonpayable",
      "type": "function"
    },
    {
      "inputs": [],
      "name": "donationToken",
      "outputs": [
        {
          "internalType": "contract CrowdFundingToken",
          "name": "",
          "type": "address"
        }
      ],
      "stateMutability": "view",
      "type": "function"
    },
    {
      "inputs": [
        {
          "internalType": "address",
          "name": "",
          "type": "address"
        }
      ],
      "name": "donors",
      "outputs": [
        {
          "internalType": "uint256",
          "name": "",
          "type": "uint256"
        }
      ],
      "stateMutability": "view",
      "type": "function"
    },
    {
      "inputs": [],
      "name": "endCampaign",
      "outputs": [],
      "stateMutability": "nonpayable",
      "type": "function"
    },
    {
      "inputs": [],
      "name": "getCampaignStats",
      "outputs": [
        {
          "internalType": "uint256",
          "name": "_amountDonated",
          "type": "uint256"
        },
        {
          "internalType": "uint256",
          "name": "_targetAmount",
          "type": "uint256"
        },
        {
          "internalType": "uint256",
          "name": "_numberOfDonors",
          "type": "uint256"
        },
        {
          "internalType": "uint256",
          "name": "_approvedMilestones",
          "type": "uint256"
        },
        {
          "internalType": "bool",
          "name": "_ended",
          "type": "bool"
        }
      ],
      "stateMutability": "view",
      "type": "function"
    },
    {
      "inputs": [],
      "name": "getFundingDetails",
      "outputs": [
        {
          "internalType": "address",
          "name": "",
          "type": "address"
        },
        {
          "internalType": "uint256",
          "name": "",
          "type": "uint256"
        },
        {
          "internalType": "uint256",
          "name": "",
          "type": "uint256"
        }
      ],
      "stateMutability": "view",
      "type": "function"
    },
    {
      "inputs": [],
      "name": "getWithdrawalTaxRate",
      "outputs": [
        {
          "internalType": "uint256",
          "name": "",
          "type": "uint256"
        }
      ],
      "stateMutability": "pure",
      "type": "function"
    },
    {
      "inputs": [],
      "name": "giveDonationToCause",
      "outputs": [],
      "stateMutability": "payable",
      "type": "function"
    },
    {
      "inputs": [
        {
          "internalType": "address",
          "name": "_donorAddress",
          "type": "address"
        }
      ],
      "name": "hasVotedOnMilestone",
      "outputs": [
        {
          "internalType": "bool",
          "name": "",
          "type": "bool"
        }
      ],
      "stateMutability": "view",
      "type": "function"
    },
    {
      "inputs": [
        {
          "internalType": "uint256",
          "name": "newPeriod",
          "type": "uint256"
        }
      ],
      "name": "increaseCampaignPeriod",
      "outputs": [],
      "stateMutability": "nonpayable",
      "type": "function"
    },
    {
      "inputs": [
        {
          "internalType": "string",
          "name": "_contractDetailsId",
          "type": "string"
        },
        {
          "internalType": "string",
          "name": "_title",
          "type": "string"
        },
        {
          "internalType": "enum CrowdFunding.Category",
          "name": "_category",
          "type": "uint8"
        },
        {
          "internalType": "uint256",
          "name": "_amount",
          "type": "uint256"
        },
        {
          "internalType": "uint256",
          "name": "_duration",
          "type": "uint256"
        },
        {
          "internalType": "address",
          "name": "_factoryAddress",
          "type": "address"
        },
        {
          "internalType": "address",
          "name": "_donationTokenAddress",
          "type": "address"
        },
        {
          "internalType": "address",
          "name": "_owner",
          "type": "address"
        }
      ],
      "name": "initialize",
      "outputs": [],
      "stateMutability": "nonpayable",
      "type": "function"
    },
    {
      "inputs": [
        {
          "internalType": "uint256",
          "name": "",
          "type": "uint256"
        }
      ],
      "name": "milestones",
      "outputs": [
        {
          "internalType": "string",
          "name": "milestoneCID",
          "type": "string"
        },
        {
          "internalType": "bool",
          "name": "approved",
          "type": "bool"
        },
        {
          "internalType": "uint256",
          "name": "votingPeriod",
          "type": "uint256"
        },
        {
          "internalType": "enum CrowdFunding.MilestoneStatus",
          "name": "status",
          "type": "uint8"
        },
        {
          "internalType": "uint256",
          "name": "supportVote",
          "type": "uint256"
        },
        {
          "internalType": "uint256",
          "name": "againstVote",
          "type": "uint256"
        }
      ],
      "stateMutability": "view",
      "type": "function"
    },
    {
      "inputs": [],
      "name": "retrieveDonatedAmount",
      "outputs": [],
      "stateMutability": "nonpayable",
      "type": "function"
    },
    {
      "inputs": [
        {
          "internalType": "uint256",
          "name": "newDays",
          "type": "uint256"
        }
      ],
      "name": "setVotingPeriod",
      "outputs": [],
      "stateMutability": "nonpayable",
      "type": "function"
    },
    {
      "inputs": [],
      "name": "totalVotesOnMilestone",
      "outputs": [
        {
          "internalType": "uint256",
          "name": "",
          "type": "uint256"
        },
        {
          "internalType": "uint256",
          "name": "",
          "type": "uint256"
        }
      ],
      "stateMutability": "view",
      "type": "function"
    },
    {
      "inputs": [
        {
          "internalType": "bool",
          "name": "support",
          "type": "bool"
        }
      ],
      "name": "voteOnMilestone",
      "outputs": [],
      "stateMutability": "nonpayable",
      "type": "function"
    },
    {
      "inputs": [],
      "name": "votingPeriodDays",
      "outputs": [
        {
          "internalType": "uint256",
          "name": "",
          "type": "uint256"
        }
      ],
      "stateMutability": "view",
      "type": "function"
    },
    {
      "inputs": [],
      "name": "withdrawMilestone",
      "outputs": [],
      "stateMutability": "nonpayable",
      "type": "function"
    },
    {
      "stateMutability": "payable",
      "type": "receive"
    }
  ],
  "bytecode": "0x608060405234801561001057600080fd5b50600160005561211a806100256000396000f3fe6080604052600436106101235760003560e01c80638b7afe2e116100a0578063d5330fb211610064578063d5330fb214610365578063e0ae1b73146103ae578063e89e4ed6146103ce578063ea0217cf14610400578063ef9331d11461042057600080fd5b80638b7afe2e146102d2578063ba536193146102ef578063bf2928a61461030f578063c5c22db114610324578063ca0cdea81461033857600080fd5b806341cf938a116100e757806341cf938a146102185780636eefa2dd1461025757806371aac7f91461025f5780637d6492f614610274578063858b85b31461029457600080fd5b80630b228b301461012f5780630df7215914610151578063205db2371461018e578063294b23a2146101e95780633bc47fbe146101fe57600080fd5b3661012a57005b600080fd5b34801561013b57600080fd5b5061014f61014a366004611a58565b610436565b005b34801561015d57600080fd5b50600e54610171906001600160a01b031681565b6040516001600160a01b0390911681526020015b60405180910390f35b34801561019a57600080fd5b506101d96101a9366004611a8d565b60095460009081526010602090815260408083206001600160a01b03909416835260069093019052205460ff1690565b6040519015158152602001610185565b3480156101f557600080fd5b5061014f610504565b34801561020a57600080fd5b506001546101d99060ff1681565b34801561022457600080fd5b50600154600654600554604080516101009094046001600160a01b03168452602084019290925290820152606001610185565b61014f6109f4565b34801561026b57600080fd5b5061014f610b96565b34801561028057600080fd5b5061014f61028f366004611af8565b610ca2565b3480156102a057600080fd5b506009546000908152601060205260409020600481015460059091015460408051928352602083019190915201610185565b3480156102de57600080fd5b50475b604051908152602001610185565b3480156102fb57600080fd5b5061014f61030a366004611bc3565b61105a565b34801561031b57600080fd5b5061014f611252565b34801561033057600080fd5b50600a6102e1565b34801561034457600080fd5b506102e1610353366004611a8d565b600f6020526000908152604090205481565b34801561037157600080fd5b50600754600554600854600a5460015460ff166040805195865260208601949094529284019190915260608301521515608082015260a001610185565b3480156103ba57600080fd5b5061014f6103c9366004611bfb565b6115e0565b3480156103da57600080fd5b506103ee6103e9366004611a58565b611798565b60405161018596959493929190611d2a565b34801561040c57600080fd5b5061014f61041b366004611a58565b61185b565b34801561042c57600080fd5b506102e1600d5481565b600154339061010090046001600160a01b0316811461046857604051630392679360e41b815260040160405180910390fd5b600654821161048a576040516302a5505160e31b815260040160405180910390fd5b600061049a426301e13380611d84565b9050808311156104fd5760405162461bcd60e51b8152602060048201526024808201527f43616e6e6f7420657874656e64206265796f6e64203120796561722066726f6d604482015263206e6f7760e01b60648201526084015b60405180910390fd5b5050600655565b61050c61194d565b336000908152600f6020526040812054600a54909147908390036105435760405163093e9fd360e41b815260040160405180910390fd5b6003821061056657604051633783cd4d60e01b81523360048201526024016104f4565b6009541561065e576009546000908152601060205260409020600160038083015460ff169081111561059a5761059a611cf2565b1480156105b8575033600090815260068201602052604090205460ff165b1561065c57336000908152600782016020908152604080832054600885019092529091205460ff161561060457808260040160008282546105f99190611d9d565b9091555061061e9050565b808260050160008282546106189190611d9d565b90915550505b503360009081526006820160209081526040808320805460ff1990811690915560078501835281842084905560088501909252909120805490911690555b505b6000826000036106775750670de0b6b3a7640000610708565b826001036106a5576003610694670de0b6b3a76400006002611db0565b61069e9190611dc7565b9050610708565b826002036106c05761069e6003670de0b6b3a7640000611dc7565b60405162461bcd60e51b815260206004820152601760248201527f496e76616c6964206d696c6573746f6e6520737461746500000000000000000060448201526064016104f4565b6000670de0b6b3a764000061071d8387611db0565b6107279190611dc7565b905060006064610738600a84611db0565b6107429190611dc7565b905060006107508284611d9d565b905061075c8282611d84565b8510156107ab5760405162461bcd60e51b815260206004820152601d60248201527f496e73756666696369656e7420636f6e74726163742062616c616e636500000060448201526064016104f4565b6002546001600160a01b03166107fd5760405162461bcd60e51b8152602060048201526017602482015276496e76616c696420666163746f7279206164647265737360481b60448201526064016104f4565b336000908152600f60205260408120819055600880549161081d83611de9565b919050555086600c60008282546108349190611d84565b92505081905550866007600082825461084d9190611d9d565b9091555050600e54604051639730b30560e01b8152600481018990523360248201526001600160a01b0390911690639730b30590604401600060405180830381600087803b15801561089e57600080fd5b505af11580156108b2573d6000803e3d6000fd5b50506040516000925033915083908381818185875af1925050503d80600081146108f8576040519150601f19603f3d011682016040523d82523d6000602084013e6108fd565b606091505b5050905080610922576040516307a3b42f60e31b8152600481018390526024016104f4565b82156109a1576002546040516000916001600160a01b03169085908381818185875af1925050503d8060008114610975576040519150601f19603f3d011682016040523d82523d6000602084013e61097a565b606091505b505090508061099f576040516307a3b42f60e31b8152600481018590526024016104f4565b505b60408051838152602081018a90524291339130917f5749139e9f5fe7a54df1f192d7444e9779332fb6302cff722ec17659e98731b4910160405180910390a450505050505050506109f26001600055565b565b6109fc61194d565b60015460ff1615610a1f57604051629a157760e11b815260040160405180910390fd5b6006544210610a4057604051629a157760e11b815260040160405180910390fd5b6003600b5410610a6257604051629a157760e11b815260040160405180910390fd5b346000819003610a855760405163356680b760e01b815260040160405180910390fd5b336000908152600f60205260408120549003610ab15760088054906000610aab83611e00565b91905055505b336000908152600f602052604081208054839290610ad0908490611d84565b925050819055508060076000828254610ae99190611d84565b9091555050600e546040516340c10f1960e01b8152336004820152602481018390526001600160a01b03909116906340c10f1990604401600060405180830381600087803b158015610b3a57600080fd5b505af1158015610b4e573d6000803e3d6000fd5b505060405183815242925030915033907fbe0281dcb233d52d4d243d0d6ff4ed47e8641aecf85b98611ade1c9307186b7d9060200160405180910390a4506109f26001600055565b60015460ff1615610bba5760405163287e67e760e01b815260040160405180910390fd5b6006544210610bfe576001805460ff191681179055604051429030907fe8c6942b5fd4851c5d5f3928293eae5a0a0228eb48886d99b62886dfe573e7cb90600090a3565b60015461010090046001600160a01b03163314610c675760405162461bcd60e51b815260206004820152602160248201527f4f6e6c79206f776e65722063616e20656e642063616d706169676e206561726c6044820152607960f81b60648201526084016104f4565b6001805460ff191681179055604051429030907fe8c6942b5fd4851c5d5f3928293eae5a0a0228eb48886d99b62886dfe573e7cb90600090a3565b7ff0c57e16840df040f15088dc2f81fe391c3923bec73e23a9662efc9c229c6a008054600160401b810460ff16159067ffffffffffffffff16600081158015610ce85750825b905060008267ffffffffffffffff166001148015610d055750303b155b905081158015610d13575080155b15610d315760405163f92ee8a960e01b815260040160405180910390fd5b845467ffffffffffffffff191660011785558315610d5b57845460ff60401b1916600160401b1785555b336001600160a01b03891614610db35760405162461bcd60e51b815260206004820152601b60248201527f4f6e6c7920666163746f72792063616e20696e697469616c697a65000000000060448201526064016104f4565b6001600160a01b038816610e035760405162461bcd60e51b8152602060048201526017602482015276496e76616c696420666163746f7279206164647265737360481b60448201526064016104f4565b6001600160a01b038716610e515760405162461bcd60e51b8152602060048201526015602482015274496e76616c696420746f6b656e206164647265737360581b60448201526064016104f4565b6001600160a01b038616610e9f5760405162461bcd60e51b8152602060048201526015602482015274496e76616c6964206f776e6572206164647265737360581b60448201526064016104f4565b662386f26fc100008a1015610ef65760405162461bcd60e51b815260206004820152601860248201527f4d696e696d756d20676f616c20697320302e303120455448000000000000000060448201526064016104f4565b620151808910158015610f0d57506301e133808911155b610f595760405162461bcd60e51b815260206004820152601b60248201527f4475726174696f6e206d75737420626520312d3336352064617973000000000060448201526064016104f4565b8e8e60049182610f6a929190611ea4565b506003610f788d8f83611ea4565b50600280548c919060ff60a01b1916600160a01b836008811115610f9e57610f9e611cf2565b0217905550610fad8942611d84565b60065560058a9055600280546001600160a01b03808b166001600160a01b0319928316179092556001805489841661010002610100600160a81b0319909116179055600e8054928a1692909116919091178155600d55831561104957845460ff60401b19168555604051600181527fc7f505b2f371ae2175ee4913f4499e1f2633a7b5936321eed1cdaeb6115181d29060200160405180910390a15b505050505050505050505050505050565b61106261194d565b6009546000036110aa5760405162461bcd60e51b81526020600482015260136024820152724e6f206d696c6573746f6e652065786973747360681b60448201526064016104f4565b6009546000908152601060205260409020600160038083015460ff16908111156110d6576110d6611cf2565b146110f65760405163687ac16f60e01b81523360048201526024016104f4565b806002015442111561111b5760405163ceb9473560e01b815260040160405180910390fd5b336000908152600f60205260408120549081900361114c5760405163093e9fd360e41b815260040160405180910390fd5b33600090815260068301602052604090205460ff16156111815760405163e984dbfb60e01b81523360048201526024016104f4565b336000908152600783016020908152604080832084905560088501825280832080548715801560ff1992831617909255600687019093529220805490911660011790556111e757808260040160008282546111dc9190611d84565b909155506112019050565b808260050160008282546111fb9190611d84565b90915550505b6040514290309033907f835ab76283d31bbb9aef85ac068b9fb59cfef2cf1ae599c0e2388bc23fec43829061123b90889087908990611fe2565b60405180910390a4505061124f6001600055565b50565b61125a61194d565b600154339061010090046001600160a01b0316811461128c57604051630392679360e41b815260040160405180910390fd5b600b546009546000818152601060205260409020479190600384106112c457604051630df8303560e01b815260040160405180910390fd5b60015460ff166112e757604051637b0aa66360e11b815260040160405180910390fd5b831580156112f55750816001145b15611394576001818101805460ff19908116831790915560038084018054909216600217909155600a805483019055600b919091556000906113379085611dc7565b6003830154604051919250429130917f7337b3949834de6ef4d9764b36e6d1a5bfc0ccf606eac6392094306ccd9ade2e916113779160ff1690879061200c565b60405180910390a361138a816000611977565b50505050506115d5565b80600201544210156113b957604051639fc29f9d60e01b815260040160405180910390fd5b600160038083015460ff16908111156113d4576113d4611cf2565b146113f257604051638394b0f960e01b815260040160405180910390fd5b6004810154600582015460006114088284611d84565b905060008160000361141c57506001611437565b611427826002611db0565b611432856003611db0565b101590505b806114a2576003858101805460ff1990811683179091556001870180549091169055604051429130917f7337b3949834de6ef4d9764b36e6d1a5bfc0ccf606eac6392094306ccd9ade2e9161148d918a9061200c565b60405180910390a350505050505050506115d5565b60038501805460ff199081166002178255600180880180549092168117909155600a805482019055600b8054909101905554604051429130917f7337b3949834de6ef4d9764b36e6d1a5bfc0ccf606eac6392094306ccd9ade2e9161150e9160ff909116908a9061200c565b60405180910390a36000808960010361153f57600361152e8a6002611db0565b6115389190611dc7565b91506115b9565b6000600c546007546115519190611d9d565b905061155e606482611dc7565b915061156a828b611d9d565b6001805460ff191681179055604051909350429030907fe8c6942b5fd4851c5d5f3928293eae5a0a0228eb48886d99b62886dfe573e7cb90600090a381156115b7576115b7826001611977565b505b81156115ca576115ca826000611977565b505050505050505050505b506109f26001600055565b600154339061010090046001600160a01b0316811461161257604051630392679360e41b815260040160405180910390fd5b61161a61194d565b60008251116116615760405162461bcd60e51b8152602060048201526013602482015272115b5c1d1e481b5a5b195cdd1bdb994810d251606a1b60448201526064016104f4565b6001600954600090815260106020526040902060039081015460ff169081111561168d5761168d611cf2565b036116ab57604051636697d69d60e11b815260040160405180910390fd5b6003600b54106116ce576040516370206bfb60e11b815260040160405180910390fd5b600060095460016116df9190611d84565b600081815260106020526040902060038101805460ff191660011790559091508061170a8582612034565b5060018101805460ff19169055600d546117279062015180611db0565b6117319042611d84565b600282019081556000600483018190556005830155600983905554604051429133917f224ac17b3eb418fb512ed55f6ddb93018074c71f4ad405edb692c5c343b36801916117809189906120f4565b60405180910390a350506117946001600055565b5050565b6010602052600090815260409020805481906117b390611e19565b80601f01602080910402602001604051908101604052809291908181526020018280546117df90611e19565b801561182c5780601f106118015761010080835404028352916020019161182c565b820191906000526020600020905b81548152906001019060200180831161180f57829003601f168201915b5050506001840154600285015460038601546004870154600590970154959660ff938416969295509216925086565b600154339061010090046001600160a01b0316811461188d57604051630392679360e41b815260040160405180910390fd5b60008211801561189e5750605a8211155b6118ea5760405162461bcd60e51b815260206004820152601f60248201527f566f74696e6720706572696f64206d75737420626520312d393020646179730060448201526064016104f4565b60015460ff16156119475760405162461bcd60e51b815260206004820152602160248201527f43616e6e6f74206368616e67652061667465722063616d706169676e20656e646044820152607360f81b60648201526084016104f4565b50600d55565b60026000540361197057604051633ee5aeb560e01b815260040160405180910390fd5b6002600055565b6000816119845733611991565b6002546001600160a01b03165b90506000816001600160a01b03168460405160006040518083038185875af1925050503d80600081146119e0576040519150601f19603f3d011682016040523d82523d6000602084013e6119e5565b606091505b5050905080611a0a576040516307a3b42f60e31b8152600481018590526024016104f4565b336001600160a01b03831603611a5257604051848152429033907fe2038dd9686222ca5485ed1dfbeda896cbdd6e46857078dcf50058776988bdd59060200160405180910390a35b50505050565b600060208284031215611a6a57600080fd5b5035919050565b80356001600160a01b0381168114611a8857600080fd5b919050565b600060208284031215611a9f57600080fd5b611aa882611a71565b9392505050565b60008083601f840112611ac157600080fd5b50813567ffffffffffffffff811115611ad957600080fd5b602083019150836020828501011115611af157600080fd5b9250929050565b6000806000806000806000806000806101008b8d031215611b1857600080fd5b8a3567ffffffffffffffff80821115611b3057600080fd5b611b3c8e838f01611aaf565b909c509a5060208d0135915080821115611b5557600080fd5b50611b628d828e01611aaf565b90995097505060408b013560098110611b7a57600080fd5b955060608b0135945060808b01359350611b9660a08c01611a71565b9250611ba460c08c01611a71565b9150611bb260e08c01611a71565b90509295989b9194979a5092959850565b600060208284031215611bd557600080fd5b81358015158114611aa857600080fd5b634e487b7160e01b600052604160045260246000fd5b600060208284031215611c0d57600080fd5b813567ffffffffffffffff80821115611c2557600080fd5b818401915084601f830112611c3957600080fd5b813581811115611c4b57611c4b611be5565b604051601f8201601f19908116603f01168101908382118183101715611c7357611c73611be5565b81604052828152876020848701011115611c8c57600080fd5b826020860160208301376000928101602001929092525095945050505050565b6000815180845260005b81811015611cd257602081850181015186830182015201611cb6565b506000602082860101526020601f19601f83011685010191505092915050565b634e487b7160e01b600052602160045260246000fd5b60048110611d2657634e487b7160e01b600052602160045260246000fd5b9052565b60c081526000611d3d60c0830189611cac565b90508615156020830152856040830152611d5a6060830186611d08565b608082019390935260a00152949350505050565b634e487b7160e01b600052601160045260246000fd5b80820180821115611d9757611d97611d6e565b92915050565b81810381811115611d9757611d97611d6e565b8082028115828204841417611d9757611d97611d6e565b600082611de457634e487b7160e01b600052601260045260246000fd5b500490565b600081611df857611df8611d6e565b506000190190565b600060018201611e1257611e12611d6e565b5060010190565b600181811c90821680611e2d57607f821691505b602082108103611e4d57634e487b7160e01b600052602260045260246000fd5b50919050565b601f821115611e9f576000816000526020600020601f850160051c81016020861015611e7c5750805b601f850160051c820191505b81811015611e9b57828155600101611e88565b5050505b505050565b67ffffffffffffffff831115611ebc57611ebc611be5565b611ed083611eca8354611e19565b83611e53565b6000601f841160018114611f045760008515611eec5750838201355b600019600387901b1c1916600186901b178355611f5e565b600083815260209020601f19861690835b82811015611f355786850135825560209485019460019092019101611f15565b5086821015611f525760001960f88860031b161c19848701351681555b505060018560011b0183555b5050505050565b60008154611f7281611e19565b808552602060018381168015611f8f5760018114611fa957611fd7565b60ff1985168884015283151560051b880183019550611fd7565b866000528260002060005b85811015611fcf5781548a8201860152908301908401611fb4565b890184019650505b505050505092915050565b83151581528260208201526060604082015260006120036060830184611f65565b95945050505050565b6120168184611d08565b60406020820152600061202c6040830184611f65565b949350505050565b815167ffffffffffffffff81111561204e5761204e611be5565b6120628161205c8454611e19565b84611e53565b602080601f831160018114612097576000841561207f5750858301515b600019600386901b1c1916600185901b178555611e9b565b600085815260208120601f198616915b828110156120c6578886015182559484019460019091019084016120a7565b50858210156120e45787850151600019600388901b60f8161c191681555b5050505050600190811b01905550565b82815260406020820152600061202c6040830184611cac56fea164736f6c6343000818000a",
  "linkReferences": {},
  "deployedLinkReferences": {}
}