{
  "_format": "hh-sol-artifact-1",
  "contractName": "CrowdFunding",
  "sourceName": "contracts/CrowdFunding.sol",
  "abi": [
    {
      "inputs": [],
      "stateMutability": "nonpayable",
      "type": "constructor"
    },
    {
      "inputs": [],
      "name": "CamPaignEndedErrorNoLongerAcceptingDonations",
      "type": "error"
    },
    {
      "inputs": [],
      "name": "CampaignAlreadyEnded",
      "type": "error"
    },
    {
      "inputs": [],
      "name": "CampaignHasEnded",
      "type": "error"
    },
    {
      "inputs": [],
      "name": "CampaignStillRunning",
      "type": "error"
    },
    {
      "inputs": [
        {
          "internalType": "address",
          "name": "_address",
          "type": "address"
        }
      ],
      "name": "CanNotVoteOnMileStone",
      "type": "error"
    },
    {
      "inputs": [
        {
          "internalType": "address",
          "name": "_donorAddress",
          "type": "address"
        }
      ],
      "name": "CantWithdrawFundsCampaignEnded",
      "type": "error"
    },
    {
      "inputs": [],
      "name": "FundingGoalNotMet",
      "type": "error"
    },
    {
      "inputs": [],
      "name": "InsufficientFunds",
      "type": "error"
    },
    {
      "inputs": [],
      "name": "InvalidInitialization",
      "type": "error"
    },
    {
      "inputs": [],
      "name": "MaximumNumberofWithdrawalExceeded",
      "type": "error"
    },
    {
      "inputs": [],
      "name": "MileStoneVotingHasElapsed",
      "type": "error"
    },
    {
      "inputs": [],
      "name": "MileStoneVotingPeriodHasNotElapsed",
      "type": "error"
    },
    {
      "inputs": [],
      "name": "MilestoneHasEnded",
      "type": "error"
    },
    {
      "inputs": [],
      "name": "NewDurationSmallerThanPreviousDuration",
      "type": "error"
    },
    {
      "inputs": [],
      "name": "NotInitializing",
      "type": "error"
    },
    {
      "inputs": [],
      "name": "ReentrancyGuardReentrantCall",
      "type": "error"
    },
    {
      "inputs": [],
      "name": "TheMaximumMilestoneHaveBeenCreated",
      "type": "error"
    },
    {
      "inputs": [
        {
          "internalType": "uint256",
          "name": "amount",
          "type": "uint256"
        }
      ],
      "name": "WithdrawalFailed",
      "type": "error"
    },
    {
      "inputs": [],
      "name": "YouAreNotTheOwnerOfTheCampaign",
      "type": "error"
    },
    {
      "inputs": [],
      "name": "YouDidNotDonateToThisCampaign",
      "type": "error"
    },
    {
      "inputs": [],
      "name": "YouHaveAPendingMileStone",
      "type": "error"
    },
    {
      "inputs": [
        {
          "internalType": "address",
          "name": "_address",
          "type": "address"
        }
      ],
      "name": "YouHaveVotedForThisMilestoneAlready",
      "type": "error"
    },
    {
      "anonymous": false,
      "inputs": [
        {
          "indexed": true,
          "internalType": "address",
          "name": "project",
          "type": "address"
        },
        {
          "indexed": true,
          "internalType": "uint256",
          "name": "date",
          "type": "uint256"
        }
      ],
      "name": "CampaignEnded",
      "type": "event"
    },
    {
      "anonymous": false,
      "inputs": [
        {
          "indexed": true,
          "internalType": "address",
          "name": "donor",
          "type": "address"
        },
        {
          "indexed": false,
          "internalType": "uint256",
          "name": "amount",
          "type": "uint256"
        },
        {
          "indexed": true,
          "internalType": "address",
          "name": "project",
          "type": "address"
        },
        {
          "indexed": true,
          "internalType": "uint256",
          "name": "date",
          "type": "uint256"
        }
      ],
      "name": "DonationReceived",
      "type": "event"
    },
    {
      "anonymous": false,
      "inputs": [
        {
          "indexed": true,
          "internalType": "address",
          "name": "project",
          "type": "address"
        },
        {
          "indexed": true,
          "internalType": "address",
          "name": "donor",
          "type": "address"
        },
        {
          "indexed": false,
          "internalType": "uint256",
          "name": "amountReceived",
          "type": "uint256"
        },
        {
          "indexed": false,
          "internalType": "uint256",
          "name": "amountDonated",
          "type": "uint256"
        },
        {
          "indexed": true,
          "internalType": "uint256",
          "name": "date",
          "type": "uint256"
        }
      ],
      "name": "DonationWithdrawn",
      "type": "event"
    },
    {
      "anonymous": false,
      "inputs": [
        {
          "indexed": false,
          "internalType": "uint64",
          "name": "version",
          "type": "uint64"
        }
      ],
      "name": "Initialized",
      "type": "event"
    },
    {
      "anonymous": false,
      "inputs": [
        {
          "indexed": true,
          "internalType": "address",
          "name": "owner",
          "type": "address"
        },
        {
          "indexed": true,
          "internalType": "uint256",
          "name": "dateCreated",
          "type": "uint256"
        },
        {
          "indexed": false,
          "internalType": "uint256",
          "name": "period",
          "type": "uint256"
        },
        {
          "indexed": false,
          "internalType": "string",
          "name": "milestoneCID",
          "type": "string"
        }
      ],
      "name": "MilestoneCreated",
      "type": "event"
    },
    {
      "anonymous": false,
      "inputs": [
        {
          "indexed": true,
          "internalType": "address",
          "name": "project",
          "type": "address"
        },
        {
          "indexed": false,
          "internalType": "enum CrowdFunding.MilestoneStatus",
          "name": "status",
          "type": "uint8"
        },
        {
          "indexed": false,
          "internalType": "string",
          "name": "milestoneCID",
          "type": "string"
        },
        {
          "indexed": true,
          "internalType": "uint256",
          "name": "date",
          "type": "uint256"
        }
      ],
      "name": "MilestoneStatusUpdated",
      "type": "event"
    },
    {
      "anonymous": false,
      "inputs": [
        {
          "indexed": true,
          "internalType": "address",
          "name": "voter",
          "type": "address"
        },
        {
          "indexed": true,
          "internalType": "address",
          "name": "project",
          "type": "address"
        },
        {
          "indexed": false,
          "internalType": "bool",
          "name": "vote",
          "type": "bool"
        },
        {
          "indexed": true,
          "internalType": "uint256",
          "name": "date",
          "type": "uint256"
        }
      ],
      "name": "MilestoneVoted",
      "type": "event"
    },
    {
      "anonymous": false,
      "inputs": [
        {
          "indexed": true,
          "internalType": "address",
          "name": "owner",
          "type": "address"
        },
        {
          "indexed": false,
          "internalType": "uint256",
          "name": "amount",
          "type": "uint256"
        },
        {
          "indexed": true,
          "internalType": "uint256",
          "name": "date",
          "type": "uint256"
        }
      ],
      "name": "MilestoneWithdrawn",
      "type": "event"
    },
    {
      "anonymous": false,
      "inputs": [
        {
          "indexed": true,
          "internalType": "address",
          "name": "voter",
          "type": "address"
        },
        {
          "indexed": true,
          "internalType": "address",
          "name": "project",
          "type": "address"
        },
        {
          "indexed": false,
          "internalType": "bool",
          "name": "support",
          "type": "bool"
        },
        {
          "indexed": false,
          "internalType": "uint256",
          "name": "amount",
          "type": "uint256"
        },
        {
          "indexed": true,
          "internalType": "uint256",
          "name": "timestamp",
          "type": "uint256"
        },
        {
          "indexed": false,
          "internalType": "string",
          "name": "milestoneCID",
          "type": "string"
        }
      ],
      "name": "VotedOnMilestone",
      "type": "event"
    },
    {
      "inputs": [],
      "name": "campaignEnded",
      "outputs": [
        {
          "internalType": "bool",
          "name": "",
          "type": "bool"
        }
      ],
      "stateMutability": "view",
      "type": "function"
    },
    {
      "inputs": [],
      "name": "contractBalance",
      "outputs": [
        {
          "internalType": "uint256",
          "name": "",
          "type": "uint256"
        }
      ],
      "stateMutability": "view",
      "type": "function"
    },
    {
      "inputs": [
        {
          "internalType": "string",
          "name": "milestoneCID",
          "type": "string"
        }
      ],
      "name": "createNewMilestone",
      "outputs": [],
      "stateMutability": "nonpayable",
      "type": "function"
    },
    {
      "inputs": [],
      "name": "donationToken",
      "outputs": [
        {
          "internalType": "contract CrowdFundingToken",
          "name": "",
          "type": "address"
        }
      ],
      "stateMutability": "view",
      "type": "function"
    },
    {
      "inputs": [
        {
          "internalType": "address",
          "name": "",
          "type": "address"
        }
      ],
      "name": "donorScale",
      "outputs": [
        {
          "internalType": "uint256",
          "name": "",
          "type": "uint256"
        }
      ],
      "stateMutability": "view",
      "type": "function"
    },
    {
      "inputs": [
        {
          "internalType": "address",
          "name": "",
          "type": "address"
        }
      ],
      "name": "donors",
      "outputs": [
        {
          "internalType": "uint256",
          "name": "",
          "type": "uint256"
        }
      ],
      "stateMutability": "view",
      "type": "function"
    },
    {
      "inputs": [],
      "name": "endCampaign",
      "outputs": [],
      "stateMutability": "nonpayable",
      "type": "function"
    },
    {
      "inputs": [],
      "name": "getCampaignStats",
      "outputs": [
        {
          "internalType": "uint256",
          "name": "_amountDonated",
          "type": "uint256"
        },
        {
          "internalType": "uint256",
          "name": "_targetAmount",
          "type": "uint256"
        },
        {
          "internalType": "uint256",
          "name": "_numberOfDonors",
          "type": "uint256"
        },
        {
          "internalType": "uint256",
          "name": "_approvedMilestones",
          "type": "uint256"
        },
        {
          "internalType": "bool",
          "name": "_ended",
          "type": "bool"
        }
      ],
      "stateMutability": "view",
      "type": "function"
    },
    {
      "inputs": [],
      "name": "getFundingDetails",
      "outputs": [
        {
          "internalType": "address",
          "name": "",
          "type": "address"
        },
        {
          "internalType": "uint256",
          "name": "",
          "type": "uint256"
        },
        {
          "internalType": "uint256",
          "name": "",
          "type": "uint256"
        }
      ],
      "stateMutability": "view",
      "type": "function"
    },
    {
      "inputs": [],
      "name": "getWithdrawalTaxRate",
      "outputs": [
        {
          "internalType": "uint256",
          "name": "",
          "type": "uint256"
        }
      ],
      "stateMutability": "pure",
      "type": "function"
    },
    {
      "inputs": [],
      "name": "giveDonationToCause",
      "outputs": [],
      "stateMutability": "payable",
      "type": "function"
    },
    {
      "inputs": [
        {
          "internalType": "address",
          "name": "_donorAddress",
          "type": "address"
        }
      ],
      "name": "hasVotedOnMilestone",
      "outputs": [
        {
          "internalType": "bool",
          "name": "",
          "type": "bool"
        }
      ],
      "stateMutability": "view",
      "type": "function"
    },
    {
      "inputs": [
        {
          "internalType": "uint256",
          "name": "newPeriod",
          "type": "uint256"
        }
      ],
      "name": "increaseCampaignPeriod",
      "outputs": [],
      "stateMutability": "nonpayable",
      "type": "function"
    },
    {
      "inputs": [
        {
          "internalType": "string",
          "name": "_contractDetailsId",
          "type": "string"
        },
        {
          "internalType": "string",
          "name": "_title",
          "type": "string"
        },
        {
          "internalType": "enum CrowdFunding.Category",
          "name": "_category",
          "type": "uint8"
        },
        {
          "internalType": "uint256",
          "name": "_amount",
          "type": "uint256"
        },
        {
          "internalType": "uint256",
          "name": "_duration",
          "type": "uint256"
        },
        {
          "internalType": "address payable",
          "name": "_factoryAddress",
          "type": "address"
        },
        {
          "internalType": "address",
          "name": "_donationTokenAddress",
          "type": "address"
        },
        {
          "internalType": "address",
          "name": "_owner",
          "type": "address"
        }
      ],
      "name": "initialize",
      "outputs": [],
      "stateMutability": "nonpayable",
      "type": "function"
    },
    {
      "inputs": [
        {
          "internalType": "uint256",
          "name": "",
          "type": "uint256"
        }
      ],
      "name": "milestones",
      "outputs": [
        {
          "internalType": "string",
          "name": "milestoneCID",
          "type": "string"
        },
        {
          "internalType": "bool",
          "name": "approved",
          "type": "bool"
        },
        {
          "internalType": "uint256",
          "name": "votingPeriod",
          "type": "uint256"
        },
        {
          "internalType": "enum CrowdFunding.MilestoneStatus",
          "name": "status",
          "type": "uint8"
        },
        {
          "internalType": "uint256",
          "name": "supportVote",
          "type": "uint256"
        },
        {
          "internalType": "uint256",
          "name": "againstVote",
          "type": "uint256"
        }
      ],
      "stateMutability": "view",
      "type": "function"
    },
    {
      "inputs": [],
      "name": "retrieveDonatedAmount",
      "outputs": [],
      "stateMutability": "nonpayable",
      "type": "function"
    },
    {
      "inputs": [
        {
          "internalType": "uint256",
          "name": "newDays",
          "type": "uint256"
        }
      ],
      "name": "setVotingPeriod",
      "outputs": [],
      "stateMutability": "nonpayable",
      "type": "function"
    },
    {
      "inputs": [],
      "name": "totalVotesOnMilestone",
      "outputs": [
        {
          "internalType": "uint256",
          "name": "",
          "type": "uint256"
        },
        {
          "internalType": "uint256",
          "name": "",
          "type": "uint256"
        }
      ],
      "stateMutability": "view",
      "type": "function"
    },
    {
      "inputs": [
        {
          "internalType": "bool",
          "name": "support",
          "type": "bool"
        }
      ],
      "name": "voteOnMilestone",
      "outputs": [],
      "stateMutability": "nonpayable",
      "type": "function"
    },
    {
      "inputs": [],
      "name": "votingPeriodDays",
      "outputs": [
        {
          "internalType": "uint256",
          "name": "",
          "type": "uint256"
        }
      ],
      "stateMutability": "view",
      "type": "function"
    },
    {
      "inputs": [],
      "name": "withdrawMilestone",
      "outputs": [],
      "stateMutability": "nonpayable",
      "type": "function"
    },
    {
      "stateMutability": "payable",
      "type": "receive"
    }
  ],
  "bytecode": "0x608080604052346100bd5760016000557ff0c57e16840df040f15088dc2f81fe391c3923bec73e23a9662efc9c229c6a009081549060ff8260401c166100ae57506001600160401b036002600160401b031982821601610069575b60405161215290816100c38239f35b6001600160401b031990911681179091556040519081527fc7f505b2f371ae2175ee4913f4499e1f2633a7b5936321eed1cdaeb6115181d290602090a138808061005a565b63f92ee8a960e01b8152600490fd5b600080fdfe608080604052600436101561001d575b50361561001b57600080fd5b005b600090813560e01c9081630b228b30146118c7575080630df72159146118a0578063205db23714611855578063294b23a2146114685780633bc47fbe1461144557806341cf938a1461140a5780636eefa2dd146111cc57806371aac7f9146111b05780637d6492f6146109be578063858b85b3146109885780638b7afe2e1461096c5780639d2e941214610934578063ba53619314610742578063bf2928a614610705578063c5c22db1146106e9578063ca0cdea8146106b1578063d5330fb21461066c578063e0ae1b731461033b578063e89e4ed614610224578063ea0217cf1461012d5763ef9331d10361000f573461012a578060031936011261012a576020600d54604051908152f35b80fd5b503461012a57602036600319011261012a576004356001546001600160a01b038160081c16330361021257600d821180610207575b156101c35760ff1661017457600d5580f35b60405162461bcd60e51b815260206004820152602160248201527f43616e6e6f74206368616e67652061667465722063616d706169676e20656e646044820152607360f81b6064820152608490fd5b606460405162461bcd60e51b815260206004820152602060248201527f566f74696e6720706572696f64206d7573742062652031342d393020646179736044820152fd5b50605a821115610162565b604051630392679360e41b8152600490fd5b503461012a576020908160031936011261012a57600435815260128252604081206040519180825461025581611a4a565b8086529160019180831690811561031957506001146102df575b50505092610282836102bb950384611a0c565b60ff600183015416916102d1600282015460ff60038401541690600560048501549401549460405198899860c08a5260c08a0190611a84565b9615159088015260408701526060860190611ac4565b608084015260a08301520390f35b9592508386528286205b8287106103065750505061028283826102bb96820101929561026f565b80548688018501529583019581016102e9565b60ff191687890152505050151560051b830184019050610282836102bb61026f565b503461012a57602080600319360112610668576004359067ffffffffffffffff8083116106645736602384011215610664578260040135908460249461038084611a2e565b9361038e6040519586611a0c565b8085523687828401011161066057808787930183870137840101526001936001600160a01b03855460081c163303610212576103c86120b2565b82511561061d57600954908187526012855260ff600360408920015416600481101561060a5786146105f8576003600b5410156105e6578582018092116105d457818752601285526040872092600384019060ff1991888382541617905585519081116105c1576104398554611a4a565b601f8111610578575b5086601f821160011461051c579080610470928b91610511575b508160011b916000199060031b1c19161790565b84555b868401908154169055600d549062015180918281029281840414901517156104ff5750908660056104a76040959442611ae7565b93600281019485558260048201550155600955549281519384528301527f224ac17b3eb418fb512ed55f6ddb93018074c71f4ad405edb692c5c343b368014292806104f733946040830190611a84565b0390a3815580f35b634e487b7160e01b8852601160045287fd5b90508701513861045c565b858a52878a20899291601f1983168c5b8b8282106105625750508311610549575b5050811b018455610473565b88015160001960f88460031b161c19169055388061053d565b838c015185558d9690940193928301920161052c565b8560005287600020601f830160051c8101918984106105b7575b601f0160051c019089905b8281106105ab575050610442565b6000815501899061059d565b9091508190610592565b634e487b7160e01b895260416004528289fd5b634e487b7160e01b8752601160045286fd5b6040516370206bfb60e11b8152600490fd5b604051636697d69d60e11b8152600490fd5b50634e487b7160e01b8752602160045286fd5b8360136064926040519262461bcd60e51b845260048401528201527f456d707479206d696c6573746f6e6520434944000000000000000000000000006044820152fd5b8280fd5b8380fd5b5080fd5b503461012a578060031936011261012a5760a0600754600554600854600a549060ff600154169260405194855260208501526040840152606083015215156080820152f35b503461012a57602036600319011261012a5760406020916001600160a01b036106d861199e565b168152601083522054604051908152f35b503461012a578060031936011261012a576020604051600a8152f35b503461012a578060031936011261012a5761071e6120b2565b6001600160a01b0360015460081c1633036102125761073b611d2b565b6001815580f35b503461012a5760208060031936011261066857600435801515908181036106645761076b6120b2565b60095480156108ef57845260128352604084209260ff60038501541660048110156108db576001036108c357600284015442116108b15733855260108152604085205491821561089f57600685013360005280835260ff6040600020541661088757336000526007860183528360406000205560088601835260406000209060ff19918281541660ff881617905583526001604060002091825416179055600014610871576004840161081f838254611ae7565b90555b6040519283528201526060604082015242917f835ab76283d31bbb9aef85ac068b9fb59cfef2cf1ae599c0e2388bc23fec438230928061086733946060830190611c95565b0390a46001815580f35b60058401610880838254611ae7565b9055610822565b60405163e984dbfb60e01b8152336004820152602490fd5b60405163093e9fd360e41b8152600490fd5b60405163ceb9473560e01b8152600490fd5b60405163687ac16f60e01b8152336004820152602490fd5b634e487b7160e01b86526021600452602486fd5b60405162461bcd60e51b815260048101859052601360248201527f4e6f206d696c6573746f6e6520657869737473000000000000000000000000006044820152606490fd5b503461012a57602036600319011261012a5760406020916001600160a01b0361095b61199e565b168152601183522054604051908152f35b503461012a578060031936011261012a57602047604051908152f35b503461012a578060031936011261012a576040809160095481526012602052206005600482015491015482519182526020820152f35b503461012a5761010036600319011261012a5760043567ffffffffffffffff8111610668576109f19036906004016119b4565b919060243567ffffffffffffffff811161066057610a139036906004016119b4565b9390600960443510156106645760a4356001600160a01b039182821682036111ac5760c4359383851685036111a7578360e4351660e435036111a7577ff0c57e16840df040f15088dc2f81fe391c3923bec73e23a9662efc9c229c6a00549567ffffffffffffffff87161580611199575b600167ffffffffffffffff891614908161118f575b159081611186575b5061117457600167ffffffffffffffff198816177ff0c57e16840df040f15088dc2f81fe391c3923bec73e23a9662efc9c229c6a005560ff8760401c1615611135575b84841633036110f057610afa8585161515611b2a565b848616156110ab578460e435161561106657662386f26fc10000606435106110215762015180608435101580611011575b15610fcc5767ffffffffffffffff8211610fb857610b4a600454611a4a565b601f8111610f19575b508790601f8311600114610e9357610b839291899183610d4f575b50508160011b916000199060031b1c19161790565b6004555b67ffffffffffffffff8711610e7f57610ba1600354611a4a565b601f8111610de0575b508590601f8811600114610d5a579680610bdd92889960ff9992610d4f5750508160011b916000199060031b1c19161790565b6003555b600254610bf060843542611ae7565b600655606435600555828216907fffffffffffffffffffffff00000000000000000000000000000000000000000074ff000000000000000000000000000000000000000060443560a01b16911617176002556001547fffffffffffffffffffffff0000000000000000000000000000000000000000ff74ffffffffffffffffffffffffffffffffffffffff0060e43560081b16911617600155817fffffffffffffffffffffffff0000000000000000000000000000000000000000931683600e541617600e551690600f541617600f55600e600d5560401c1615610cd15780f35b68ff0000000000000000197ff0c57e16840df040f15088dc2f81fe391c3923bec73e23a9662efc9c229c6a0054167ff0c57e16840df040f15088dc2f81fe391c3923bec73e23a9662efc9c229c6a00557fc7f505b2f371ae2175ee4913f4499e1f2633a7b5936321eed1cdaeb6115181d2602060405160018152a180f35b013590503880610b6e565b600387527fc2575a0e9e593c00f959f8c92f12db2869c3395a3b0502d05e2516446f71f85b91601f198916885b818110610dc8575091600193918a60ff9a9b9410610dae575b505050811b01600355610be1565b0135600019600384901b60f8161c19169055388080610da0565b91936020600181928787013581550195019201610d87565b6003600052601f880160051c7fc2575a0e9e593c00f959f8c92f12db2869c3395a3b0502d05e2516446f71f85b0160208910610e58575b601f820160051c7fc2575a0e9e593c00f959f8c92f12db2869c3395a3b0502d05e2516446f71f85b018110610e4c5750610baa565b60008155600101610e17565b507fc2575a0e9e593c00f959f8c92f12db2869c3395a3b0502d05e2516446f71f85b610e17565b634e487b7160e01b86526041600452602486fd5b600489528892917f8a35acfbc15ff81a39ae7d344fd709f28e8600b4aa8c65c6b64bfe7fe36bd19b91905b601f1984168510610f01576001945083601f19811610610ee7575b505050811b01600455610b87565b0135600019600384901b60f8161c19169055388080610ed9565b81810135835560209485019460019093019201610ebe565b6004600052601f830160051c7f8a35acfbc15ff81a39ae7d344fd709f28e8600b4aa8c65c6b64bfe7fe36bd19b0160208410610f91575b601f820160051c7f8a35acfbc15ff81a39ae7d344fd709f28e8600b4aa8c65c6b64bfe7fe36bd19b018110610f855750610b53565b60008155600101610f50565b507f8a35acfbc15ff81a39ae7d344fd709f28e8600b4aa8c65c6b64bfe7fe36bd19b610f50565b634e487b7160e01b88526041600452602488fd5b60405162461bcd60e51b815260206004820152601b60248201527f4475726174696f6e206d75737420626520312d333635206461797300000000006044820152606490fd5b506301e133806084351115610b2b565b60405162461bcd60e51b815260206004820152601860248201527f4d696e696d756d20676f616c20697320302e30312045544800000000000000006044820152606490fd5b60405162461bcd60e51b815260206004820152601560248201527f496e76616c6964206f776e6572206164647265737300000000000000000000006044820152606490fd5b60405162461bcd60e51b815260206004820152601560248201527f496e76616c696420746f6b656e206164647265737300000000000000000000006044820152606490fd5b60405162461bcd60e51b815260206004820152601b60248201527f4f6e6c7920666163746f72792063616e20696e697469616c697a6500000000006044820152606490fd5b68ffffffffffffffffff19871668010000000000000001177ff0c57e16840df040f15088dc2f81fe391c3923bec73e23a9662efc9c229c6a0055610ae4565b60405163f92ee8a960e01b8152600490fd5b90501538610aa1565b303b159150610a99565b5060ff8760401c1615610a84565b600080fd5b8580fd5b503461012a578060031936011261012a576111c9611ba6565b80f35b508060031936011261012a576111e06120b2565b60ff600154166113f9576006544210156113f9576003600b5410156113f95734156113e7576001600160a01b0380600f541690604051809263374ebafb60e21b825281600460209586935afa9081156113dc5784916113af575b5033845260108352604084205480611349575060085460001981146113355784929160016112a19201600855338452601185528060408520555b338452601085526040842061128a348254611ae7565b905561129834600754611ae7565b60075534611b17565b90600e541690813b156106605782916044839260405194859384926340c10f1960e01b845233600485015260248401525af1801561132a57611316575b50506040519034825242917fbe0281dcb233d52d4d243d0d6ff4ed47e8641aecf85b98611ade1c9307186b7d30923392a46001815580f35b61131f906119e2565b6106685781386112de565b6040513d84823e3d90fd5b634e487b7160e01b85526011600452602485fd5b91906011845261137a61136a60408720546113643487611ae7565b95611b17565b6113748334611b17565b90611ae7565b9083156113995785936112a19233865260118752046040852055611274565b634e487b7160e01b600052601260045260246000fd5b90508281813d83116113d5575b6113c68183611a0c565b8101031261066457513861123a565b503d6113bc565b6040513d86823e3d90fd5b60405163356680b760e01b8152600490fd5b604051629a157760e11b8152600490fd5b503461012a578060031936011261012a5760606001600160a01b0360015460081c166006546005549060405192835260208301526040820152f35b503461012a578060031936011261012a57602060ff600154166040519015158152f35b503461012a578060031936011261012a576114816120b2565b3381526020601081526040822054600a54914792821561089f57600381101561183d5760095480611768575b50806116e05750670de0b6b3a76400006114c8815b84611b17565b04600a8102818104600a14821517156116cc5760646114e991048092611b0a565b936114f48286611ae7565b11611687576001600160a01b0361151081600254161515611b2a565b338652601083528560408120556008548015611673576000190160085561153984600c54611ae7565b600c5561154884600754611b0a565b6007553386526011835285611561604082205486611b17565b82600e5416803b1561066057604483926040519485938492639730b30560e01b845260048401523360248401525af1801561166857611655575b50338652601183528560408120558580808088335af16115b9611b76565b501561163c57859082611604575b505050604051928352820152429033907f5749139e9f5fe7a54df1f192d7444e9779332fb6302cff722ec17659e98731b460403092a46001815580f35b8180848193600254165af1611617611b76565b50156116245784816115c7565b602490604051906307a3b42f60e31b82526004820152fd5b6040516307a3b42f60e31b815260048101869052602490fd5b611661909691966119e2565b943861159b565b6040513d89823e3d90fd5b634e487b7160e01b87526011600452602487fd5b60405162461bcd60e51b815260048101839052601d60248201527f496e73756666696369656e7420636f6e74726163742062616c616e63650000006044820152606490fd5b634e487b7160e01b86526011600452602486fd5b600181036117035750670de0b6b3a76400006114c867094079cd1a42aaaa6114c2565b60020361172457670de0b6b3a76400006114c86704a03ce68d2155556114c2565b6064906040519062461bcd60e51b82526004820152601760248201527f496e76616c6964206d696c6573746f6e652073746174650000000000000000006044820152fd5b8552601282526040852060ff60038201541660048110156118295760011480611812575b156114ad5760078101903387528184526006604088205491600881019283875260ff60408b2054166000146117fc576117ca60048301918254611b0a565b90555b338952018452604087209160ff19928381541690558452866040812055835260408620908154169055386114ad565b61180b60058301918254611b0a565b90556117cd565b5033865260068101835260ff60408720541661178c565b634e487b7160e01b87526021600452602487fd5b604051633783cd4d60e01b8152336004820152602490fd5b503461012a57602036600319011261012a5760ff604060209261187661199e565b6009548252601285526001600160a01b036006848420019116825284522054166040519015158152f35b503461012a578060031936011261012a5760206001600160a01b03600e5416604051908152f35b90503461066857602036600319011261066857600435906001600160a01b0360015460081c16330361198f575060065481111561197d576301e1338042018042116119695781116119185760065580f35b60405162461bcd60e51b8152602060048201526024808201527f43616e6e6f7420657874656e64206265796f6e64203120796561722066726f6d604482015263206e6f7760e01b6064820152608490fd5b634e487b7160e01b83526011600452602483fd5b6040516302a5505160e31b8152600490fd5b630392679360e41b8152600490fd5b600435906001600160a01b03821682036111a757565b9181601f840112156111a75782359167ffffffffffffffff83116111a757602083818601950101116111a757565b67ffffffffffffffff81116119f657604052565b634e487b7160e01b600052604160045260246000fd5b90601f8019910116810190811067ffffffffffffffff8211176119f657604052565b67ffffffffffffffff81116119f657601f01601f191660200190565b90600182811c92168015611a7a575b6020831014611a6457565b634e487b7160e01b600052602260045260246000fd5b91607f1691611a59565b919082519283825260005b848110611ab0575050826000602080949584010152601f8019910116010190565b602081830181015184830182015201611a8f565b906004821015611ad15752565b634e487b7160e01b600052602160045260246000fd5b91908201809211611af457565b634e487b7160e01b600052601160045260246000fd5b91908203918211611af457565b81810292918115918404141715611af457565b15611b3157565b60405162461bcd60e51b815260206004820152601760248201527f496e76616c696420666163746f727920616464726573730000000000000000006044820152606490fd5b3d15611ba1573d90611b8782611a2e565b91611b956040519384611a0c565b82523d6000602084013e565b606090565b6001805460ff8116611c83578190600654421015611c535750546001600160a01b038160081c163303611c045760ff19168117905542307fe8c6942b5fd4851c5d5f3928293eae5a0a0228eb48886d99b62886dfe573e7cb600080a3565b60405162461bcd60e51b815260206004820152602160248201527f4f6e6c79206f776e65722063616e20656e642063616d706169676e206561726c6044820152607960f81b6064820152608490fd5b60ff191617905542307fe8c6942b5fd4851c5d5f3928293eae5a0a0228eb48886d99b62886dfe573e7cb600080a3565b60405163287e67e760e01b8152600490fd5b805460009392611ca482611a4a565b91828252602093600191600181169081600014611d0c5750600114611ccb575b5050505050565b90939495506000929192528360002092846000945b838610611cf857505050500101903880808080611cc4565b805485870183015294019385908201611ce0565b60ff19168685015250505090151560051b010191503880808080611cc4565b600b5460095460008181526012602052604080822060039447949192868210156120a25760019260ff84541615612091578383159182612087575b50506120065760028401544210611ff6578684019182549460ff86169560049687811015611fe3578603611fd35786820154611da6600584015482611ae7565b9081611f9b575050855b15611f3d575090849160ff801995600287825416178155848301858882541617905584600a5401600a5584600b5401600b55541690611df185518093611ac4565b8460208301527f7337b3949834de6ef4d9764b36e6d1a5bfc0ccf606eac6392094306ccd9ade2e429280611e29309489830190611c95565b0390a303611e6f57505083901b9280840460021490151715611e5c575050045b80611e515750565b611e5a906120d5565b565b634e487b7160e01b825260119052602490fd5b93929180919650611e866064600754048097611b0a565b9681541617905542307fe8c6942b5fd4851c5d5f3928293eae5a0a0228eb48886d99b62886dfe573e7cb8480a383611ec2575b50505050611e49565b6001600160a01b03600254169180808087865af1611ede611b76565b5015611f2657503314611ef3575b8080611eb9565b5190815242907fe2038dd9686222ca5485ed1dfbeda896cbdd6e46857078dcf50058776988bdd560203392a33880611eec565b82516307a3b42f60e31b8152908101849052602490fd5b9493929750979450507f7337b3949834de6ef4d9764b36e6d1a5bfc0ccf606eac6392094306ccd9ade2e94508360ff198094161790558501908154169055825190815282602082015280611f9642953095830190611c95565b0390a3565b8b8102908082048d1490151715611fc05781881b918204600203611fc0571015611db0565b634e487b7160e01b8a526011895260248afd5b8351638394b0f960e01b81528790fd5b634e487b7160e01b895260218852602489fd5b51639fc29f9d60e01b8152600490fd5b91611e5a969594507f7337b3949834de6ef4d9764b36e6d1a5bfc0ccf606eac6392094306ccd9ade2e91508060ff91850190821991818382541617905560028887019283541617825580600a5401600a55600b55541661206883518092611ac4565b8260208201528061207e42953095830190611c95565b0390a3046120d5565b1490508338611d66565b8151637b0aa66360e11b8152600490fd5b51630df8303560e01b8152600490fd5b6002600054146120c3576002600055565b604051633ee5aeb560e01b8152600490fd5b600080808084335af16120e6611b76565b50156116245760405190815242907fe2038dd9686222ca5485ed1dfbeda896cbdd6e46857078dcf50058776988bdd560203392a356fea2646970667358221220091fe68d1865e1c355a4e7ca224f08e1a417714bb18110eeb7bdf2ba4d39183564736f6c63430008180033",
  "linkReferences": {},
  "deployedLinkReferences": {}
}