{
  "_format": "hh-sol-artifact-1",
  "contractName": "CrowdFundingFactory",
  "sourceName": "contracts/CrowdFundingFactory.sol",
  "abi": [
    {
      "inputs": [
        {
          "internalType": "address",
          "name": "_implementation",
          "type": "address"
        },
        {
          "internalType": "address",
          "name": "_donationTokenAddress",
          "type": "address"
        }
      ],
      "stateMutability": "nonpayable",
      "type": "constructor"
    },
    {
      "inputs": [],
      "name": "CreateFundingContractFailed",
      "type": "error"
    },
    {
      "inputs": [],
      "name": "ERC1167FailedCreateClone",
      "type": "error"
    },
    {
      "inputs": [],
      "name": "FundingForNewContractTooSmall",
      "type": "error"
    },
    {
      "inputs": [],
      "name": "InvalidCategory",
      "type": "error"
    },
    {
      "inputs": [],
      "name": "InvalidFee",
      "type": "error"
    },
    {
      "inputs": [],
      "name": "NoFundsToWithdraw",
      "type": "error"
    },
    {
      "inputs": [
        {
          "internalType": "address",
          "name": "owner",
          "type": "address"
        }
      ],
      "name": "OwnableInvalidOwner",
      "type": "error"
    },
    {
      "inputs": [
        {
          "internalType": "address",
          "name": "account",
          "type": "address"
        }
      ],
      "name": "OwnableUnauthorizedAccount",
      "type": "error"
    },
    {
      "inputs": [],
      "name": "WithdrawalFailed",
      "type": "error"
    },
    {
      "anonymous": false,
      "inputs": [
        {
          "indexed": false,
          "internalType": "uint256",
          "name": "oldFee",
          "type": "uint256"
        },
        {
          "indexed": false,
          "internalType": "uint256",
          "name": "newFee",
          "type": "uint256"
        }
      ],
      "name": "FundingFeeUpdated",
      "type": "event"
    },
    {
      "anonymous": false,
      "inputs": [
        {
          "indexed": true,
          "internalType": "address",
          "name": "owner",
          "type": "address"
        },
        {
          "indexed": false,
          "internalType": "uint256",
          "name": "amount",
          "type": "uint256"
        }
      ],
      "name": "FundsWithdrawn",
      "type": "event"
    },
    {
      "anonymous": false,
      "inputs": [
        {
          "indexed": true,
          "internalType": "address",
          "name": "owner",
          "type": "address"
        },
        {
          "indexed": true,
          "internalType": "address",
          "name": "contractAddress",
          "type": "address"
        },
        {
          "indexed": false,
          "internalType": "string",
          "name": "contractDetailsId",
          "type": "string"
        },
        {
          "indexed": true,
          "internalType": "string",
          "name": "title",
          "type": "string"
        },
        {
          "indexed": false,
          "internalType": "uint8",
          "name": "category",
          "type": "uint8"
        },
        {
          "indexed": false,
          "internalType": "uint256",
          "name": "duration",
          "type": "uint256"
        },
        {
          "indexed": false,
          "internalType": "uint256",
          "name": "goal",
          "type": "uint256"
        }
      ],
      "name": "NewCrowdFundingContractCreated",
      "type": "event"
    },
    {
      "anonymous": false,
      "inputs": [
        {
          "indexed": true,
          "internalType": "address",
          "name": "previousOwner",
          "type": "address"
        },
        {
          "indexed": true,
          "internalType": "address",
          "name": "newOwner",
          "type": "address"
        }
      ],
      "name": "OwnershipTransferred",
      "type": "event"
    },
    {
      "inputs": [
        {
          "internalType": "string",
          "name": "_contractDetailsId",
          "type": "string"
        },
        {
          "internalType": "enum CrowdFundingFactory.Category",
          "name": "_category",
          "type": "uint8"
        },
        {
          "internalType": "string",
          "name": "_title",
          "type": "string"
        },
        {
          "internalType": "uint256",
          "name": "_goal",
          "type": "uint256"
        },
        {
          "internalType": "uint256",
          "name": "_duration",
          "type": "uint256"
        }
      ],
      "name": "createNewCrowdFundingContract",
      "outputs": [
        {
          "internalType": "address",
          "name": "",
          "type": "address"
        }
      ],
      "stateMutability": "payable",
      "type": "function"
    },
    {
      "inputs": [],
      "name": "donationToken",
      "outputs": [
        {
          "internalType": "contract CrowdFundingToken",
          "name": "",
          "type": "address"
        }
      ],
      "stateMutability": "view",
      "type": "function"
    },
    {
      "inputs": [],
      "name": "getBalance",
      "outputs": [
        {
          "internalType": "uint256",
          "name": "",
          "type": "uint256"
        }
      ],
      "stateMutability": "view",
      "type": "function"
    },
    {
      "inputs": [
        {
          "internalType": "address",
          "name": "owner",
          "type": "address"
        }
      ],
      "name": "getCampaignsByOwner",
      "outputs": [
        {
          "internalType": "address[]",
          "name": "",
          "type": "address[]"
        }
      ],
      "stateMutability": "view",
      "type": "function"
    },
    {
      "inputs": [],
      "name": "getDeployedCrowdFundingContracts",
      "outputs": [
        {
          "internalType": "address[]",
          "name": "",
          "type": "address[]"
        }
      ],
      "stateMutability": "view",
      "type": "function"
    },
    {
      "inputs": [],
      "name": "getFundingFee",
      "outputs": [
        {
          "internalType": "uint256",
          "name": "",
          "type": "uint256"
        }
      ],
      "stateMutability": "view",
      "type": "function"
    },
    {
      "inputs": [],
      "name": "owner",
      "outputs": [
        {
          "internalType": "address",
          "name": "",
          "type": "address"
        }
      ],
      "stateMutability": "view",
      "type": "function"
    },
    {
      "inputs": [
        {
          "internalType": "address",
          "name": "",
          "type": "address"
        },
        {
          "internalType": "uint256",
          "name": "",
          "type": "uint256"
        }
      ],
      "name": "ownerToCampaigns",
      "outputs": [
        {
          "internalType": "address",
          "name": "",
          "type": "address"
        }
      ],
      "stateMutability": "view",
      "type": "function"
    },
    {
      "inputs": [],
      "name": "renounceOwnership",
      "outputs": [],
      "stateMutability": "nonpayable",
      "type": "function"
    },
    {
      "inputs": [
        {
          "internalType": "uint256",
          "name": "_newFee",
          "type": "uint256"
        }
      ],
      "name": "setFundingFee",
      "outputs": [],
      "stateMutability": "nonpayable",
      "type": "function"
    },
    {
      "inputs": [
        {
          "internalType": "address",
          "name": "newOwner",
          "type": "address"
        }
      ],
      "name": "transferOwnership",
      "outputs": [],
      "stateMutability": "nonpayable",
      "type": "function"
    },
    {
      "inputs": [],
      "name": "withdrawFunds",
      "outputs": [],
      "stateMutability": "nonpayable",
      "type": "function"
    },
    {
      "stateMutability": "payable",
      "type": "receive"
    }
  ],
  "bytecode": "0x60a0604052633b9aca0060035534801561001857600080fd5b50604051610e8c380380610e8c83398101604081905261003791610152565b338061005e57604051631e4fbdf760e01b8152600060048201526024015b60405180910390fd5b610067816100e6565b506001600160a01b0382166100be5760405162461bcd60e51b815260206004820152601e60248201527f496e76616c696420696d706c656d656e746174696f6e206164647265737300006044820152606401610055565b6001600160a01b03918216608052600480546001600160a01b03191691909216179055610185565b600080546001600160a01b038381166001600160a01b0319831681178455604051919092169283917f8be0079c531659141344cd1fd0a4f28419497f9722a3daafe3b4186f6b6457e09190a35050565b80516001600160a01b038116811461014d57600080fd5b919050565b6000806040838503121561016557600080fd5b61016e83610136565b915061017c60208401610136565b90509250929050565b608051610cec6101a0600039600061060d0152610cec6000f3fe6080604052600436106100ab5760003560e01c80638da5cb5b116100645780638da5cb5b1461017f578063ae3063191461019d578063b4be88f3146101bd578063cb5e02f5146101d2578063f2fde38b146101e5578063f9ed8ead1461020557600080fd5b80630df72159146100b757806312065fe0146100f457806324600fc3146101115780633a88cc851461012857806351bdebb91461013d578063715018a61461016a57600080fd5b366100b257005b600080fd5b3480156100c357600080fd5b506004546100d7906001600160a01b031681565b6040516001600160a01b0390911681526020015b60405180910390f35b34801561010057600080fd5b50475b6040519081526020016100eb565b34801561011d57600080fd5b50610126610225565b005b34801561013457600080fd5b50600354610103565b34801561014957600080fd5b5061015d6101583660046109df565b610316565b6040516100eb9190610a01565b34801561017657600080fd5b5061012661038c565b34801561018b57600080fd5b506000546001600160a01b03166100d7565b3480156101a957600080fd5b506101266101b8366004610a4e565b6103a0565b3480156101c957600080fd5b5061015d610416565b6100d76101e0366004610b0a565b610478565b3480156101f157600080fd5b506101266102003660046109df565b610863565b34801561021157600080fd5b506100d7610220366004610b98565b6108a1565b61022d6108d9565b476000819003610250576040516367e3990d60e01b815260040160405180910390fd5b600080546040516001600160a01b039091169083908381818185875af1925050503d806000811461029d576040519150601f19603f3d011682016040523d82523d6000602084013e6102a2565b606091505b50509050806102c4576040516327fcd9d160e01b815260040160405180910390fd5b6000546001600160a01b03166001600160a01b03167feaff4b37086828766ad3268786972c0cd24259d4c87a80f9d3963a3c3d999b0d8360405161030a91815260200190565b60405180910390a25050565b6001600160a01b03811660009081526005602090815260409182902080548351818402810184019094528084526060939283018282801561038057602002820191906000526020600020905b81546001600160a01b03168152600190910190602001808311610362575b50505050509050919050565b6103946108d9565b61039e6000610906565b565b6103a86108d9565b670de0b6b3a76400008111156103d1576040516358d620b360e01b815260040160405180910390fd5b600380549082905560408051828152602081018490527fb2743902575ffdab882dfa43a3501f82fbbefa0d2c637e393aed1e80e2cb840b910160405180910390a15050565b6060600180548060200260200160405190810160405280929190818152602001828054801561046e57602002820191906000526020600020905b81546001600160a01b03168152600190910190602001808311610450575b5050505050905090565b6000808651116104cf5760405162461bcd60e51b815260206004820152601960248201527f456d70747920636f6e74726163742064657461696c732049440000000000000060448201526064015b60405180910390fd5b600084511161050e5760405162461bcd60e51b815260206004820152600b60248201526a456d707479207469746c6560a81b60448201526064016104c6565b6000831161055e5760405162461bcd60e51b815260206004820152601b60248201527f476f616c206d7573742062652067726561746572207468616e2030000000000060448201526064016104c6565b600082116105ae5760405162461bcd60e51b815260206004820152601f60248201527f4475726174696f6e206d7573742062652067726561746572207468616e20300060448201526064016104c6565b600885818111156105c1576105c1610bc2565b60ff1611156105e357604051636b3ac97b60e11b815260040160405180910390fd5b60035434101561060657604051636686da2160e11b815260040160405180910390fd5b60006106317f0000000000000000000000000000000000000000000000000000000000000000610956565b90506000878688600881111561064957610649610bc2565b600454604051610672949392918a918a9130916001600160a01b03909116903390602401610c28565b60408051601f198184030181529181526020820180516001600160e01b0316633eb2497b60e11b179052519091506000906001600160a01b038416906106b9908490610c91565b6000604051808303816000865af19150503d80600081146106f6576040519150601f19603f3d011682016040523d82523d6000602084013e6106fb565b606091505b505090508061071d5760405163cba601e360e01b815260040160405180910390fd5b6001805480820182557fb10e2d527612073b26eecdfd717e6a320cf44b4afac2b0732d9fcbe2b7fa0cf60180546001600160a01b03199081166001600160a01b03878116918217909355336000908152600560209081526040808320805497880181558352912090940180549092168117909155600480549351632614659f60e21b815290810191909152911690639851967c90602401600060405180830381600087803b1580156107ce57600080fd5b505af11580156107e2573d6000803e3d6000fd5b50505050866040516107f49190610c91565b6040519081900390206001600160a01b038416337fff1332e9603156064c04f8155bf5371aaa2e993afb3ca17a7c2f2ef582a6c0738c8c600881111561083c5761083c610bc2565b8a8c60405161084e9493929190610cad565b60405180910390a45090979650505050505050565b61086b6108d9565b6001600160a01b03811661089557604051631e4fbdf760e01b8152600060048201526024016104c6565b61089e81610906565b50565b600560205281600052604060002081815481106108bd57600080fd5b6000918252602090912001546001600160a01b03169150829050565b6000546001600160a01b0316331461039e5760405163118cdaa760e01b81523360048201526024016104c6565b600080546001600160a01b038381166001600160a01b0319831681178455604051919092169283917f8be0079c531659141344cd1fd0a4f28419497f9722a3daafe3b4186f6b6457e09190a35050565b6000763d602d80600a3d3981f3363d3d373d3d3d363d730000008260601b60e81c176000526e5af43d82803e903d91602b57fd5bf38260781b17602052603760096000f090506001600160a01b0381166109c3576040516330be1a3d60e21b815260040160405180910390fd5b919050565b80356001600160a01b03811681146109c357600080fd5b6000602082840312156109f157600080fd5b6109fa826109c8565b9392505050565b6020808252825182820181905260009190848201906040850190845b81811015610a425783516001600160a01b031683529284019291840191600101610a1d565b50909695505050505050565b600060208284031215610a6057600080fd5b5035919050565b634e487b7160e01b600052604160045260246000fd5b600082601f830112610a8e57600080fd5b813567ffffffffffffffff80821115610aa957610aa9610a67565b604051601f8301601f19908116603f01168101908282118183101715610ad157610ad1610a67565b81604052838152866020858801011115610aea57600080fd5b836020870160208301376000602085830101528094505050505092915050565b600080600080600060a08688031215610b2257600080fd5b853567ffffffffffffffff80821115610b3a57600080fd5b610b4689838a01610a7d565b96506020880135915060098210610b5c57600080fd5b90945060408701359080821115610b7257600080fd5b50610b7f88828901610a7d565b9598949750949560608101359550608001359392505050565b60008060408385031215610bab57600080fd5b610bb4836109c8565b946020939093013593505050565b634e487b7160e01b600052602160045260246000fd5b60005b83811015610bf3578181015183820152602001610bdb565b50506000910152565b60008151808452610c14816020860160208601610bd8565b601f01601f19169290920160200192915050565b6000610100808352610c3c8184018c610bfc565b90508281036020840152610c50818b610bfc565b60ff9990991660408401525050606081019590955260808501939093526001600160a01b0391821660a0850152811660c08401521660e09091015292915050565b60008251610ca3818460208701610bd8565b9190910192915050565b608081526000610cc06080830187610bfc565b60ff95909516602083015250604081019290925260609091015291905056fea164736f6c6343000818000a",
  "linkReferences": {},
  "deployedLinkReferences": {}
}