{
  "_format": "hh-sol-artifact-1",
  "contractName": "CrowdFundingToken",
  "sourceName": "contracts/CrowdFundingToken.sol",
  "abi": [
    {
      "inputs": [],
      "stateMutability": "nonpayable",
      "type": "constructor"
    },
    {
      "inputs": [
        {
          "internalType": "uint256",
          "name": "increasedSupply",
          "type": "uint256"
        },
        {
          "internalType": "uint256",
          "name": "cap",
          "type": "uint256"
        }
      ],
      "name": "ERC20ExceededCap",
      "type": "error"
    },
    {
      "inputs": [
        {
          "internalType": "address",
          "name": "spender",
          "type": "address"
        },
        {
          "internalType": "uint256",
          "name": "allowance",
          "type": "uint256"
        },
        {
          "internalType": "uint256",
          "name": "needed",
          "type": "uint256"
        }
      ],
      "name": "ERC20InsufficientAllowance",
      "type": "error"
    },
    {
      "inputs": [
        {
          "internalType": "address",
          "name": "sender",
          "type": "address"
        },
        {
          "internalType": "uint256",
          "name": "balance",
          "type": "uint256"
        },
        {
          "internalType": "uint256",
          "name": "needed",
          "type": "uint256"
        }
      ],
      "name": "ERC20InsufficientBalance",
      "type": "error"
    },
    {
      "inputs": [
        {
          "internalType": "address",
          "name": "approver",
          "type": "address"
        }
      ],
      "name": "ERC20InvalidApprover",
      "type": "error"
    },
    {
      "inputs": [
        {
          "internalType": "uint256",
          "name": "cap",
          "type": "uint256"
        }
      ],
      "name": "ERC20InvalidCap",
      "type": "error"
    },
    {
      "inputs": [
        {
          "internalType": "address",
          "name": "receiver",
          "type": "address"
        }
      ],
      "name": "ERC20InvalidReceiver",
      "type": "error"
    },
    {
      "inputs": [
        {
          "internalType": "address",
          "name": "sender",
          "type": "address"
        }
      ],
      "name": "ERC20InvalidSender",
      "type": "error"
    },
    {
      "inputs": [
        {
          "internalType": "address",
          "name": "spender",
          "type": "address"
        }
      ],
      "name": "ERC20InvalidSpender",
      "type": "error"
    },
    {
      "inputs": [
        {
          "internalType": "address",
          "name": "owner",
          "type": "address"
        }
      ],
      "name": "OwnableInvalidOwner",
      "type": "error"
    },
    {
      "inputs": [
        {
          "internalType": "address",
          "name": "account",
          "type": "address"
        }
      ],
      "name": "OwnableUnauthorizedAccount",
      "type": "error"
    },
    {
      "anonymous": false,
      "inputs": [
        {
          "indexed": true,
          "internalType": "address",
          "name": "owner",
          "type": "address"
        },
        {
          "indexed": true,
          "internalType": "address",
          "name": "spender",
          "type": "address"
        },
        {
          "indexed": false,
          "internalType": "uint256",
          "name": "value",
          "type": "uint256"
        }
      ],
      "name": "Approval",
      "type": "event"
    },
    {
      "anonymous": false,
      "inputs": [
        {
          "indexed": true,
          "internalType": "address",
          "name": "contractAddress",
          "type": "address"
        }
      ],
      "name": "CrowdfundingContractAdded",
      "type": "event"
    },
    {
      "anonymous": false,
      "inputs": [
        {
          "indexed": true,
          "internalType": "address",
          "name": "contractAddress",
          "type": "address"
        }
      ],
      "name": "CrowdfundingContractRemoved",
      "type": "event"
    },
    {
      "anonymous": false,
      "inputs": [
        {
          "indexed": true,
          "internalType": "address",
          "name": "previousOwner",
          "type": "address"
        },
        {
          "indexed": true,
          "internalType": "address",
          "name": "newOwner",
          "type": "address"
        }
      ],
      "name": "OwnershipTransferred",
      "type": "event"
    },
    {
      "anonymous": false,
      "inputs": [
        {
          "indexed": true,
          "internalType": "address",
          "name": "from",
          "type": "address"
        },
        {
          "indexed": true,
          "internalType": "address",
          "name": "to",
          "type": "address"
        },
        {
          "indexed": false,
          "internalType": "uint256",
          "name": "value",
          "type": "uint256"
        }
      ],
      "name": "Transfer",
      "type": "event"
    },
    {
      "inputs": [
        {
          "internalType": "address",
          "name": "_contract",
          "type": "address"
        }
      ],
      "name": "addCrowdfundingContract",
      "outputs": [],
      "stateMutability": "nonpayable",
      "type": "function"
    },
    {
      "inputs": [
        {
          "internalType": "address",
          "name": "owner",
          "type": "address"
        },
        {
          "internalType": "address",
          "name": "spender",
          "type": "address"
        }
      ],
      "name": "allowance",
      "outputs": [
        {
          "internalType": "uint256",
          "name": "",
          "type": "uint256"
        }
      ],
      "stateMutability": "view",
      "type": "function"
    },
    {
      "inputs": [
        {
          "internalType": "address",
          "name": "spender",
          "type": "address"
        },
        {
          "internalType": "uint256",
          "name": "value",
          "type": "uint256"
        }
      ],
      "name": "approve",
      "outputs": [
        {
          "internalType": "bool",
          "name": "",
          "type": "bool"
        }
      ],
      "stateMutability": "nonpayable",
      "type": "function"
    },
    {
      "inputs": [
        {
          "internalType": "address",
          "name": "account",
          "type": "address"
        }
      ],
      "name": "balanceOf",
      "outputs": [
        {
          "internalType": "uint256",
          "name": "",
          "type": "uint256"
        }
      ],
      "stateMutability": "view",
      "type": "function"
    },
    {
      "inputs": [
        {
          "internalType": "uint256",
          "name": "value",
          "type": "uint256"
        }
      ],
      "name": "burn",
      "outputs": [],
      "stateMutability": "nonpayable",
      "type": "function"
    },
    {
      "inputs": [
        {
          "internalType": "address",
          "name": "account",
          "type": "address"
        },
        {
          "internalType": "uint256",
          "name": "value",
          "type": "uint256"
        }
      ],
      "name": "burnFrom",
      "outputs": [],
      "stateMutability": "nonpayable",
      "type": "function"
    },
    {
      "inputs": [
        {
          "internalType": "uint256",
          "name": "amount",
          "type": "uint256"
        },
        {
          "internalType": "address",
          "name": "from",
          "type": "address"
        }
      ],
      "name": "burnTokens",
      "outputs": [],
      "stateMutability": "nonpayable",
      "type": "function"
    },
    {
      "inputs": [],
      "name": "cap",
      "outputs": [
        {
          "internalType": "uint256",
          "name": "",
          "type": "uint256"
        }
      ],
      "stateMutability": "view",
      "type": "function"
    },
    {
      "inputs": [
        {
          "internalType": "address",
          "name": "",
          "type": "address"
        }
      ],
      "name": "crowdfundingContracts",
      "outputs": [
        {
          "internalType": "bool",
          "name": "",
          "type": "bool"
        }
      ],
      "stateMutability": "view",
      "type": "function"
    },
    {
      "inputs": [],
      "name": "decimals",
      "outputs": [
        {
          "internalType": "uint8",
          "name": "",
          "type": "uint8"
        }
      ],
      "stateMutability": "view",
      "type": "function"
    },
    {
      "inputs": [
        {
          "internalType": "address",
          "name": "to",
          "type": "address"
        },
        {
          "internalType": "uint256",
          "name": "amount",
          "type": "uint256"
        }
      ],
      "name": "mint",
      "outputs": [],
      "stateMutability": "nonpayable",
      "type": "function"
    },
    {
      "inputs": [],
      "name": "name",
      "outputs": [
        {
          "internalType": "string",
          "name": "",
          "type": "string"
        }
      ],
      "stateMutability": "view",
      "type": "function"
    },
    {
      "inputs": [],
      "name": "owner",
      "outputs": [
        {
          "internalType": "address",
          "name": "",
          "type": "address"
        }
      ],
      "stateMutability": "view",
      "type": "function"
    },
    {
      "inputs": [
        {
          "internalType": "address",
          "name": "_contract",
          "type": "address"
        }
      ],
      "name": "removeCrowdfundingContract",
      "outputs": [],
      "stateMutability": "nonpayable",
      "type": "function"
    },
    {
      "inputs": [],
      "name": "renounceOwnership",
      "outputs": [],
      "stateMutability": "nonpayable",
      "type": "function"
    },
    {
      "inputs": [
        {
          "internalType": "address",
          "name": "_factoryAddress",
          "type": "address"
        }
      ],
      "name": "setFactoryAndTransferOwnership",
      "outputs": [],
      "stateMutability": "nonpayable",
      "type": "function"
    },
    {
      "inputs": [],
      "name": "symbol",
      "outputs": [
        {
          "internalType": "string",
          "name": "",
          "type": "string"
        }
      ],
      "stateMutability": "view",
      "type": "function"
    },
    {
      "inputs": [],
      "name": "totalSupply",
      "outputs": [
        {
          "internalType": "uint256",
          "name": "",
          "type": "uint256"
        }
      ],
      "stateMutability": "view",
      "type": "function"
    },
    {
      "inputs": [
        {
          "internalType": "address",
          "name": "to",
          "type": "address"
        },
        {
          "internalType": "uint256",
          "name": "value",
          "type": "uint256"
        }
      ],
      "name": "transfer",
      "outputs": [
        {
          "internalType": "bool",
          "name": "",
          "type": "bool"
        }
      ],
      "stateMutability": "nonpayable",
      "type": "function"
    },
    {
      "inputs": [
        {
          "internalType": "address",
          "name": "from",
          "type": "address"
        },
        {
          "internalType": "address",
          "name": "to",
          "type": "address"
        },
        {
          "internalType": "uint256",
          "name": "value",
          "type": "uint256"
        }
      ],
      "name": "transferFrom",
      "outputs": [
        {
          "internalType": "bool",
          "name": "",
          "type": "bool"
        }
      ],
      "stateMutability": "nonpayable",
      "type": "function"
    },
    {
      "inputs": [
        {
          "internalType": "address",
          "name": "newOwner",
          "type": "address"
        }
      ],
      "name": "transferOwnership",
      "outputs": [],
      "stateMutability": "nonpayable",
      "type": "function"
    }
  ],
  "bytecode": "0x60a06040523480156200001157600080fd5b50336b033b2e3c9fd0803ce80000006040518060400160405280601281526020017126aba3902237b730ba34b7b7102a37b5b2b760711b815250604051806040016040528060068152602001651355d1cb511560d21b81525081600390816200007b9190620001f1565b5060046200008a8282620001f1565b50505080600003620000b75760405163392e1e2760e01b8152600060048201526024015b60405180910390fd5b6080526001600160a01b038116620000e657604051631e4fbdf760e01b815260006004820152602401620000ae565b620000f181620000f8565b50620002bd565b600580546001600160a01b038381166001600160a01b0319831681179093556040519116919082907f8be0079c531659141344cd1fd0a4f28419497f9722a3daafe3b4186f6b6457e090600090a35050565b634e487b7160e01b600052604160045260246000fd5b600181811c908216806200017557607f821691505b6020821081036200019657634e487b7160e01b600052602260045260246000fd5b50919050565b601f821115620001ec576000816000526020600020601f850160051c81016020861015620001c75750805b601f850160051c820191505b81811015620001e857828155600101620001d3565b5050505b505050565b81516001600160401b038111156200020d576200020d6200014a565b62000225816200021e845462000160565b846200019c565b602080601f8311600181146200025d5760008415620002445750858301515b600019600386901b1c1916600185901b178555620001e8565b600085815260208120601f198616915b828110156200028e578886015182559484019460019091019084016200026d565b5085821015620002ad5787850151600019600388901b60f8161c191681555b5050505050600190811b01905550565b608051610e44620002e0600039600081816101b30152610afe0152610e446000f3fe608060405234801561001057600080fd5b50600436106101375760003560e01c8063715018a6116100b85780639851967c1161007c5780639851967c1461028c578063a9059cbb1461029f578063ba78dd4e146102b2578063dd62ed3e146102d5578063f2fde38b1461030e578063fe66aaf61461032157600080fd5b8063715018a61461023b57806379cc6790146102435780638da5cb5b1461025657806395d89b41146102715780639730b3051461027957600080fd5b8063355274ea116100ff578063355274ea146101b157806340c10f19146101d757806342966c68146101ec57806370a08231146101ff578063712a7ea51461022857600080fd5b806306fdde031461013c578063095ea7b31461015a57806318160ddd1461017d57806323b872dd1461018f578063313ce567146101a2575b600080fd5b610144610334565b6040516101519190610c7a565b60405180910390f35b61016d610168366004610ce5565b6103c6565b6040519015158152602001610151565b6002545b604051908152602001610151565b61016d61019d366004610d0f565b6103e0565b60405160128152602001610151565b7f0000000000000000000000000000000000000000000000000000000000000000610181565b6101ea6101e5366004610ce5565b610404565b005b6101ea6101fa366004610d4b565b6104d2565b61018161020d366004610d64565b6001600160a01b031660009081526020819052604090205490565b6101ea610236366004610d64565b6104df565b6101ea610530565b6101ea610251366004610ce5565b610544565b6005546040516001600160a01b039091168152602001610151565b610144610559565b6101ea610287366004610d86565b610568565b6101ea61029a366004610d64565b61062d565b61016d6102ad366004610ce5565b6106d7565b61016d6102c0366004610d64565b60066020526000908152604090205460ff1681565b6101816102e3366004610db2565b6001600160a01b03918216600090815260016020908152604080832093909416825291909152205490565b6101ea61031c366004610d64565b6106e5565b6101ea61032f366004610d64565b610720565b60606003805461034390610ddc565b80601f016020809104026020016040519081016040528092919081815260200182805461036f90610ddc565b80156103bc5780601f10610391576101008083540402835291602001916103bc565b820191906000526020600020905b81548152906001019060200180831161039f57829003601f168201915b5050505050905090565b6000336103d481858561082b565b60019150505b92915050565b6000336103ee85828561083d565b6103f98585856108bb565b506001949350505050565b3360009081526006602052604090205460ff166104745760405162461bcd60e51b8152602060048201526024808201527f4f6e6c792063726f776466756e64696e6720636f6e7472616374732063616e206044820152631b5a5b9d60e21b60648201526084015b60405180910390fd5b600081116104c45760405162461bcd60e51b815260206004820181905260248201527f416d6f756e74206d7573742062652067726561746572207468616e207a65726f604482015260640161046b565b6104ce828261091a565b5050565b6104dc3382610950565b50565b6104e7610986565b6001600160a01b038116600081815260066020526040808220805460ff19169055517f99a1cc644e31d1b7b8916aa392d3791e8186e8014313c2e1a300c5aebf355f579190a250565b610538610986565b61054260006109b3565b565b61054f82338361083d565b6104ce8282610950565b60606004805461034390610ddc565b3360009081526006602052604090205460ff166105d35760405162461bcd60e51b8152602060048201526024808201527f4f6e6c792063726f776466756e64696e6720636f6e7472616374732063616e20604482015263313ab93760e11b606482015260840161046b565b600082116106235760405162461bcd60e51b815260206004820181905260248201527f416d6f756e74206d7573742062652067726561746572207468616e207a65726f604482015260640161046b565b6104ce8183610950565b610635610986565b6001600160a01b03811661068b5760405162461bcd60e51b815260206004820152601860248201527f496e76616c696420636f6e747261637420616464726573730000000000000000604482015260640161046b565b6001600160a01b038116600081815260066020526040808220805460ff19166001179055517f6afa6d5e96f15ea2cd23ac300bdc27574c312ff76dd44b4c96ca807b12e453959190a250565b6000336103d48185856108bb565b6106ed610986565b6001600160a01b03811661071757604051631e4fbdf760e01b81526000600482015260240161046b565b6104dc816109b3565b610728610986565b60075460ff16156107715760405162461bcd60e51b8152602060048201526013602482015272119858dd1bdc9e48185b1c9958591e481cd95d606a1b604482015260640161046b565b6001600160a01b0381166107c75760405162461bcd60e51b815260206004820152601760248201527f496e76616c696420666163746f72792061646472657373000000000000000000604482015260640161046b565b60078054600160ff1991821681179092556001600160a01b038316600081815260066020526040808220805490941690941790925591517f6afa6d5e96f15ea2cd23ac300bdc27574c312ff76dd44b4c96ca807b12e453959190a26104dc816109b3565b6108388383836001610a05565b505050565b6001600160a01b0383811660009081526001602090815260408083209386168352929052205460001981146108b557818110156108a657604051637dc7a0d960e11b81526001600160a01b0384166004820152602481018290526044810183905260640161046b565b6108b584848484036000610a05565b50505050565b6001600160a01b0383166108e557604051634b637e8f60e11b81526000600482015260240161046b565b6001600160a01b03821661090f5760405163ec442f0560e01b81526000600482015260240161046b565b610838838383610ada565b6001600160a01b0382166109445760405163ec442f0560e01b81526000600482015260240161046b565b6104ce60008383610ada565b6001600160a01b03821661097a57604051634b637e8f60e11b81526000600482015260240161046b565b6104ce82600083610ada565b6005546001600160a01b031633146105425760405163118cdaa760e01b815233600482015260240161046b565b600580546001600160a01b038381166001600160a01b0319831681179093556040519116919082907f8be0079c531659141344cd1fd0a4f28419497f9722a3daafe3b4186f6b6457e090600090a35050565b6001600160a01b038416610a2f5760405163e602df0560e01b81526000600482015260240161046b565b6001600160a01b038316610a5957604051634a1406b160e11b81526000600482015260240161046b565b6001600160a01b03808516600090815260016020908152604080832093871683529290522082905580156108b557826001600160a01b0316846001600160a01b03167f8c5be1e5ebec7d5bd14f71427d1e84f3dd0314c0f7b2291e5b200ac8c7c3b92584604051610acc91815260200190565b60405180910390a350505050565b610838838383610aeb838383610b50565b6001600160a01b038316610838576002547f00000000000000000000000000000000000000000000000000000000000000009081811115610b495760405163279e7e1560e21b8152600481018290526024810183905260440161046b565b5050505050565b6001600160a01b038316610b7b578060026000828254610b709190610e16565b90915550610bed9050565b6001600160a01b03831660009081526020819052604090205481811015610bce5760405163391434e360e21b81526001600160a01b0385166004820152602481018290526044810183905260640161046b565b6001600160a01b03841660009081526020819052604090209082900390555b6001600160a01b038216610c0957600280548290039055610c28565b6001600160a01b03821660009081526020819052604090208054820190555b816001600160a01b0316836001600160a01b03167fddf252ad1be2c89b69c2b068fc378daa952ba7f163c4a11628f55a4df523b3ef83604051610c6d91815260200190565b60405180910390a3505050565b60006020808352835180602085015260005b81811015610ca857858101830151858201604001528201610c8c565b506000604082860101526040601f19601f8301168501019250505092915050565b80356001600160a01b0381168114610ce057600080fd5b919050565b60008060408385031215610cf857600080fd5b610d0183610cc9565b946020939093013593505050565b600080600060608486031215610d2457600080fd5b610d2d84610cc9565b9250610d3b60208501610cc9565b9150604084013590509250925092565b600060208284031215610d5d57600080fd5b5035919050565b600060208284031215610d7657600080fd5b610d7f82610cc9565b9392505050565b60008060408385031215610d9957600080fd5b82359150610da960208401610cc9565b90509250929050565b60008060408385031215610dc557600080fd5b610dce83610cc9565b9150610da960208401610cc9565b600181811c90821680610df057607f821691505b602082108103610e1057634e487b7160e01b600052602260045260246000fd5b50919050565b808201808211156103da57634e487b7160e01b600052601160045260246000fdfea164736f6c6343000818000a",
  "linkReferences": {},
  "deployedLinkReferences": {}
}