{
  "_format": "hh-sol-artifact-1",
  "contractName": "CrowdFundingToken",
  "sourceName": "contracts/CrowdFundingToken.sol",
  "abi": [
    {
      "inputs": [],
      "stateMutability": "nonpayable",
      "type": "constructor"
    },
    {
      "inputs": [
        {
          "internalType": "address",
          "name": "spender",
          "type": "address"
        },
        {
          "internalType": "uint256",
          "name": "allowance",
          "type": "uint256"
        },
        {
          "internalType": "uint256",
          "name": "needed",
          "type": "uint256"
        }
      ],
      "name": "ERC20InsufficientAllowance",
      "type": "error"
    },
    {
      "inputs": [
        {
          "internalType": "address",
          "name": "sender",
          "type": "address"
        },
        {
          "internalType": "uint256",
          "name": "balance",
          "type": "uint256"
        },
        {
          "internalType": "uint256",
          "name": "needed",
          "type": "uint256"
        }
      ],
      "name": "ERC20InsufficientBalance",
      "type": "error"
    },
    {
      "inputs": [
        {
          "internalType": "address",
          "name": "approver",
          "type": "address"
        }
      ],
      "name": "ERC20InvalidApprover",
      "type": "error"
    },
    {
      "inputs": [
        {
          "internalType": "address",
          "name": "receiver",
          "type": "address"
        }
      ],
      "name": "ERC20InvalidReceiver",
      "type": "error"
    },
    {
      "inputs": [
        {
          "internalType": "address",
          "name": "sender",
          "type": "address"
        }
      ],
      "name": "ERC20InvalidSender",
      "type": "error"
    },
    {
      "inputs": [
        {
          "internalType": "address",
          "name": "spender",
          "type": "address"
        }
      ],
      "name": "ERC20InvalidSpender",
      "type": "error"
    },
    {
      "inputs": [
        {
          "internalType": "address",
          "name": "owner",
          "type": "address"
        }
      ],
      "name": "OwnableInvalidOwner",
      "type": "error"
    },
    {
      "inputs": [
        {
          "internalType": "address",
          "name": "account",
          "type": "address"
        }
      ],
      "name": "OwnableUnauthorizedAccount",
      "type": "error"
    },
    {
      "anonymous": false,
      "inputs": [
        {
          "indexed": true,
          "internalType": "address",
          "name": "owner",
          "type": "address"
        },
        {
          "indexed": true,
          "internalType": "address",
          "name": "spender",
          "type": "address"
        },
        {
          "indexed": false,
          "internalType": "uint256",
          "name": "value",
          "type": "uint256"
        }
      ],
      "name": "Approval",
      "type": "event"
    },
    {
      "anonymous": false,
      "inputs": [
        {
          "indexed": true,
          "internalType": "address",
          "name": "contractAddress",
          "type": "address"
        }
      ],
      "name": "CrowdfundingContractAdded",
      "type": "event"
    },
    {
      "anonymous": false,
      "inputs": [
        {
          "indexed": true,
          "internalType": "address",
          "name": "contractAddress",
          "type": "address"
        }
      ],
      "name": "CrowdfundingContractRemoved",
      "type": "event"
    },
    {
      "anonymous": false,
      "inputs": [
        {
          "indexed": true,
          "internalType": "address",
          "name": "previousOwner",
          "type": "address"
        },
        {
          "indexed": true,
          "internalType": "address",
          "name": "newOwner",
          "type": "address"
        }
      ],
      "name": "OwnershipTransferred",
      "type": "event"
    },
    {
      "anonymous": false,
      "inputs": [
        {
          "indexed": true,
          "internalType": "address",
          "name": "from",
          "type": "address"
        },
        {
          "indexed": true,
          "internalType": "address",
          "name": "to",
          "type": "address"
        },
        {
          "indexed": false,
          "internalType": "uint256",
          "name": "value",
          "type": "uint256"
        }
      ],
      "name": "Transfer",
      "type": "event"
    },
    {
      "inputs": [
        {
          "internalType": "address",
          "name": "_contract",
          "type": "address"
        }
      ],
      "name": "addCrowdfundingContract",
      "outputs": [],
      "stateMutability": "nonpayable",
      "type": "function"
    },
    {
      "inputs": [
        {
          "internalType": "address",
          "name": "owner",
          "type": "address"
        },
        {
          "internalType": "address",
          "name": "spender",
          "type": "address"
        }
      ],
      "name": "allowance",
      "outputs": [
        {
          "internalType": "uint256",
          "name": "",
          "type": "uint256"
        }
      ],
      "stateMutability": "view",
      "type": "function"
    },
    {
      "inputs": [
        {
          "internalType": "address",
          "name": "spender",
          "type": "address"
        },
        {
          "internalType": "uint256",
          "name": "value",
          "type": "uint256"
        }
      ],
      "name": "approve",
      "outputs": [
        {
          "internalType": "bool",
          "name": "",
          "type": "bool"
        }
      ],
      "stateMutability": "nonpayable",
      "type": "function"
    },
    {
      "inputs": [
        {
          "internalType": "address",
          "name": "account",
          "type": "address"
        }
      ],
      "name": "balanceOf",
      "outputs": [
        {
          "internalType": "uint256",
          "name": "",
          "type": "uint256"
        }
      ],
      "stateMutability": "view",
      "type": "function"
    },
    {
      "inputs": [
        {
          "internalType": "uint256",
          "name": "value",
          "type": "uint256"
        }
      ],
      "name": "burn",
      "outputs": [],
      "stateMutability": "nonpayable",
      "type": "function"
    },
    {
      "inputs": [
        {
          "internalType": "address",
          "name": "account",
          "type": "address"
        },
        {
          "internalType": "uint256",
          "name": "value",
          "type": "uint256"
        }
      ],
      "name": "burnFrom",
      "outputs": [],
      "stateMutability": "nonpayable",
      "type": "function"
    },
    {
      "inputs": [
        {
          "internalType": "uint256",
          "name": "amount",
          "type": "uint256"
        },
        {
          "internalType": "address",
          "name": "from",
          "type": "address"
        }
      ],
      "name": "burnTokens",
      "outputs": [],
      "stateMutability": "nonpayable",
      "type": "function"
    },
    {
      "inputs": [
        {
          "internalType": "address",
          "name": "",
          "type": "address"
        }
      ],
      "name": "crowdfundingContracts",
      "outputs": [
        {
          "internalType": "bool",
          "name": "",
          "type": "bool"
        }
      ],
      "stateMutability": "view",
      "type": "function"
    },
    {
      "inputs": [],
      "name": "decimals",
      "outputs": [
        {
          "internalType": "uint8",
          "name": "",
          "type": "uint8"
        }
      ],
      "stateMutability": "view",
      "type": "function"
    },
    {
      "inputs": [
        {
          "internalType": "address",
          "name": "to",
          "type": "address"
        },
        {
          "internalType": "uint256",
          "name": "amount",
          "type": "uint256"
        }
      ],
      "name": "mint",
      "outputs": [],
      "stateMutability": "nonpayable",
      "type": "function"
    },
    {
      "inputs": [],
      "name": "name",
      "outputs": [
        {
          "internalType": "string",
          "name": "",
          "type": "string"
        }
      ],
      "stateMutability": "view",
      "type": "function"
    },
    {
      "inputs": [],
      "name": "owner",
      "outputs": [
        {
          "internalType": "address",
          "name": "",
          "type": "address"
        }
      ],
      "stateMutability": "view",
      "type": "function"
    },
    {
      "inputs": [
        {
          "internalType": "address",
          "name": "_contract",
          "type": "address"
        }
      ],
      "name": "removeCrowdfundingContract",
      "outputs": [],
      "stateMutability": "nonpayable",
      "type": "function"
    },
    {
      "inputs": [],
      "name": "renounceOwnership",
      "outputs": [],
      "stateMutability": "nonpayable",
      "type": "function"
    },
    {
      "inputs": [
        {
          "internalType": "address",
          "name": "_factoryAddress",
          "type": "address"
        }
      ],
      "name": "setFactoryAndTransferOwnership",
      "outputs": [],
      "stateMutability": "nonpayable",
      "type": "function"
    },
    {
      "inputs": [],
      "name": "symbol",
      "outputs": [
        {
          "internalType": "string",
          "name": "",
          "type": "string"
        }
      ],
      "stateMutability": "view",
      "type": "function"
    },
    {
      "inputs": [],
      "name": "totalSupply",
      "outputs": [
        {
          "internalType": "uint256",
          "name": "",
          "type": "uint256"
        }
      ],
      "stateMutability": "view",
      "type": "function"
    },
    {
      "inputs": [
        {
          "internalType": "address",
          "name": "to",
          "type": "address"
        },
        {
          "internalType": "uint256",
          "name": "value",
          "type": "uint256"
        }
      ],
      "name": "transfer",
      "outputs": [
        {
          "internalType": "bool",
          "name": "",
          "type": "bool"
        }
      ],
      "stateMutability": "nonpayable",
      "type": "function"
    },
    {
      "inputs": [
        {
          "internalType": "address",
          "name": "from",
          "type": "address"
        },
        {
          "internalType": "address",
          "name": "to",
          "type": "address"
        },
        {
          "internalType": "uint256",
          "name": "value",
          "type": "uint256"
        }
      ],
      "name": "transferFrom",
      "outputs": [
        {
          "internalType": "bool",
          "name": "",
          "type": "bool"
        }
      ],
      "stateMutability": "nonpayable",
      "type": "function"
    },
    {
      "inputs": [
        {
          "internalType": "address",
          "name": "newOwner",
          "type": "address"
        }
      ],
      "name": "transferOwnership",
      "outputs": [],
      "stateMutability": "nonpayable",
      "type": "function"
    }
  ],
  "bytecode": "0x6080346200037d576040906001600160401b0390808301828111828210176200027d578352601281526020917126aba3902237b730ba34b7b7102a37b5b2b760711b838301528351848101818110838211176200027d57855260068152651355d1cb511560d21b8482015282518281116200027d576003918254916001958684811c9416801562000372575b888510146200035c578190601f9485811162000306575b5088908583116001146200029f5760009262000293575b505060001982861b1c191690861b1783555b80519384116200027d5760049586548681811c9116801562000272575b828210146200025d5783811162000212575b5080928511600114620001a4575093839491849260009562000198575b50501b92600019911b1c19161781555b331562000182575060058054336001600160a01b0319821681179092559151916001600160a01b03167f8be0079c531659141344cd1fd0a4f28419497f9722a3daafe3b4186f6b6457e0600080a3610de79081620003838239f35b60006024925191631e4fbdf760e01b8352820152fd5b01519350388062000117565b92919084601f1981168860005285600020956000905b89838310620001f75750505010620001dc575b50505050811b01815562000127565b01519060f884600019921b161c1916905538808080620001cd565b858701518955909701969485019488935090810190620001ba565b87600052816000208480880160051c82019284891062000253575b0160051c019087905b82811062000246575050620000fa565b6000815501879062000236565b925081926200022d565b602288634e487b7160e01b6000525260246000fd5b90607f1690620000e8565b634e487b7160e01b600052604160045260246000fd5b015190503880620000b9565b90889350601f19831691876000528a6000209260005b8c828210620002ef5750508411620002d6575b505050811b018355620000cb565b015160001983881b60f8161c19169055388080620002c8565b8385015186558c97909501949384019301620002b5565b90915085600052886000208580850160051c8201928b861062000352575b918a91869594930160051c01915b82811062000342575050620000a2565b600081558594508a910162000332565b9250819262000324565b634e487b7160e01b600052602260045260246000fd5b93607f16936200008b565b600080fdfe608060409080825260048036101561001657600080fd5b600091823560e01c90816306fdde031461093f57508063095ea7b31461089457806318160ddd1461087557806323b872dd14610838578063313ce5671461081c57806340c10f191461070657806342966c68146106e957806370a08231146106b3578063712a7ea51461064d578063715018a6146105e557806379cc6790146105b75780638da5cb5b1461058f57806395d89b411461046e5780639730b305146103d85780639851967c14610326578063a9059cbb146102f5578063ba78dd4e146102b9578063dd62ed3e14610270578063f2fde38b146102185763fe66aaf61461010057600080fd5b3461021457602036600319011261021457610119610a63565b90610122610d30565b60075460ff81166101d1576001600160a01b03831691821561018e5750600161018b94958160ff198094161760075583875260066020528620918254161790557f6afa6d5e96f15ea2cd23ac300bdc27574c312ff76dd44b4c96ca807b12e453958480a2610d5c565b80f35b606490602087519162461bcd60e51b8352820152601760248201527f496e76616c696420666163746f727920616464726573730000000000000000006044820152fd5b845162461bcd60e51b8152602081840152601360248201527f466163746f727920616c726561647920736574000000000000000000000000006044820152606490fd5b5080fd5b5082903461026c57602036600319011261026c57610234610a63565b9161023d610d30565b6001600160a01b03831615610256578361018b84610d5c565b51631e4fbdf760e01b8152908101839052602490fd5b8280fd5b8284346102145780600319360112610214578060209261028e610a63565b610296610a7e565b6001600160a01b0391821683526001865283832091168252845220549051908152f35b8284346102145760203660031901126102145760ff816020936001600160a01b036102e2610a63565b1681526006855220541690519015158152f35b82843461021457806003193601126102145760209061031f610315610a63565b6024359033610bb3565b5160018152f35b50823461026c57602036600319011261026c576001600160a01b03610349610a63565b610351610d30565b16918215610396575081835260066020528220805460ff191660011790557f6afa6d5e96f15ea2cd23ac300bdc27574c312ff76dd44b4c96ca807b12e453958280a280f35b6020606492519162461bcd60e51b8352820152601860248201527f496e76616c696420636f6e7472616374206164647265737300000000000000006044820152fd5b50346102145782600319360112610214578035906103f4610a7e565b90338452600660205260ff85852054161561041f57509061018b9161041a821515610a94565b610c91565b608490602086519162461bcd60e51b83528201526024808201527f4f6e6c792063726f776466756e64696e6720636f6e7472616374732063616e20604482015263313ab93760e11b6064820152fd5b50913461021457816003193601126102145780519082845460018160011c9060018316928315610585575b6020938484108114610572578388529081156105565750600114610501575b505050829003601f01601f191682019267ffffffffffffffff8411838510176104ee57508291826104ea925282610a1a565b0390f35b634e487b7160e01b815260418552602490fd5b8787529192508591837f8a35acfbc15ff81a39ae7d344fd709f28e8600b4aa8c65c6b64bfe7fe36bd19b5b83851061054257505050508301013880806104b8565b80548886018301529301928490820161052c565b60ff1916878501525050151560051b84010190503880806104b8565b634e487b7160e01b895260228a52602489fd5b91607f1691610499565b8284346102145781600319360112610214576020906001600160a01b03600554169051908152f35b828434610214573660031901126105e25761018b6105d3610a63565b6024359061041a823383610adf565b80fd5b82346105e257806003193601126105e2576105fe610d30565b806001600160a01b0360055473ffffffffffffffffffffffffffffffffffffffff198116600555167f8be0079c531659141344cd1fd0a4f28419497f9722a3daafe3b4186f6b6457e08280a380f35b828434610214576020366003190112610214576001600160a01b03610670610a63565b610678610d30565b168083526006602052908220805460ff191690557f99a1cc644e31d1b7b8916aa392d3791e8186e8014313c2e1a300c5aebf355f578280a280f35b82843461021457602036600319011261021457806020926001600160a01b036106da610a63565b16815280845220549051908152f35b50346102145760203660031901126102145761018b903533610c91565b50823461026c578060031936011261026c57610720610a63565b9060243591338552600660205260ff8286205416156107cd576001600160a01b039061074d841515610a94565b169283156107b857600254908382018092116107a5575084927fddf252ad1be2c89b69c2b068fc378daa952ba7f163c4a11628f55a4df523b3ef9260209260025585855284835280852082815401905551908152a380f35b634e487b7160e01b865260119052602485fd5b84602492519163ec442f0560e01b8352820152fd5b815162461bcd60e51b81526020818601526024808201527f4f6e6c792063726f776466756e64696e6720636f6e7472616374732063616e206044820152631b5a5b9d60e21b6064820152608490fd5b8284346102145781600319360112610214576020905160128152f35b8284346102145760603660031901126102145760209061031f610859610a63565b610861610a7e565b60443591610870833383610adf565b610bb3565b8284346102145781600319360112610214576020906002549051908152f35b5082903461026c578160031936011261026c576108af610a63565b602435903315610928576001600160a01b031691821561091157508083602095338152600187528181208582528752205582519081527f8c5be1e5ebec7d5bd14f71427d1e84f3dd0314c0f7b2291e5b200ac8c7c3b925843392a35160018152f35b8351634a1406b160e11b8152908101859052602490fd5b835163e602df0560e01b8152808401869052602490fd5b919390503461026c578260031936011261026c578260035460018160011c9060018316928315610a10575b60209384841081146105725783885290811561055657506001146109ba57505050829003601f01601f191682019267ffffffffffffffff8411838510176104ee57508291826104ea925282610a1a565b600387529192508591837fc2575a0e9e593c00f959f8c92f12db2869c3395a3b0502d05e2516446f71f85b5b8385106109fc57505050508301013880806104b8565b8054888601830152930192849082016109e6565b91607f169161096a565b6020808252825181830181905290939260005b828110610a4f57505060409293506000838284010152601f8019910116010190565b818101860151848201604001528501610a2d565b600435906001600160a01b0382168203610a7957565b600080fd5b602435906001600160a01b0382168203610a7957565b15610a9b57565b606460405162461bcd60e51b815260206004820152602060248201527f416d6f756e74206d7573742062652067726561746572207468616e207a65726f6044820152fd5b916001600160a01b038093169160009383855260016020526040938486209183169182875260205284862054926000198403610b1f575b50505050505050565b848410610b8357508015610b6b578115610b5357855260016020528385209085526020520391205538808080808080610b16565b8451634a1406b160e11b815260048101879052602490fd5b845163e602df0560e01b815260048101879052602490fd5b8551637dc7a0d960e11b81526001600160a01b039190911660048201526024810184905260448101859052606490fd5b916001600160a01b03808416928315610c785716928315610c5f5760009083825281602052604082205490838210610c2d575091604082827fddf252ad1be2c89b69c2b068fc378daa952ba7f163c4a11628f55a4df523b3ef958760209652828652038282205586815220818154019055604051908152a3565b60405163391434e360e21b81526001600160a01b03919091166004820152602481019190915260448101839052606490fd5b60405163ec442f0560e01b815260006004820152602490fd5b604051634b637e8f60e11b815260006004820152602490fd5b906001600160a01b038216908115610c785760009282845283602052604084205490828210610cfe5750817fddf252ad1be2c89b69c2b068fc378daa952ba7f163c4a11628f55a4df523b3ef926020928587528684520360408620558060025403600255604051908152a3565b60405163391434e360e21b81526001600160a01b03919091166004820152602481019190915260448101829052606490fd5b6001600160a01b03600554163303610d4457565b60405163118cdaa760e01b8152336004820152602490fd5b600554906001600160a01b03809116918273ffffffffffffffffffffffffffffffffffffffff19821617600555167f8be0079c531659141344cd1fd0a4f28419497f9722a3daafe3b4186f6b6457e0600080a356fea264697066735822122063353adba0e959dc8c90c74fce83eea5eabfb69a4916cab6f5369d3234da3ed064736f6c63430008180033",
  "linkReferences": {},
  "deployedLinkReferences": {}
}