{
  "_format": "hh-sol-artifact-1",
  "contractName": "CrowdFundingFactory",
  "sourceName": "contracts/CrowdFundingFactory.sol",
  "abi": [
    {
      "inputs": [
        {
          "internalType": "address",
          "name": "_implementation",
          "type": "address"
        },
        {
          "internalType": "address",
          "name": "_donationTokenAddress",
          "type": "address"
        }
      ],
      "stateMutability": "nonpayable",
      "type": "constructor"
    },
    {
      "inputs": [],
      "name": "CreateFundingContractFailed",
      "type": "error"
    },
    {
      "inputs": [],
      "name": "ERC1167FailedCreateClone",
      "type": "error"
    },
    {
      "inputs": [],
      "name": "FundingForNewContractTooSmall",
      "type": "error"
    },
    {
      "inputs": [],
      "name": "InvalidCategory",
      "type": "error"
    },
    {
      "inputs": [],
      "name": "InvalidDonationScale",
      "type": "error"
    },
    {
      "inputs": [],
      "name": "InvalidFee",
      "type": "error"
    },
    {
      "inputs": [],
      "name": "NoFundsToWithdraw",
      "type": "error"
    },
    {
      "inputs": [
        {
          "internalType": "address",
          "name": "owner",
          "type": "address"
        }
      ],
      "name": "OwnableInvalidOwner",
      "type": "error"
    },
    {
      "inputs": [
        {
          "internalType": "address",
          "name": "account",
          "type": "address"
        }
      ],
      "name": "OwnableUnauthorizedAccount",
      "type": "error"
    },
    {
      "inputs": [],
      "name": "WithdrawalFailed",
      "type": "error"
    },
    {
      "anonymous": false,
      "inputs": [
        {
          "indexed": false,
          "internalType": "uint256",
          "name": "oldScale",
          "type": "uint256"
        },
        {
          "indexed": false,
          "internalType": "uint256",
          "name": "newScale",
          "type": "uint256"
        }
      ],
      "name": "DonationScaleUpdated",
      "type": "event"
    },
    {
      "anonymous": false,
      "inputs": [
        {
          "indexed": false,
          "internalType": "uint256",
          "name": "oldFee",
          "type": "uint256"
        },
        {
          "indexed": false,
          "internalType": "uint256",
          "name": "newFee",
          "type": "uint256"
        }
      ],
      "name": "FundingFeeUpdated",
      "type": "event"
    },
    {
      "anonymous": false,
      "inputs": [
        {
          "indexed": true,
          "internalType": "address",
          "name": "owner",
          "type": "address"
        },
        {
          "indexed": false,
          "internalType": "uint256",
          "name": "amount",
          "type": "uint256"
        }
      ],
      "name": "FundsWithdrawn",
      "type": "event"
    },
    {
      "anonymous": false,
      "inputs": [
        {
          "indexed": true,
          "internalType": "address",
          "name": "owner",
          "type": "address"
        },
        {
          "indexed": true,
          "internalType": "address",
          "name": "contractAddress",
          "type": "address"
        },
        {
          "indexed": false,
          "internalType": "string",
          "name": "contractDetailsId",
          "type": "string"
        },
        {
          "indexed": true,
          "internalType": "string",
          "name": "title",
          "type": "string"
        },
        {
          "indexed": false,
          "internalType": "uint8",
          "name": "category",
          "type": "uint8"
        },
        {
          "indexed": false,
          "internalType": "uint256",
          "name": "duration",
          "type": "uint256"
        },
        {
          "indexed": false,
          "internalType": "uint256",
          "name": "goal",
          "type": "uint256"
        }
      ],
      "name": "NewCrowdFundingContractCreated",
      "type": "event"
    },
    {
      "anonymous": false,
      "inputs": [
        {
          "indexed": true,
          "internalType": "address",
          "name": "previousOwner",
          "type": "address"
        },
        {
          "indexed": true,
          "internalType": "address",
          "name": "newOwner",
          "type": "address"
        }
      ],
      "name": "OwnershipTransferred",
      "type": "event"
    },
    {
      "inputs": [
        {
          "internalType": "string",
          "name": "_contractDetailsId",
          "type": "string"
        },
        {
          "internalType": "enum CrowdFundingFactory.Category",
          "name": "_category",
          "type": "uint8"
        },
        {
          "internalType": "string",
          "name": "_title",
          "type": "string"
        },
        {
          "internalType": "uint256",
          "name": "_goal",
          "type": "uint256"
        },
        {
          "internalType": "uint256",
          "name": "_duration",
          "type": "uint256"
        }
      ],
      "name": "createNewCrowdFundingContract",
      "outputs": [
        {
          "internalType": "address",
          "name": "",
          "type": "address"
        }
      ],
      "stateMutability": "payable",
      "type": "function"
    },
    {
      "inputs": [],
      "name": "donationToken",
      "outputs": [
        {
          "internalType": "contract CrowdFundingToken",
          "name": "",
          "type": "address"
        }
      ],
      "stateMutability": "view",
      "type": "function"
    },
    {
      "inputs": [],
      "name": "getBalance",
      "outputs": [
        {
          "internalType": "uint256",
          "name": "",
          "type": "uint256"
        }
      ],
      "stateMutability": "view",
      "type": "function"
    },
    {
      "inputs": [
        {
          "internalType": "address",
          "name": "owner",
          "type": "address"
        }
      ],
      "name": "getCampaignsByOwner",
      "outputs": [
        {
          "internalType": "address[]",
          "name": "",
          "type": "address[]"
        }
      ],
      "stateMutability": "view",
      "type": "function"
    },
    {
      "inputs": [],
      "name": "getDeployedCrowdFundingContracts",
      "outputs": [
        {
          "internalType": "address[]",
          "name": "",
          "type": "address[]"
        }
      ],
      "stateMutability": "view",
      "type": "function"
    },
    {
      "inputs": [],
      "name": "getDonationScale",
      "outputs": [
        {
          "internalType": "uint256",
          "name": "",
          "type": "uint256"
        }
      ],
      "stateMutability": "view",
      "type": "function"
    },
    {
      "inputs": [],
      "name": "getFundingFee",
      "outputs": [
        {
          "internalType": "uint256",
          "name": "",
          "type": "uint256"
        }
      ],
      "stateMutability": "view",
      "type": "function"
    },
    {
      "inputs": [],
      "name": "owner",
      "outputs": [
        {
          "internalType": "address",
          "name": "",
          "type": "address"
        }
      ],
      "stateMutability": "view",
      "type": "function"
    },
    {
      "inputs": [
        {
          "internalType": "address",
          "name": "",
          "type": "address"
        },
        {
          "internalType": "uint256",
          "name": "",
          "type": "uint256"
        }
      ],
      "name": "ownerToCampaigns",
      "outputs": [
        {
          "internalType": "address",
          "name": "",
          "type": "address"
        }
      ],
      "stateMutability": "view",
      "type": "function"
    },
    {
      "inputs": [],
      "name": "renounceOwnership",
      "outputs": [],
      "stateMutability": "nonpayable",
      "type": "function"
    },
    {
      "inputs": [
        {
          "internalType": "uint256",
          "name": "_newScale",
          "type": "uint256"
        }
      ],
      "name": "setDonationScale",
      "outputs": [],
      "stateMutability": "nonpayable",
      "type": "function"
    },
    {
      "inputs": [
        {
          "internalType": "uint256",
          "name": "_newFee",
          "type": "uint256"
        }
      ],
      "name": "setFundingFee",
      "outputs": [],
      "stateMutability": "nonpayable",
      "type": "function"
    },
    {
      "inputs": [
        {
          "internalType": "address",
          "name": "newOwner",
          "type": "address"
        }
      ],
      "name": "transferOwnership",
      "outputs": [],
      "stateMutability": "nonpayable",
      "type": "function"
    },
    {
      "inputs": [],
      "name": "withdrawFunds",
      "outputs": [],
      "stateMutability": "nonpayable",
      "type": "function"
    },
    {
      "stateMutability": "payable",
      "type": "receive"
    }
  ],
  "bytecode": "0x60a03461013e57601f610d8138819003918201601f19168301916001600160401b0383118484101761014357808492604094855283398101031261013e57610052602061004b83610159565b9201610159565b90331561012557600080546001600160a01b031980821633908117845560405191956001600160a01b0395909490938616907f8be0079c531659141344cd1fd0a4f28419497f9722a3daafe3b4186f6b6457e09080a3633b9aca006003556001600455838216156100e3575060805216906005541617600555604051610c13908161016e8239608051816102720152f35b62461bcd60e51b815260206004820152601e60248201527f496e76616c696420696d706c656d656e746174696f6e206164647265737300006044820152606490fd5b604051631e4fbdf760e01b815260006004820152602490fd5b600080fd5b634e487b7160e01b600052604160045260246000fd5b51906001600160a01b038216820361013e5756fe6080604081815260049182361015610022575b505050361561002057600080fd5b005b600092833560e01c9182630df72159146109eb5750816312065fe0146109d057816324600fc31461093e5781633a88cc851461091f5781633c0efefa146108a457816351bdebb914610827578163715018a6146107c15781638da5cb5b1461079b578163ae30631914610726578163b4be88f314610696578163cb5e02f5146101e0578163dd3aebec146101c2578163f2fde38b1461012a575063f9ed8ead146100cc5780610012565b346101265780600319360112610126576100e4610a10565b602435926001600160a01b0380921681526006602052828120908154851015610123575060209361011491610b0b565b92905490519260031b1c168152f35b80fd5b5080fd5b9050346101be5760203660031901126101be57610145610a10565b9061014e610bb1565b6001600160a01b038092169283156101a857505082548273ffffffffffffffffffffffffffffffffffffffff198216178455167f8be0079c531659141344cd1fd0a4f28419497f9722a3daafe3b4186f6b6457e08380a380f35b51631e4fbdf760e01b8152908101849052602490fd5b8280fd5b9050346101be57826003193601126101be5760209250549051908152f35b83915060a03660031901126101265767ffffffffffffffff92813584811161052b5761020f9036908401610ac4565b602492833591600983101561069257604494853588811161068e576102379036908501610ac4565b6064978835926084359685511561064e5783511561060e5784156105ce57871561058e5760ff169560088711610580576003543410610572577f00000000000000000000000000000000000000000000000000000000000000009a763d602d80600a3d3981f3363d3d373d3d3d363d7300000062ffffff8d60881c161784526e5af43d82803e903d91602b57fd5bf360209c60781b178c526037600985f06001600160a01b03918282169c8d156105625791858f8b8f918f958f938c98978f8f968b9a978b988e60055416955198899889019b633eb2497b60e11b8d5289016101009052610124890161032991610b8c565b90602319898303019089015261033e91610b8c565b94860152608485015260a48401523060c484015260e48301523361010483015203601f19810182526103709082610a70565b51925af161037c610b39565b50156105535760015468010000000000000000908181101561052f576001810180600155811015610541577fb10e2d527612073b26eecdfd717e6a320cf44b4afac2b0732d9fcbe2b7fa0cf6018c73ffffffffffffffffffffffffffffffffffffffff1982541617905533855260068d528a852080549182101561052f578161040b9160018f94018155610b0b565b83829392549160031b92831b921b191617905560055416803b1561052b5790838092848d8d519788938492632614659f60e21b8452878401525af19c8d15610521578b9c9d9b999a9b6104cb575b5050505050906104977fff1332e9603156064c04f8155bf5371aaa2e993afb3ca17a7c2f2ef582a6c07393928a895192828480945193849201610b69565b8101039020956104b1885193608085526080850190610b8c565b948a8401528783015260608201528033930390a451908152f35b90919293809596979899501161051157505050865286939291906104977fff1332e9603156064c04f8155bf5371aaa2e993afb3ca17a7c2f2ef582a6c0738b8080610459565b634e487b7160e01b825260419052fd5b8a513d84823e3d90fd5b8380fd5b634e487b7160e01b8652604184528486fd5b634e487b7160e01b8652603284528486fd5b50885163cba601e360e01b8152fd5b8c516330be1a3d60e21b81528590fd5b8851636686da2160e11b8152fd5b8851636b3ac97b60e11b8152fd5b885162461bcd60e51b8152602081890152601f818401527f4475726174696f6e206d7573742062652067726561746572207468616e203000818c01528b90fd5b885162461bcd60e51b8152602081890152601b818401527f476f616c206d7573742062652067726561746572207468616e20300000000000818c01528b90fd5b885162461bcd60e51b8152602081890152600b818401527f456d707479207469746c65000000000000000000000000000000000000000000818c01528b90fd5b885162461bcd60e51b81526020818901526019818401527f456d70747920636f6e74726163742064657461696c7320494400000000000000818c01528b90fd5b8780fd5b8580fd5b828434610123578060031936011261012357815191829160018054808652602080960195600184527fb10e2d527612073b26eecdfd717e6a320cf44b4afac2b0732d9fcbe2b7fa0cf693905b8282106107085761070487876106fa828c0383610a70565b5191829182610a2b565b0390f35b84546001600160a01b031688529687019693830193908301906106e2565b9050346101be5760203660031901126101be57803590610744610bb1565b670de0b6b3a7640000821161078d5750907fb2743902575ffdab882dfa43a3501f82fbbefa0d2c637e393aed1e80e2cb840b91600354908060035582519182526020820152a180f35b82516358d620b360e01b8152fd5b5050346101265781600319360112610126576001600160a01b0360209254169051908152f35b83346101235780600319360112610123576107da610bb1565b806001600160a01b03815473ffffffffffffffffffffffffffffffffffffffff1981168355167f8be0079c531659141344cd1fd0a4f28419497f9722a3daafe3b4186f6b6457e08280a380f35b5050346101265760209060206003193601126101be576001600160a01b03928361084f610a10565b16815260066020528181209382519081946020875493848152019684526020842093915b83831061088b5761070487876106fa828c0383610a70565b8454811688529681019660019485019490920191610873565b9050346101be5760203660031901126101be5780356108c1610bb1565b80158015610914575b6109055790817f4f387a384ddcc6417b43a22ae6369898c48dae129fe6e66aed60326e44e70d3593928254925582519182526020820152a180f35b50905163638789db60e11b8152fd5b506103e881116108ca565b5050346101265781600319360112610126576020906003549051908152f35b9050346101be57826003193601126101be57610958610bb1565b479081156109c2576001600160a01b03908480808086868254165af161097c610b39565b50156109b457507feaff4b37086828766ad3268786972c0cd24259d4c87a80f9d3963a3c3d999b0d916020918554169351908152a280f35b83516327fcd9d160e01b8152fd5b82516367e3990d60e01b8152fd5b50503461012657816003193601126101265751478152602090f35b8490346101265781600319360112610126576020906001600160a01b03600554168152f35b600435906001600160a01b0382168203610a2657565b600080fd5b602090602060408183019282815285518094520193019160005b828110610a53575050505090565b83516001600160a01b031685529381019392810192600101610a45565b90601f8019910116810190811067ffffffffffffffff821117610a9257604052565b634e487b7160e01b600052604160045260246000fd5b67ffffffffffffffff8111610a9257601f01601f191660200190565b81601f82011215610a2657803590610adb82610aa8565b92610ae96040519485610a70565b82845260208383010111610a2657816000926020809301838601378301015290565b8054821015610b235760005260206000200190600090565b634e487b7160e01b600052603260045260246000fd5b3d15610b64573d90610b4a82610aa8565b91610b586040519384610a70565b82523d6000602084013e565b606090565b60005b838110610b7c5750506000910152565b8181015183820152602001610b6c565b90602091610ba581518092818552858086019101610b69565b601f01601f1916010190565b6001600160a01b03600054163303610bc557565b60405163118cdaa760e01b8152336004820152602490fdfea2646970667358221220eb418ecca9a58e2db137a493e389451fc14039f46c825eb8dce5c2f3ded8850264736f6c63430008180033",
  "linkReferences": {},
  "deployedLinkReferences": {}
}